PAKVW6522    0PAKVW6522  0113078684811NJT2017052679838432000163201714120161412017141201729000 14822   00VAN     99945   201703310000000000000000021TIMMARK             TIMMARK JOHNS                      6767 BACHARACH BLVD 48                                                BLACKWOOD                     NJ080122223FER0012                       NJ1234                        00000000          00000000          000000000000   D
PAJ38SW8P    0PAJ38SW8P  0113078684813NJT2017052679838432000163201714120161412017141201729000 14822   00VAN     99945   201703310000000000000000021WALTOYRSUS          WALTOYRSUS CORP                    5678 BACHARACH BLVD 99                                                BLACKWOOD                     NJ080122223FER0012                       NJ1234                        00000000          00000000          000000000000   D
NYJ3SWFP     0NYJ3SWFP 	 0113078684821NJT2017052679838432000163201714120161412017141201729000 14822   00VAN     99945   201703310000000000000000021WALTOYRSUS          WALTOYRSUS CORP                    5678 BACHARACH BLVD 99                                                BLACKWOOD                     NJ076522223FER0012                       NJ1234                        00000000          00000000          000000000000   D
NJP680297    0NJP680297  0113078684848NJT2017052679838432000163201714120161412017141201729000 14822   00VAN     99945   201703310000000000000000021WALTOYRSUS          WALTOYRSUS CORP                    5678 BACHARACH BLVD 99                                                BLACKWOOD                     NJ076522223FER0012                       NJ1234                        00000000          00000000          000000000000   D
NJJ37SW7P    0NJ37SW7P   0113078686075NJT2017052679838432000163201714120161412017141201729000 14822   00VAN     99945   201703310000000000000000021WALTOYRSUS          WALTOYRSUS CORP                    5678 BACHARACH BLVD 99                                                BLACKWOOD                     NJ076522223FER0012                       NJ1234                        00000000          00000000          000000000000   D
NJIM54AM     0NJIM54AM   0113078684814NJT2017052679838432000163201714120161412017141201729000 14822   00VAN     99945   201703310000000000000000021JOIUSPOL            JOIUSPOL DENT                      91671 STATE ROUTE 67                                                  NEWARK                        NJ071062223FER0012                       NJ1234                        00000000          00000000          000000000000   D
IN2560191    0NJ2560191  0113078684850NJT2017052679838432000163201714120161412017141201729000 14822   00VAN     99945   201703310000000000000000021JOIUSPOL            JOIUSPOL DENT                      91671 STATE ROUTE 67                                                  NEWARK                        NJ071062223FER0012                       NJ1234                        00000000          00000000          000000000000   D
