NJ3XM8P1    00NJ3XM8P1  00113078663816NJT2017052679838432000163201714120161412017141201729000 14822   00VAN     99945   201703310000000000000000021GISLASON            GISLASON HAROLD                    8520 WEHNER FORK                                                      GERMANTOWN                    NJ07001    FER0012                       NJ1234                        00000000          00000000          000000000000   D
NJ3XM8P2    00NJ3XM8P2  00113078663817NJT2017052679838432000163201714120161412017141201729000 14822   00VAN     99945   201703310000000000000000021COLE                COLE ROSAMOND                      930 BATZ PASS                                                         GERMANTOWN                    NJ07001    FER0012                       NJ1234                        00000000          00000000          000000000000   D
NJ3XM8P3    00NJ3XM8P3  00113078663821NJT2017052679838432000163201714120161412017141201729000 14822   00VAN     99945   201703310000000000000000021KOEPP               KOEPP ERIKA                        61227 BRADLY CIRCLE                                                   GERMANTOWN                    NJ07001    FER0012                       NJ1234                        00000000          00000000          000000000000   D
NJ3XM8P4    00NJ3XM8P4  00113078663828NJT2017052679838432000163201714120161412017141201729000 14822   00VAN     99945   201703310000000000000000021BERGSTROM           BERGSTROM REECE                    54225 MELISA RAPIDS                                                   GERMANTOWN                    NJ07001    FER0012                       NJ1234                        00000000          00000000          000000000000   D
NJ3XM8P5    00NJ3XM8P5  00113078663832NJT2017052679838432000163201714120161412017141201729000 14822   00VAN     99945   201703310000000000000000021MURRAY              MURRAY MITTIE                      20361 QUIGLEY MOUNTAINS                                               GERMANTOWN                    NJ07001    FER0012                       NJ1234                        00000000          00000000          000000000000   D
