NJB5C2P1    00NJB5C2P1  00113080314518NJT2017052679838432000163201714120161412017141201729000 14822   00VAN     99945   201703310000000000000000021CORMIER             CORMIER ESTELLE                    6064 CONSIDINE SHORES                                                 NEWARK                        NJ07114    FER0012                       NJ1234                        00000000          00000000          000000000000   D
NJB5C2P2    00NJB5C2P2  00113080314524NJT2017052679838432000163201714120161412017141201729000 14822   00VAN     99945   201703310000000000000000021SWANIAWSKI          SWANIAWSKI CAMDEN                  125 HERMISTON LOCKS                                                   NEWARK                        NJ07114    FER0012                       NJ1234                        00000000          00000000          000000000000   D
NJB5C2P3    00NJB5C2P3  00113080314525NJT2017052679838432000163201714120161412017141201729000 14822   00VAN     99945   201703310000000000000000021MACGYVER            MACGYVER MARISOL                   040 ELENOR LOAF                                                       NEWARK                        NJ07114    FER0012                       NJ1234                        00000000          00000000          000000000000   D
