NJOAKP1     00NJOAKP1   00111408992814NJT2017052679838432000163201714120161412017141201729000 14822   00VAN     99945   201703310000000000000000021PREMCHAND           PREMCHAND PLR                      MUNSI STREET                                                          GERMANTOWN                    NJ07001    FER0012                       NJ1234                        00000000          00000000          000000000000   D
NJOAKP2     00NJOAKP2   00111408992821NJT2017052679838432000163201714120161412017141201729000 14822   00VAN     99945   201703310000000000000000021PREMCHAND           PREMCHAND PLR                      MUNSI STREET                                                          GERMANTOWN                    NJ07001    FER0012                       NJ1234                        00000000          00000000          000000000000   D
NJOAKP3     00NJOAKP3   00111408992826NJT2017052679838432000163201714120161412017141201729000 14822   00VAN     99945   201703310000000000000000021PREMCHAND           PREMCHAND PLR                      MUNSI STREET                                                          GERMANTOWN                    NJ07001    FER0012                       NJ1234                        00000000          00000000          000000000000   D
NJOAKP4     00NJOAKP4   00111408992827NJT2017052679838432000163201714120161412017141201729000 14822   00VAN     99945   201703310000000000000000021PREMCHAND           PREMCHAND PLR                      MUNSI STREET                                                          GERMANTOWN                    NJ07001    FER0012                       NJ1234                        00000000          00000000          000000000000   D
NJOAKP5     00NJOAKP5   00111408992806NJT2017052679838432000163201714120161412017141201729000 14822   00VAN     99945   201703310000000000000000021PREMCHAND           PREMCHAND PLR                      MUNSI STREET                                                          GERMANTOWN                    NJ07001    FER0012                       NJ1234                        00000000          00000000          000000000000   D
NJOAKP6     00NJOAKP6   00111408992810NJT2017052679838432000163201714120161412017141201729000 14822   00VAN     99945   201703310000000000000000021PREMCHAND           PREMCHAND PLR                      MUNSI STREET                                                          GERMANTOWN                    NJ07001    FER0012                       NJ1234                        00000000          00000000          000000000000   D
