NJDSKJ341   00NJDSKJ341 00111409477040NJT2017052679838432000163201714120161412017141201729000 14822   00VAN     99945   201703310000000000000000021WISOZK              WISOZK ENOCH                       97561 HOWE CANYON                                                     GERMANTOWN                    NJ07001    FER0012                       NJ1234                        00000000          00000000          000000000000   D
NJDSKJ342   00NJDSKJ342 00111409477044NJT2017052679838432000163201714120161412017141201729000 14822   00VAN     99945   201703310000000000000000021CONN                CONN GERTRUDE                      6105 BROWN RIVER                                                      GERMANTOWN                    NJ07001    FER0012                       NJ1234                        00000000          00000000          000000000000   D
NJDSKJ343   00NJDSKJ343 00111409477045NJT2017052679838432000163201714120161412017141201729000 14822   00VAN     99945   201703310000000000000000021TRANTOW             TRANTOW KEANU                      17303 MACEJKOVIC EXPRESSWAY                                           GERMANTOWN                    NJ07001    FER0012                       NJ1234                        00000000          00000000          000000000000   D
NJDSKJ344   00NJDSKJ344 00111409477052NJT2017052679838432000163201714120161412017141201729000 14822   00VAN     99945   201703310000000000000000021LINDGREN            LINDGREN MATT                      524 CROOKS PORT                                                       GERMANTOWN                    NJ07001    FER0012                       NJ1234                        00000000          00000000          000000000000   D
NJDSKJ345   00NJDSKJ345 00111409477055NJT2017052679838432000163201714120161412017141201729000 14822   00VAN     99945   201703310000000000000000021CHAMPLIN            CHAMPLIN JANET                     39875 DARYL FORD                                                      GERMANTOWN                    NJ07001    FER0012                       NJ1234                        00000000          00000000          000000000000   D
NJDSKJ346   00NJDSKJ346 00111409477058NJT2017052679838432000163201714120161412017141201729000 14822   00VAN     99945   201703310000000000000000021FARRELL             FARRELL HATTIE                     25215 KUNDE LODGE                                                     GERMANTOWN                    NJ07001    FER0012                       NJ1234                        00000000          00000000          000000000000   D
NJDSKJ347   00NJDSKJ347 00111409477061NJT2017052679838432000163201714120161412017141201729000 14822   00VAN     99945   201703310000000000000000021WEIMANN             WEIMANN CORNELL                    074 NICOLAS GLEN                                                      GERMANTOWN                    NJ07001    FER0012                       NJ1234                        00000000          00000000          000000000000   D
NJDSKJ348   00NJDSKJ348 00111409477068NJT2017052679838432000163201714120161412017141201729000 14822   00VAN     99945   201703310000000000000000021MORISSETTE          MORISSETTE SABRINA                 624 PARISIAN PLAIN                                                    GERMANTOWN                    NJ07001    FER0012                       NJ1234                        00000000          00000000          000000000000   D
NJDSKJ349   00NJDSKJ349 00111409477071NJT2017052679838432000163201714120161412017141201729000 14822   00VAN     99945   201703310000000000000000021RITCHIE             RITCHIE KELSIE                     214 COLLEEN UNIONS                                                    GERMANTOWN                    NJ07001    FER0012                       NJ1234                        00000000          00000000          000000000000   D
NJDSKJ3410  00NJDSKJ341000111409477076NJT2017052679838432000163201714120161412017141201729000 14822   00VAN     99945   201703310000000000000000021SMITH               SMITH ROCIO                        783 ABIGAIL MOUNTAIN                                                  GERMANTOWN                    NJ07001    FER0012                       NJ1234                        00000000          00000000          000000000000   D
NJDSKJ3411  00NJDSKJ341100111409477077NJT2017052679838432000163201714120161412017141201729000 14822   00VAN     99945   201703310000000000000000021JERDE               JERDE NORRIS                       35105 LAWSON TERRACE                                                  GERMANTOWN                    NJ07001    FER0012                       NJ1234                        00000000          00000000          000000000000   D
NJDSKJ3412  00NJDSKJ341200111409477082NJT2017052679838432000163201714120161412017141201729000 14822   00VAN     99945   201703310000000000000000021BEATTY              BEATTY LOWELL                      57011 MYRON PATH                                                      GERMANTOWN                    NJ07001    FER0012                       NJ1234                        00000000          00000000          000000000000   D
NJDSKJ3413  00NJDSKJ341300111409477085NJT2017052679838432000163201714120161412017141201729000 14822   00VAN     99945   201703310000000000000000021CARROLL             CARROLL JOSUE                      2852 JOHAN JUNCTION                                                   GERMANTOWN                    NJ07001    FER0012                       NJ1234                        00000000          00000000          000000000000   D
NJDSKJ3414  00NJDSKJ341400111409477090NJT2017052679838432000163201714120161412017141201729000 14822   00VAN     99945   201703310000000000000000021FRANECKI            FRANECKI ADONIS                    4951 TOY BURG                                                         GERMANTOWN                    NJ07001    FER0012                       NJ1234                        00000000          00000000          000000000000   D
NJDSKJ3415  00NJDSKJ341500111409477096NJT2017052679838432000163201714120161412017141201729000 14822   00VAN     99945   201703310000000000000000021LOCKMAN             LOCKMAN FRED                       23564 MCLAUGHLIN COURTS                                               GERMANTOWN                    NJ07001    FER0012                       NJ1234                        00000000          00000000          000000000000   D
NJDSKJ3416  00NJDSKJ341600111409477100NJT2017052679838432000163201714120161412017141201729000 14822   00VAN     99945   201703310000000000000000021UPTON               UPTON SOLEDAD                      49078 CORDIE LOCK                                                     GERMANTOWN                    NJ07001    FER0012                       NJ1234                        00000000          00000000          000000000000   D
NJDSKJ3417  00NJDSKJ341700111409477104NJT2017052679838432000163201714120161412017141201729000 14822   00VAN     99945   201703310000000000000000021BAUCH               BAUCH KAROLANN                     8458 BRIELLE FERRY                                                    GERMANTOWN                    NJ07001    FER0012                       NJ1234                        00000000          00000000          000000000000   D
NJDSKJ3418  00NJDSKJ341800111409477107NJT2017052679838432000163201714120161412017141201729000 14822   00VAN     99945   201703310000000000000000021GREEN               GREEN ALISHA                       664 RUSSEL HIGHWAY                                                    GERMANTOWN                    NJ07001    FER0012                       NJ1234                        00000000          00000000          000000000000   D
NJDSKJ3419  00NJDSKJ341900111409477109NJT2017052679838432000163201714120161412017141201729000 14822   00VAN     99945   201703310000000000000000021ROOB                ROOB REX                           866 HICKLE FORGE                                                      GERMANTOWN                    NJ07001    FER0012                       NJ1234                        00000000          00000000          000000000000   D
NJDSKJ3420  00NJDSKJ342000111409477115NJT2017052679838432000163201714120161412017141201729000 14822   00VAN     99945   201703310000000000000000021EMMERICH            EMMERICH HEATH                     068 HAAG LIGHT                                                        GERMANTOWN                    NJ07001    FER0012                       NJ1234                        00000000          00000000          000000000000   D
NJDSKJ3421  00NJDSKJ342100111409477119NJT2017052679838432000163201714120161412017141201729000 14822   00VAN     99945   201703310000000000000000021LINDGREN            LINDGREN DOMENICO                  411 JAKUBOWSKI FALL                                                   GERMANTOWN                    NJ07001    FER0012                       NJ1234                        00000000          00000000          000000000000   D
NJDSKJ3422  00NJDSKJ342200111409477121NJT2017052679838432000163201714120161412017141201729000 14822   00VAN     99945   201703310000000000000000021MORAR               MORAR GAETANO                      35398 MINA LOAF                                                       GERMANTOWN                    NJ07001    FER0012                       NJ1234                        00000000          00000000          000000000000   D
NJDSKJ3423  00NJDSKJ342300111409476926NJT2017052679838432000163201714120161412017141201729000 14822   00VAN     99945   201703310000000000000000021RODRIGUEZ           RODRIGUEZ CHEYANNE                 3814 TESS COVE                                                        GERMANTOWN                    NJ07001    FER0012                       NJ1234                        00000000          00000000          000000000000   D
NJDSKJ3424  00NJDSKJ342400111409476930NJT2017052679838432000163201714120161412017141201729000 14822   00VAN     99945   201703310000000000000000021HYATT               HYATT BUFORD                       526 NAYELI WALKS                                                      GERMANTOWN                    NJ07001    FER0012                       NJ1234                        00000000          00000000          000000000000   D
NJDSKJ3425  00NJDSKJ342500111409476935NJT2017052679838432000163201714120161412017141201729000 14822   00VAN     99945   201703310000000000000000021ARMSTRONG           ARMSTRONG KAMREN                   6533 FAHEY STREETS                                                    GERMANTOWN                    NJ07001    FER0012                       NJ1234                        00000000          00000000          000000000000   D
NJDSKJ3426  00NJDSKJ342600111409476939NJT2017052679838432000163201714120161412017141201729000 14822   00VAN     99945   201703310000000000000000021DIETRICH            DIETRICH MIGUEL                    331 ARLIE PORT                                                        GERMANTOWN                    NJ07001    FER0012                       NJ1234                        00000000          00000000          000000000000   D
NJDSKJ3427  00NJDSKJ342700111409476944NJT2017052679838432000163201714120161412017141201729000 14822   00VAN     99945   201703310000000000000000021SAUER               SAUER ANDERSON                     8368 GAYLORD COURT                                                    GERMANTOWN                    NJ07001    FER0012                       NJ1234                        00000000          00000000          000000000000   D
NJDSKJ3428  00NJDSKJ342800111409476947NJT2017052679838432000163201714120161412017141201729000 14822   00VAN     99945   201703310000000000000000021JOHNSTON            JOHNSTON STEPHANIE                 9191 ZOE WAYS                                                         GERMANTOWN                    NJ07001    FER0012                       NJ1234                        00000000          00000000          000000000000   D
NJDSKJ3429  00NJDSKJ342900111409476949NJT2017052679838432000163201714120161412017141201729000 14822   00VAN     99945   201703310000000000000000021GERHOLD             GERHOLD GLADYS                     01732 SPENCER WALKS                                                   GERMANTOWN                    NJ07001    FER0012                       NJ1234                        00000000          00000000          000000000000   D
NJDSKJ3430  00NJDSKJ343000111409476953NJT2017052679838432000163201714120161412017141201729000 14822   00VAN     99945   201703310000000000000000021THOMPSON            THOMPSON BRANDO                    6919 GRETCHEN SPRINGS                                                 GERMANTOWN                    NJ07001    FER0012                       NJ1234                        00000000          00000000          000000000000   D
NJDSKJ3431  00NJDSKJ343100111409476960NJT2017052679838432000163201714120161412017141201729000 14822   00VAN     99945   201703310000000000000000021HERZOG              HERZOG SHANIA                      385 DORA LANDING                                                      GERMANTOWN                    NJ07001    FER0012                       NJ1234                        00000000          00000000          000000000000   D
NJDSKJ3432  00NJDSKJ343200111409476964NJT2017052679838432000163201714120161412017141201729000 14822   00VAN     99945   201703310000000000000000021SCHUMM              SCHUMM DAPHNEE                     5455 ELDORA MEADOWS                                                   GERMANTOWN                    NJ07001    FER0012                       NJ1234                        00000000          00000000          000000000000   D
NJDSKJ3433  00NJDSKJ343300111409476966NJT2017052679838432000163201714120161412017141201729000 14822   00VAN     99945   201703310000000000000000021KUB                 KUB ALISA                          112 FERRY LOOP                                                        GERMANTOWN                    NJ07001    FER0012                       NJ1234                        00000000          00000000          000000000000   D
NJDSKJ3434  00NJDSKJ343400111409476970NJT2017052679838432000163201714120161412017141201729000 14822   00VAN     99945   201703310000000000000000021FLATLEY             FLATLEY ALEXANDRA                  6254 ANSEL SPURS                                                      GERMANTOWN                    NJ07001    FER0012                       NJ1234                        00000000          00000000          000000000000   D
NJDSKJ3435  00NJDSKJ343500111409476975NJT2017052679838432000163201714120161412017141201729000 14822   00VAN     99945   201703310000000000000000021HIRTHE              HIRTHE ABIGAIL                     728 GENEVIEVE TRAFFICWAY                                              GERMANTOWN                    NJ07001    FER0012                       NJ1234                        00000000          00000000          000000000000   D
NJDSKJ3436  00NJDSKJ343600111409476978NJT2017052679838432000163201714120161412017141201729000 14822   00VAN     99945   201703310000000000000000021BINS                BINS KIRK                          00324 JEAN STREET                                                     GERMANTOWN                    NJ07001    FER0012                       NJ1234                        00000000          00000000          000000000000   D
NJDSKJ3437  00NJDSKJ343700111409476981NJT2017052679838432000163201714120161412017141201729000 14822   00VAN     99945   201703310000000000000000021SANFORD             SANFORD GUSTAVE                    8676 PRICE STREET                                                     GERMANTOWN                    NJ07001    FER0012                       NJ1234                        00000000          00000000          000000000000   D
NJDSKJ3438  00NJDSKJ343800111409476987NJT2017052679838432000163201714120161412017141201729000 14822   00VAN     99945   201703310000000000000000021BATZ                BATZ LENORE                        55983 DEJUAN GARDEN                                                   GERMANTOWN                    NJ07001    FER0012                       NJ1234                        00000000          00000000          000000000000   D
NJDSKJ3439  00NJDSKJ343900111409476990NJT2017052679838432000163201714120161412017141201729000 14822   00VAN     99945   201703310000000000000000021DECKOW              DECKOW JOELLE                      6068 ROWE PRAIRIE                                                     GERMANTOWN                    NJ07001    FER0012                       NJ1234                        00000000          00000000          000000000000   D
NJDSKJ3440  00NJDSKJ344000111409476996NJT2017052679838432000163201714120161412017141201729000 14822   00VAN     99945   201703310000000000000000021FRIESEN             FRIESEN FLORENCE                   12177 BURLEY COURTS                                                   GERMANTOWN                    NJ07001    FER0012                       NJ1234                        00000000          00000000          000000000000   D
NJDSKJ3441  00NJDSKJ344100111409476997NJT2017052679838432000163201714120161412017141201729000 14822   00VAN     99945   201703310000000000000000021TERRY               TERRY IAN                          30933 INES CROSSING                                                   GERMANTOWN                    NJ07001    FER0012                       NJ1234                        00000000          00000000          000000000000   D
NJDSKJ3442  00NJDSKJ344200111409477003NJT2017052679838432000163201714120161412017141201729000 14822   00VAN     99945   201703310000000000000000021WALKER              WALKER THALIA                      117 DOMENICK POINT                                                    GERMANTOWN                    NJ07001    FER0012                       NJ1234                        00000000          00000000          000000000000   D
NJDSKJ3443  00NJDSKJ344300111409477008NJT2017052679838432000163201714120161412017141201729000 14822   00VAN     99945   201703310000000000000000021FEIL                FEIL RYAN                          56391 MANUELA FORKS                                                   GERMANTOWN                    NJ07001    FER0012                       NJ1234                        00000000          00000000          000000000000   D
NJDSKJ3444  00NJDSKJ344400111409477009NJT2017052679838432000163201714120161412017141201729000 14822   00VAN     99945   201703310000000000000000021SCHAEFER            SCHAEFER GERHARD                   365 KIRLIN PASS                                                       GERMANTOWN                    NJ07001    FER0012                       NJ1234                        00000000          00000000          000000000000   D
NJDSKJ3445  00NJDSKJ344500111409477016NJT2017052679838432000163201714120161412017141201729000 14822   00VAN     99945   201703310000000000000000021BOEHM               BOEHM LEOPOLDO                     6804 DOYLE AVENUE                                                     GERMANTOWN                    NJ07001    FER0012                       NJ1234                        00000000          00000000          000000000000   D
NJDSKJ3446  00NJDSKJ344600111409477018NJT2017052679838432000163201714120161412017141201729000 14822   00VAN     99945   201703310000000000000000021CRUICKSHANK         CRUICKSHANK WOODROW                580 CLINT PINES                                                       GERMANTOWN                    NJ07001    FER0012                       NJ1234                        00000000          00000000          000000000000   D
NJDSKJ3447  00NJDSKJ344700111409477024NJT2017052679838432000163201714120161412017141201729000 14822   00VAN     99945   201703310000000000000000021BRADTKE             BRADTKE DULCE                      9240 ELLIOTT LAND                                                     GERMANTOWN                    NJ07001    FER0012                       NJ1234                        00000000          00000000          000000000000   D
NJDSKJ3448  00NJDSKJ344800111409477026NJT2017052679838432000163201714120161412017141201729000 14822   00VAN     99945   201703310000000000000000021STARK               STARK TOD                          737 GORDON UNIONS                                                     GERMANTOWN                    NJ07001    FER0012                       NJ1234                        00000000          00000000          000000000000   D
NJDSKJ3449  00NJDSKJ344900111409477032NJT2017052679838432000163201714120161412017141201729000 14822   00VAN     99945   201703310000000000000000021SCHAEFER            SCHAEFER RAEGAN                    308 KAILEE ROUTE                                                      GERMANTOWN                    NJ07001    FER0012                       NJ1234                        00000000          00000000          000000000000   D
NJDSKJ3450  00NJDSKJ345000111409477035NJT2017052679838432000163201714120161412017141201729000 14822   00VAN     99945   201703310000000000000000021DIBBERT             DIBBERT MARGARET                   7163 TIERRA BROOK                                                     GERMANTOWN                    NJ07001    FER0012                       NJ1234                        00000000          00000000          000000000000   D
