NJACACP3    00NJACACP3  00113079108732NJT2017052679838432000163201714120161412017141201729000 14822   00VAN     99945   201703310000000000000000021YOST                YOST EDWARDO                       60154 VONRUEDEN VISTA                                                 NEWARK                        NJ07114    FER0012                       NJ1234                        00000000          00000000          000000000000   D
NJACACP1    00NJACACP1  00113079108737NJT2017052679838432000163201714120161412017141201729000 14822   00VAN     99945   201703310000000000000000021ONDRICKA            ONDRICKA KIM                       4549 HIPOLITO PASS                                                    NEWARK                        NJ07114    FER0012                       NJ1234                        00000000          00000000          000000000000   D
NJACACP2    00NJACACP2  00113079108738NJT2017052679838432000163201714120161412017141201729000 14822   00VAN     99945   201703310000000000000000021SCHAEFER            SCHAEFER ABIGAIL                   858 KAY COURTS                                                        NEWARK                        NJ07114    FER0012                       NJ1234                        00000000          00000000          000000000000   D
