NJK87HLS    00NJK87HLS  00111409583612NJT2017052679838432000163201714120161412017141201729000 14822   00VAN     99945   201703310000000000000000021STAMM               STAMM GRADY                        59419 MURAZIK THROUGHWAY                                              GERMANTOWN                    NJ07001    FER0012                       NJ1234                        00000000          00000000          000000000000   D
NJC88JWY    00NJC88JWY  00111409583614NJT2017052679838432000163201714120161412017141201729000 14822   00VAN     99945   201703310000000000000000021KING                KING LEXI                          78837 MOLLY GROVES                                                    GERMANTOWN                    NJ07001    FER0012                       NJ1234                        00000000          00000000          000000000000   D
NJR64HCJ    00NJR64HCJ  00111409583615NJT2017052679838432000163201714120161412017141201729000 14822   00VAN     99945   201703310000000000000000021DICKENS             DICKENS ALENE                      29960 EMERALD ROADS                                                   GERMANTOWN                    NJ07001    FER0012                       NJ1234                        00000000          00000000          000000000000   D
PAJXK7345   00PAJXK7345 00111409583617NJT2017052679838432000163201714120161412017141201729000 14822   00VAN     99945   201703310000000000000000021KING                KING CICERO                        3902 DACH LOCKS                                                       GERMANTOWN                    NJ07001    FER0012                       NJ1234                        00000000          00000000          000000000000   D
PAZKM8624   00PAZKM8624 00111409583618NJT2017052679838432000163201714120161412017141201729000 14822   00VAN     99945   201703310000000000000000021CRIST               CRIST LEDA                         895 BOGAN PARKWAYS                                                    GERMANTOWN                    NJ07001    FER0012                       NJ1234                        00000000          00000000          000000000000   D
NJKXM64N    00NJKXM64N  00111409583619NJT2017052679838432000163201714120161412017141201729000 14822   00VAN     99945   201703310000000000000000021AUER                AUER ROCKY                         90713 HOEGER PLAZA                                                    GERMANTOWN                    NJ07001    FER0012                       NJ1234                        00000000          00000000          000000000000   D
PAKMP3518   00PAKMP3518 00111409583620NJT2017052679838432000163201714120161412017141201729000 14822   00VAN     99945   201703310000000000000000021BINS                BINS SOPHIE                        0646 HARMON WAYS                                                      GERMANTOWN                    NJ07001    FER0012                       NJ1234                        00000000          00000000          000000000000   D
NJL13HWD    00NJL13HWD  00111409583621NJT2017052679838432000163201714120161412017141201729000 14822   00VAN     99945   201703310000000000000000021BERGNAUM            BERGNAUM YAZMIN                    462 LARSON STRAVENUE                                                  GERMANTOWN                    NJ07001    FER0012                       NJ1234                        00000000          00000000          000000000000   D
NJM22KEV    00NJM22KEV  00111409583622NJT2017052679838432000163201714120161412017141201729000 14822   00VAN     99945   201703310000000000000000021BORER               BORER RANSOM                       4752 SCHINNER KEYS                                                    GERMANTOWN                    NJ07001    FER0012                       NJ1234                        00000000          00000000          000000000000   D
NJY200CG    00NJY200CG  00111409583624NJT2017052679838432000163201714120161412017141201729000 14822   00VAN     99945   201703310000000000000000021HALVORSON           HALVORSON ARCHIBALD                85332 QUITZON STREET                                                  GERMANTOWN                    NJ07001    FER0012                       NJ1234                        00000000          00000000          000000000000   D
NJXERR71    00NJXERR71  00111409583625NJT2017052679838432000163201714120161412017141201729000 14822   00VAN     99945   201703310000000000000000021GOYETTE             GOYETTE LITZY                      063 FAY STATION                                                       GERMANTOWN                    NJ07001    FER0012                       NJ1234                        00000000          00000000          000000000000   D
NJB96HSV    00NJB96HSV  00111409583627NJT2017052679838432000163201714120161412017141201729000 14822   00VAN     99945   201703310000000000000000021ZBONCAK             ZBONCAK MARIE                      274 LANGOSH LIGHTS                                                    GERMANTOWN                    NJ07001    FER0012                       NJ1234                        00000000          00000000          000000000000   D
NJW76KWN    00NJW76KWN  00111409583630NJT2017052679838432000163201714120161412017141201729000 14822   00VAN     99945   201703310000000000000000021SCHROEDER           SCHROEDER LEDA                     15064 RAINA CLIFF                                                     GERMANTOWN                    NJ07001    FER0012                       NJ1234                        00000000          00000000          000000000000   D
NJN55BMJ    00NJN55BMJ  00111409583631NJT2017052679838432000163201714120161412017141201729000 14822   00VAN     99945   201703310000000000000000021YUNDT               YUNDT DARBY                        752 HARMONY DALE                                                      GERMANTOWN                    NJ07001    FER0012                       NJ1234                        00000000          00000000          000000000000   D
NJE95GFY    00NJE95GFY  00111409583632NJT2017052679838432000163201714120161412017141201729000 14822   00VAN     99945   201703310000000000000000021SAWAYN              SAWAYN WILTON                      439 MICHELLE SQUARE                                                   GERMANTOWN                    NJ07001    FER0012                       NJ1234                        00000000          00000000          000000000000   D
NJC25KYJ    00NJC25KYJ  00111409583634NJT2017052679838432000163201714120161412017141201729000 14822   00VAN     99945   201703310000000000000000021WOLFF               WOLFF SHAKIRA                      9434 BAYER COVE                                                       GERMANTOWN                    NJ07001    FER0012                       NJ1234                        00000000          00000000          000000000000   D
NJR71JHW    00NJR71JHW  00111409583635NJT2017052679838432000163201714120161412017141201729000 14822   00VAN     99945   201703310000000000000000021MURRAY              MURRAY FERNE                       72512 GAETANO ESTATES                                                 GERMANTOWN                    NJ07001    FER0012                       NJ1234                        00000000          00000000          000000000000   D
PAZJB7788   00PAZJB7788 00111409583636NJT2017052679838432000163201714120161412017141201729000 14822   00VAN     99945   201703310000000000000000021HEIDENREICH         HEIDENREICH LARUE                  30094 HIRTHE TRAFFICWAY                                               GERMANTOWN                    NJ07001    FER0012                       NJ1234                        00000000          00000000          000000000000   D
NJL96EBM    00NJL96EBM  00111409583637NJT2017052679838432000163201714120161412017141201729000 14822   00VAN     99945   201703310000000000000000021ARMSTRONG           ARMSTRONG PETER                    6259 DESMOND CURVE                                                    GERMANTOWN                    NJ07001    FER0012                       NJ1234                        00000000          00000000          000000000000   D
NJWUF92C    00NJWUF92C  00111409583638NJT2017052679838432000163201714120161412017141201729000 14822   00VAN     99945   201703310000000000000000021COLLIER             COLLIER TIA                        86099 FEIL LANE                                                       GERMANTOWN                    NJ07001    FER0012                       NJ1234                        00000000          00000000          000000000000   D
NJC75KLM    00NJC75KLM  00111409583640NJT2017052679838432000163201714120161412017141201729000 14822   00VAN     99945   201703310000000000000000021MRAZ                MRAZ KASANDRA                      27795 ANGELICA CAPE                                                   GERMANTOWN                    NJ07001    FER0012                       NJ1234                        00000000          00000000          000000000000   D
NJY98KPW    00NJY98KPW  00111409583641NJT2017052679838432000163201714120161412017141201729000 14822   00VAN     99945   201703310000000000000000021BOYLE               BOYLE FABIOLA                      783 CONSIDINE MEWS                                                    GERMANTOWN                    NJ07001    FER0012                       NJ1234                        00000000          00000000          000000000000   D
NJP41JUJ    00NJP41JUJ  00111409583643NJT2017052679838432000163201714120161412017141201729000 14822   00VAN     99945   201703310000000000000000021JASKOLSKI           JASKOLSKI TOD                      29850 DAMIAN RAPID                                                    GERMANTOWN                    NJ07001    FER0012                       NJ1234                        00000000          00000000          000000000000   D
NJX9594S    00NJX9594S  00111409583645NJT2017052679838432000163201714120161412017141201729000 14822   00VAN     99945   201703310000000000000000021WEST                WEST HAILEY                        18305 DICKENS RIDGES                                                  GERMANTOWN                    NJ07001    FER0012                       NJ1234                        00000000          00000000          000000000000   D
NJH98KYX    00NJH98KYX  00111409583646NJT2017052679838432000163201714120161412017141201729000 14822   00VAN     99945   201703310000000000000000021LEANNON             LEANNON EMERSON                    27699 MARGARETTA CAUSEWAY                                             GERMANTOWN                    NJ07001    FER0012                       NJ1234                        00000000          00000000          000000000000   D
NJV28KPW    00NJV28KPW  00111409583648NJT2017052679838432000163201714120161412017141201729000 14822   00VAN     99945   201703310000000000000000021DURGAN              DURGAN ALESSANDRA                  640 AUGUST MISSION                                                    GERMANTOWN                    NJ07001    FER0012                       NJ1234                        00000000          00000000          000000000000   D
VA7577UT    00VA7577UT  00111409583650NJT2017052679838432000163201714120161412017141201729000 14822   00VAN     99945   201703310000000000000000021HEANEY              HEANEY GLENNA                      06918 KIRLIN RAMP                                                     GERMANTOWN                    NJ07001    FER0012                       NJ1234                        00000000          00000000          000000000000   D
NJH43KMS    00NJH43KMS  00111409583652NJT2017052679838432000163201714120161412017141201729000 14822   00VAN     99945   201703310000000000000000021JAST                JAST DONAVON                       22227 FEENEY THROUGHWAY                                               GERMANTOWN                    NJ07001    FER0012                       NJ1234                        00000000          00000000          000000000000   D
NJR64KKB    00NJR64KKB  00111409583653NJT2017052679838432000163201714120161412017141201729000 14822   00VAN     99945   201703310000000000000000021VOLKMAN             VOLKMAN BRAYAN                     4334 GILLIAN CORNER                                                   GERMANTOWN                    NJ07001    FER0012                       NJ1234                        00000000          00000000          000000000000   D
NJT15EBZ    00NJT15EBZ  00111409583654NJT2017052679838432000163201714120161412017141201729000 14822   00VAN     99945   201703310000000000000000021MURRAY              MURRAY MOSE                        5619 BORER TUNNEL                                                     GERMANTOWN                    NJ07001    FER0012                       NJ1234                        00000000          00000000          000000000000   D
NJV87JUJ    00NJV87JUJ  00111409583655NJT2017052679838432000163201714120161412017141201729000 14822   00VAN     99945   201703310000000000000000021SENGER              SENGER VANCE                       90479 THORA EXTENSION                                                 GERMANTOWN                    NJ07001    FER0012                       NJ1234                        00000000          00000000          000000000000   D
NJM84GVW    00NJM84GVW  00111409583657NJT2017052679838432000163201714120161412017141201729000 14822   00VAN     99945   201703310000000000000000021LOWE                LOWE BARTHOLOME                    510 WATERS COVES                                                      GERMANTOWN                    NJ07001    FER0012                       NJ1234                        00000000          00000000          000000000000   D
PAKYJ7440   00PAKYJ7440 00111409583658NJT2017052679838432000163201714120161412017141201729000 14822   00VAN     99945   201703310000000000000000021STOLTENBERG         STOLTENBERG CHANCE                 6809 DURGAN ISLAND                                                    GERMANTOWN                    NJ07001    FER0012                       NJ1234                        00000000          00000000          000000000000   D
NJZ92JVU    00NJZ92JVU  00111409583659NJT2017052679838432000163201714120161412017141201729000 14822   00VAN     99945   201703310000000000000000021SIPES               SIPES EVELINE                      6096 WYMAN KEY                                                        GERMANTOWN                    NJ07001    FER0012                       NJ1234                        00000000          00000000          000000000000   D
NJXEGG34    00NJXEGG34  00111409583660NJT2017052679838432000163201714120161412017141201729000 14822   00VAN     99945   201703310000000000000000021GISLASON            GISLASON ETHAN                     55076 FERRY FIELD                                                     GERMANTOWN                    NJ07001    FER0012                       NJ1234                        00000000          00000000          000000000000   D
FL8368YA    00FL8368YA  00111409583662NJT2017052679838432000163201714120161412017141201729000 14822   00VAN     99945   201703310000000000000000021TROMP               TROMP KRISTIN                      540 GERHARD CIRCLES                                                   GERMANTOWN                    NJ07001    FER0012                       NJ1234                        00000000          00000000          000000000000   D
NJWVH24B    00NJWVH24B  00111409583663NJT2017052679838432000163201714120161412017141201729000 14822   00VAN     99945   201703310000000000000000021BAYER               BAYER LONNY                        7175 LYSANNE NECK                                                     GERMANTOWN                    NJ07001    FER0012                       NJ1234                        00000000          00000000          000000000000   D
NJT39KGV    00NJT39KGV  00111409583665NJT2017052679838432000163201714120161412017141201729000 14822   00VAN     99945   201703310000000000000000021OLSON               OLSON MEGGIE                       1525 BOTSFORD PLACE                                                   GERMANTOWN                    NJ07001    FER0012                       NJ1234                        00000000          00000000          000000000000   D
NJT201778   00NJT201778 00111409583666NJT2017052679838432000163201714120161412017141201729000 14822   00VAN     99945   201703310000000000000000021LUBOWITZ            LUBOWITZ JAKAYLA                   786 CREOLA MOTORWAY                                                   GERMANTOWN                    NJ07001    FER0012                       NJ1234                        00000000          00000000          000000000000   D
NJE65JWM    00NJE65JWM  00111409583667NJT2017052679838432000163201714120161412017141201729000 14822   00VAN     99945   201703310000000000000000021GERLACH             GERLACH STANFORD                   1333 KEYSHAWN TRACK                                                   GERMANTOWN                    NJ07001    FER0012                       NJ1234                        00000000          00000000          000000000000   D
NJV79CDZ    00NJV79CDZ  00111409583668NJT2017052679838432000163201714120161412017141201729000 14822   00VAN     99945   201703310000000000000000021SCHULIST            SCHULIST NICK                      94197 SWIFT PORT                                                      GERMANTOWN                    NJ07001    FER0012                       NJ1234                        00000000          00000000          000000000000   D
NJT228795   00NJT228795 00111409583669NJT2017052679838432000163201714120161412017141201729000 14822   00VAN     99945   201703310000000000000000021ERDMAN              ERDMAN NATHANAEL                   4105 SCHOWALTER WELLS                                                 GERMANTOWN                    NJ07001    FER0012                       NJ1234                        00000000          00000000          000000000000   D
NJUZW57D    00NJUZW57D  00111409583670NJT2017052679838432000163201714120161412017141201729000 14822   00VAN     99945   201703310000000000000000021NADER               NADER JONATAN                      68174 MURRAY MOUNT                                                    GERMANTOWN                    NJ07001    FER0012                       NJ1234                        00000000          00000000          000000000000   D
FLZ710AL    00FLZ710AL  00111409583672NJT2017052679838432000163201714120161412017141201729000 14822   00VAN     99945   201703310000000000000000021HAMILL              HAMILL AIMEE                       710 TILLMAN MOUNTAIN                                                  GERMANTOWN                    NJ07001    FER0012                       NJ1234                        00000000          00000000          000000000000   D
NJP25GFR    00NJP25GFR  00111409583673NJT2017052679838432000163201714120161412017141201729000 14822   00VAN     99945   201703310000000000000000021HICKLE              HICKLE HEATHER                     374 ROSLYN ROW                                                        GERMANTOWN                    NJ07001    FER0012                       NJ1234                        00000000          00000000          000000000000   D
FLIVVE58    00FLIVVE58  00111409583674NJT2017052679838432000163201714120161412017141201729000 14822   00VAN     99945   201703310000000000000000021OKUNEVA             OKUNEVA IDELL                      877 SATTERFIELD RADIAL                                                GERMANTOWN                    NJ07001    FER0012                       NJ1234                        00000000          00000000          000000000000   D
NJM43KDW    00NJM43KDW  00111409583675NJT2017052679838432000163201714120161412017141201729000 14822   00VAN     99945   201703310000000000000000021DANIEL              DANIEL XAVIER                      635 ALEXANDER BROOKS                                                  GERMANTOWN                    NJ07001    FER0012                       NJ1234                        00000000          00000000          000000000000   D
NJNEA32E    00NJNEA32E  00111409583676NJT2017052679838432000163201714120161412017141201729000 14822   00VAN     99945   201703310000000000000000021MURRAY              MURRAY OSVALDO                     628 DIBBERT RAMP                                                      GERMANTOWN                    NJ07001    FER0012                       NJ1234                        00000000          00000000          000000000000   D
NJWWW54K    00NJWWW54K  00111409583677NJT2017052679838432000163201714120161412017141201729000 14822   00VAN     99945   201703310000000000000000021NITZSCHE            NITZSCHE GAY                       2564 ROOB VILLAGE                                                     GERMANTOWN                    NJ07001    FER0012                       NJ1234                        00000000          00000000          000000000000   D
NJT227261   00NJT227261 00111409583678NJT2017052679838432000163201714120161412017141201729000 14822   00VAN     99945   201703310000000000000000021STIEDEMANN          STIEDEMANN CATHRYN                 45154 PHILIP RIDGES                                                   GERMANTOWN                    NJ07001    FER0012                       NJ1234                        00000000          00000000          000000000000   D
NJR15CCU    00NJR15CCU  00111409583679NJT2017052679838432000163201714120161412017141201729000 14822   00VAN     99945   201703310000000000000000021WAELCHI             WAELCHI ADRIAN                     236 BESSIE TRAFFICWAY                                                 GERMANTOWN                    NJ07001    FER0012                       NJ1234                        00000000          00000000          000000000000   D
NJT67KNV    00NJT67KNV  00111409583680NJT2017052679838432000163201714120161412017141201729000 14822   00VAN     99945   201703310000000000000000021WITTING             WITTING AGUSTIN                    82617 MARIBEL CROSSROAD                                               GERMANTOWN                    NJ07001    FER0012                       NJ1234                        00000000          00000000          000000000000   D
PAGVE4473   00PAGVE4473 00111409583681NJT2017052679838432000163201714120161412017141201729000 14822   00VAN     99945   201703310000000000000000021SCHULIST            SCHULIST CLETUS                    74047 KOVACEK ISLANDS                                                 GERMANTOWN                    NJ07001    FER0012                       NJ1234                        00000000          00000000          000000000000   D
NJRAH15N    00NJRAH15N  00111409583682NJT2017052679838432000163201714120161412017141201729000 14822   00VAN     99945   201703310000000000000000021MCLAUGHLIN          MCLAUGHLIN KACEY                   77854 KYLEE VILLAGE                                                   GERMANTOWN                    NJ07001    FER0012                       NJ1234                        00000000          00000000          000000000000   D
NJC17KPU    00NJC17KPU  00111409583683NJT2017052679838432000163201714120161412017141201729000 14822   00VAN     99945   201703310000000000000000021BERGSTROM           BERGSTROM AISHA                    322 DAMON GATEWAY                                                     GERMANTOWN                    NJ07001    FER0012                       NJ1234                        00000000          00000000          000000000000   D
NJP13HBB    00NJP13HBB  00111409583684NJT2017052679838432000163201714120161412017141201729000 14822   00VAN     99945   201703310000000000000000021CONN                CONN MARIELLE                      665 ALEXIS LAKE                                                       GERMANTOWN                    NJ07001    FER0012                       NJ1234                        00000000          00000000          000000000000   D
NJZ57JRD    00NJZ57JRD  00111409583685NJT2017052679838432000163201714120161412017141201729000 14822   00VAN     99945   201703310000000000000000021JACOBS              JACOBS ESMERALDA                   7531 REINGER PLAINS                                                   GERMANTOWN                    NJ07001    FER0012                       NJ1234                        00000000          00000000          000000000000   D
NJSBV53T    00NJSBV53T  00111409583686NJT2017052679838432000163201714120161412017141201729000 14822   00VAN     99945   201703310000000000000000021KOSS                KOSS LEONARDO                      1223 GISLASON CAUSEWAY                                                GERMANTOWN                    NJ07001    FER0012                       NJ1234                        00000000          00000000          000000000000   D
NJC90JGU    00NJC90JGU  00111409583687NJT2017052679838432000163201714120161412017141201729000 14822   00VAN     99945   201703310000000000000000021HERZOG              HERZOG TIFFANY                     50773 WOLF MOUNT                                                      GERMANTOWN                    NJ07001    FER0012                       NJ1234                        00000000          00000000          000000000000   D
NJS35KGF    00NJS35KGF  00111409583688NJT2017052679838432000163201714120161412017141201729000 14822   00VAN     99945   201703310000000000000000021COLE                COLE MATHILDE                      44100 WINONA PARKS                                                    GERMANTOWN                    NJ07001    FER0012                       NJ1234                        00000000          00000000          000000000000   D
NJK94FLE    00NJK94FLE  00111409583690NJT2017052679838432000163201714120161412017141201729000 14822   00VAN     99945   201703310000000000000000021BECKER              BECKER AUDIE                       5439 DOUGLAS CANYON                                                   GERMANTOWN                    NJ07001    FER0012                       NJ1234                        00000000          00000000          000000000000   D
NJL90HYU    00NJL90HYU  00111409583691NJT2017052679838432000163201714120161412017141201729000 14822   00VAN     99945   201703310000000000000000021KOHLER              KOHLER ERNESTINA                   97865 RAU STREET                                                      GERMANTOWN                    NJ07001    FER0012                       NJ1234                        00000000          00000000          000000000000   D
PAHVC4218   00PAHVC4218 00111409583692NJT2017052679838432000163201714120161412017141201729000 14822   00VAN     99945   201703310000000000000000021DONNELLY            DONNELLY EVERARDO                  2070 DOMINIC FORKS                                                    GERMANTOWN                    NJ07001    FER0012                       NJ1234                        00000000          00000000          000000000000   D
NJJ10HVH    00NJJ10HVH  00111409583694NJT2017052679838432000163201714120161412017141201729000 14822   00VAN     99945   201703310000000000000000021KEMMER              KEMMER VERONA                      68793 FLAVIE KEYS                                                     GERMANTOWN                    NJ07001    FER0012                       NJ1234                        00000000          00000000          000000000000   D
NJW47EWE    00NJW47EWE  00111409583695NJT2017052679838432000163201714120161412017141201729000 14822   00VAN     99945   201703310000000000000000021GRAHAM              GRAHAM WILBERT                     65457 MAVIS CAPE                                                      GERMANTOWN                    NJ07001    FER0012                       NJ1234                        00000000          00000000          000000000000   D
NJNPOINT    00NJNPOINT  00111409583426NJT2017052679838432000163201714120161412017141201729000 14822   00VAN     99945   201703310000000000000000021STOKES              STOKES RODERICK                    8101 STROMAN CAPE                                                     GERMANTOWN                    NJ07001    FER0012                       NJ1234                        00000000          00000000          000000000000   D
NJP76GLJ    00NJP76GLJ  00111409583427NJT2017052679838432000163201714120161412017141201729000 14822   00VAN     99945   201703310000000000000000021RAU                 RAU GILES                          91821 STROSIN STRAVENUE                                               GERMANTOWN                    NJ07001    FER0012                       NJ1234                        00000000          00000000          000000000000   D
NJU52DZM    00NJU52DZM  00111409583429NJT2017052679838432000163201714120161412017141201729000 14822   00VAN     99945   201703310000000000000000021KASSULKE            KASSULKE ERNIE                     6627 OTHO KEY                                                         GERMANTOWN                    NJ07001    FER0012                       NJ1234                        00000000          00000000          000000000000   D
NJOT330B    00NJOT330B  00111409583430NJT2017052679838432000163201714120161412017141201729000 14822   00VAN     99945   201703310000000000000000021KOELPIN             KOELPIN MARGARET                   3501 HAGENES SPURS                                                    GERMANTOWN                    NJ07001    FER0012                       NJ1234                        00000000          00000000          000000000000   D
NJJ31KWN    00NJJ31KWN  00111409583431NJT2017052679838432000163201714120161412017141201729000 14822   00VAN     99945   201703310000000000000000021REICHERT            REICHERT DAYTON                    3255 MAXIMILLIAN KNOLL                                                GERMANTOWN                    NJ07001    FER0012                       NJ1234                        00000000          00000000          000000000000   D
NJZ50JPY    00NJZ50JPY  00111409583432NJT2017052679838432000163201714120161412017141201729000 14822   00VAN     99945   201703310000000000000000021HERMANN             HERMANN JOSEFA                     8404 MARVIN STREAM                                                    GERMANTOWN                    NJ07001    FER0012                       NJ1234                        00000000          00000000          000000000000   D
NJS70CLB    00NJS70CLB  00111409583434NJT2017052679838432000163201714120161412017141201729000 14822   00VAN     99945   201703310000000000000000021LANG                LANG TYREE                         39815 METZ FREEWAY                                                    GERMANTOWN                    NJ07001    FER0012                       NJ1234                        00000000          00000000          000000000000   D
NJT22JZU    00NJT22JZU  00111409583435NJT2017052679838432000163201714120161412017141201729000 14822   00VAN     99945   201703310000000000000000021DARE                DARE PEYTON                        663 HAND CROSSROAD                                                    GERMANTOWN                    NJ07001    FER0012                       NJ1234                        00000000          00000000          000000000000   D
NJYYE57M    00NJYYE57M  00111409583436NJT2017052679838432000163201714120161412017141201729000 14822   00VAN     99945   201703310000000000000000021MILLER              MILLER ZORA                        85296 BECKER SKYWAY                                                   GERMANTOWN                    NJ07001    FER0012                       NJ1234                        00000000          00000000          000000000000   D
NJK41GRM    00NJK41GRM  00111409583697NJT2017052679838432000163201714120161412017141201729000 14822   00VAN     99945   201703310000000000000000021MCCLURE             MCCLURE DOROTHY                    5765 KSHLERIN DIVIDE                                                  GERMANTOWN                    NJ07001    FER0012                       NJ1234                        00000000          00000000          000000000000   D
NJW53HBB    00NJW53HBB  00111409583698NJT2017052679838432000163201714120161412017141201729000 14822   00VAN     99945   201703310000000000000000021ROWE                ROWE HELGA                         4061 ORN REST                                                         GERMANTOWN                    NJ07001    FER0012                       NJ1234                        00000000          00000000          000000000000   D
NJE26KGE    00NJE26KGE  00111409583699NJT2017052679838432000163201714120161412017141201729000 14822   00VAN     99945   201703310000000000000000021EBERT               EBERT JANET                        66580 RATKE PORTS                                                     GERMANTOWN                    NJ07001    FER0012                       NJ1234                        00000000          00000000          000000000000   D
NJUYC51Y    00NJUYC51Y  00111409583700NJT2017052679838432000163201714120161412017141201729000 14822   00VAN     99945   201703310000000000000000021REICHERT            REICHERT AMBROSE                   430 FUNK ROUTE                                                        GERMANTOWN                    NJ07001    FER0012                       NJ1234                        00000000          00000000          000000000000   D
NJT53KPW    00NJT53KPW  00111409583701NJT2017052679838432000163201714120161412017141201729000 14822   00VAN     99945   201703310000000000000000021RITCHIE             RITCHIE WILFRID                    3033 SAWAYN GLENS                                                     GERMANTOWN                    NJ07001    FER0012                       NJ1234                        00000000          00000000          000000000000   D
NJZ54HPH    00NJZ54HPH  00111409583702NJT2017052679838432000163201714120161412017141201729000 14822   00VAN     99945   201703310000000000000000021WUNSCH              WUNSCH NICHOLAS                    97312 GOYETTE LIGHTS                                                  GERMANTOWN                    NJ07001    FER0012                       NJ1234                        00000000          00000000          000000000000   D
GARJP0532   00GARJP0532 00111409583703NJT2017052679838432000163201714120161412017141201729000 14822   00VAN     99945   201703310000000000000000021DANIEL              DANIEL JAIME                       6175 NICKOLAS PLAZA                                                   GERMANTOWN                    NJ07001    FER0012                       NJ1234                        00000000          00000000          000000000000   D
PAK51470K   00PAK51470K 00111409583704NJT2017052679838432000163201714120161412017141201729000 14822   00VAN     99945   201703310000000000000000021OHARA               OHARA GEORGETTE                    0576 NOLAN FORD                                                       GERMANTOWN                    NJ07001    FER0012                       NJ1234                        00000000          00000000          000000000000   D
NJD24GPZ    00NJD24GPZ  00111409583705NJT2017052679838432000163201714120161412017141201729000 14822   00VAN     99945   201703310000000000000000021VON                 VON GAETANO                        863 REICHEL GARDEN                                                    GERMANTOWN                    NJ07001    FER0012                       NJ1234                        00000000          00000000          000000000000   D
NJJ57KWN    00NJJ57KWN  00111409583706NJT2017052679838432000163201714120161412017141201729000 14822   00VAN     99945   201703310000000000000000021GLOVER              GLOVER ZAKARY                      5833 SAGE SPUR                                                        GERMANTOWN                    NJ07001    FER0012                       NJ1234                        00000000          00000000          000000000000   D
NJJ55KBJ    00NJJ55KBJ  00111409583707NJT2017052679838432000163201714120161412017141201729000 14822   00VAN     99945   201703310000000000000000021RYAN                RYAN GUDRUN                        60194 BEAHAN PORTS                                                    GERMANTOWN                    NJ07001    FER0012                       NJ1234                        00000000          00000000          000000000000   D
NJFD6386M   00NJFD6386M 00111409583708NJT2017052679838432000163201714120161412017141201729000 14822   00VAN     99945   201703310000000000000000021KOZEY               KOZEY IMOGENE                      51683 COLLINS SPUR                                                    GERMANTOWN                    NJ07001    FER0012                       NJ1234                        00000000          00000000          000000000000   D
NJX82GYE    00NJX82GYE  00111409583709NJT2017052679838432000163201714120161412017141201729000 14822   00VAN     99945   201703310000000000000000021ONDRICKA            ONDRICKA DEMETRIUS                 244 JACOBS CLIFF                                                      GERMANTOWN                    NJ07001    FER0012                       NJ1234                        00000000          00000000          000000000000   D
NJM20KHR    00NJM20KHR  00111409583710NJT2017052679838432000163201714120161412017141201729000 14822   00VAN     99945   201703310000000000000000021STRACKE             STRACKE CONSUELO                   877 KEELING TRAIL                                                     GERMANTOWN                    NJ07001    FER0012                       NJ1234                        00000000          00000000          000000000000   D
NJCG8ARJ    00NJCG8ARJ  00111409583711NJT2017052679838432000163201714120161412017141201729000 14822   00VAN     99945   201703310000000000000000021OCONNER             OCONNER KHALIL                     21441 WOLFF HEIGHTS                                                   GERMANTOWN                    NJ07001    FER0012                       NJ1234                        00000000          00000000          000000000000   D
NJT27JXU    00NJT27JXU  00111409583712NJT2017052679838432000163201714120161412017141201729000 14822   00VAN     99945   201703310000000000000000021METZ                METZ FORREST                       525 BEAU CANYON                                                       GERMANTOWN                    NJ07001    FER0012                       NJ1234                        00000000          00000000          000000000000   D
NJZ83FAE    00NJZ83FAE  00111409583444NJT2017052679838432000163201714120161412017141201729000 14822   00VAN     99945   201703310000000000000000021BAILEY              BAILEY ORAL                        2901 DANIEL FLATS                                                     GERMANTOWN                    NJ07001    FER0012                       NJ1234                        00000000          00000000          000000000000   D
NJZRT85J    00NJZRT85J  00111409583447NJT2017052679838432000163201714120161412017141201729000 14822   00VAN     99945   201703310000000000000000021FEIL                FEIL JERAD                         3838 SHANON LODGE                                                     GERMANTOWN                    NJ07001    FER0012                       NJ1234                        00000000          00000000          000000000000   D
NJR38HKH    00NJR38HKH  00111409583448NJT2017052679838432000163201714120161412017141201729000 14822   00VAN     99945   201703310000000000000000021ZIEME               ZIEME MAYRA                        19321 KEEBLER ROADS                                                   GERMANTOWN                    NJ07001    FER0012                       NJ1234                        00000000          00000000          000000000000   D
NJT45JAW    00NJT45JAW  00111409583449NJT2017052679838432000163201714120161412017141201729000 14822   00VAN     99945   201703310000000000000000021CORKERY             CORKERY OTTILIE                    5447 IGNACIO GREEN                                                    GERMANTOWN                    NJ07001    FER0012                       NJ1234                        00000000          00000000          000000000000   D
NJXFFP26    00NJXFFP26  00111409583450NJT2017052679838432000163201714120161412017141201729000 14822   00VAN     99945   201703310000000000000000021ZULAUF              ZULAUF CLARABELLE                  3219 GAYLORD PLAINS                                                   GERMANTOWN                    NJ07001    FER0012                       NJ1234                        00000000          00000000          000000000000   D
NJH33HFJ    00NJH33HFJ  00111409583451NJT2017052679838432000163201714120161412017141201729000 14822   00VAN     99945   201703310000000000000000021RUTHERFORD          RUTHERFORD LOWELL                  11631 WALTER KNOLLS                                                   GERMANTOWN                    NJ07001    FER0012                       NJ1234                        00000000          00000000          000000000000   D
NJT24LAP    00NJT24LAP  00111409583452NJT2017052679838432000163201714120161412017141201729000 14822   00VAN     99945   201703310000000000000000021ROMAGUERA           ROMAGUERA MANLEY                   86919 DILLAN BURGS                                                    GERMANTOWN                    NJ07001    FER0012                       NJ1234                        00000000          00000000          000000000000   D
NJH91JHN    00NJH91JHN  00111409583453NJT2017052679838432000163201714120161412017141201729000 14822   00VAN     99945   201703310000000000000000021KILBACK             KILBACK CARMEL                     117 DALLIN OVAL                                                       GERMANTOWN                    NJ07001    FER0012                       NJ1234                        00000000          00000000          000000000000   D
NJSU625L    00NJSU625L  00111409583456NJT2017052679838432000163201714120161412017141201729000 14822   00VAN     99945   201703310000000000000000021ROOB                ROOB AUSTIN                        773 ILENE LANE                                                        GERMANTOWN                    NJ07001    FER0012                       NJ1234                        00000000          00000000          000000000000   D
NJF52KDE    00NJF52KDE  00111409583458NJT2017052679838432000163201714120161412017141201729000 14822   00VAN     99945   201703310000000000000000021BERGNAUM            BERGNAUM LEONOR                    07852 BETH LAND                                                       GERMANTOWN                    NJ07001    FER0012                       NJ1234                        00000000          00000000          000000000000   D
NJM53HHS    00NJM53HHS  00111409583459NJT2017052679838432000163201714120161412017141201729000 14822   00VAN     99945   201703310000000000000000021WISOZK              WISOZK MACKENZIE                   502 WIZA EXTENSIONS                                                   GERMANTOWN                    NJ07001    FER0012                       NJ1234                        00000000          00000000          000000000000   D
NJB80DEG    00NJB80DEG  00111409583714NJT2017052679838432000163201714120161412017141201729000 14822   00VAN     99945   201703310000000000000000021HANSEN              HANSEN TREMAINE                    00890 OVA CENTER                                                      GERMANTOWN                    NJ07001    FER0012                       NJ1234                        00000000          00000000          000000000000   D
NJL66GYX    00NJL66GYX  00111409583715NJT2017052679838432000163201714120161412017141201729000 14822   00VAN     99945   201703310000000000000000021CHRISTIANSEN        CHRISTIANSEN KATHERINE             84518 HERMAN SHOAL                                                    GERMANTOWN                    NJ07001    FER0012                       NJ1234                        00000000          00000000          000000000000   D
NJU72JXU    00NJU72JXU  00111409583716NJT2017052679838432000163201714120161412017141201729000 14822   00VAN     99945   201703310000000000000000021WHITE               WHITE HERMANN                      22033 ALEXANDRE VIEW                                                  GERMANTOWN                    NJ07001    FER0012                       NJ1234                        00000000          00000000          000000000000   D
NJR45KBF    00NJR45KBF  00111409583462NJT2017052679838432000163201714120161412017141201729000 14822   00VAN     99945   201703310000000000000000021STARK               STARK AHMAD                        07817 TATUM VALLEYS                                                   GERMANTOWN                    NJ07001    FER0012                       NJ1234                        00000000          00000000          000000000000   D
NJXX934P    00NJXX934P  00111409583463NJT2017052679838432000163201714120161412017141201729000 14822   00VAN     99945   201703310000000000000000021LABADIE             LABADIE TOM                        60823 REY EXTENSION                                                   GERMANTOWN                    NJ07001    FER0012                       NJ1234                        00000000          00000000          000000000000   D
NJY47CSY    00NJY47CSY  00111409583464NJT2017052679838432000163201714120161412017141201729000 14822   00VAN     99945   201703310000000000000000021CONSIDINE           CONSIDINE CHANDLER                 63139 PATSY PLAZA                                                     GERMANTOWN                    NJ07001    FER0012                       NJ1234                        00000000          00000000          000000000000   D
NJW52KHV    00NJW52KHV  00111409583465NJT2017052679838432000163201714120161412017141201729000 14822   00VAN     99945   201703310000000000000000021YUNDT               YUNDT GRANT                        31024 OCONNELL SPRINGS                                                GERMANTOWN                    NJ07001    FER0012                       NJ1234                        00000000          00000000          000000000000   D
NJE11JYG    00NJE11JYG  00111409583466NJT2017052679838432000163201714120161412017141201729000 14822   00VAN     99945   201703310000000000000000021TURNER              TURNER CASSANDRA                   479 NIKOLAUS RIDGES                                                   GERMANTOWN                    NJ07001    FER0012                       NJ1234                        00000000          00000000          000000000000   D
NJV27HJJ    00NJV27HJJ  00111409583467NJT2017052679838432000163201714120161412017141201729000 14822   00VAN     99945   201703310000000000000000021BEER                BEER JERALD                        39232 MARA HARBORS                                                    GERMANTOWN                    NJ07001    FER0012                       NJ1234                        00000000          00000000          000000000000   D
NJ4286HC    00NJ4286HC  00111409583469NJT2017052679838432000163201714120161412017141201729000 14822   00VAN     99945   201703310000000000000000021ROGAHN              ROGAHN RICK                        59821 EVIE WELL                                                       GERMANTOWN                    NJ07001    FER0012                       NJ1234                        00000000          00000000          000000000000   D
NJH37HFS    00NJH37HFS  00111409583470NJT2017052679838432000163201714120161412017141201729000 14822   00VAN     99945   201703310000000000000000021DIBBERT             DIBBERT DALE                       92830 LIND COVE                                                       GERMANTOWN                    NJ07001    FER0012                       NJ1234                        00000000          00000000          000000000000   D
PAHWR5761   00PAHWR5761 00111409583471NJT2017052679838432000163201714120161412017141201729000 14822   00VAN     99945   201703310000000000000000021WAELCHI             WAELCHI GORDON                     311 SCHUMM PASSAGE                                                    GERMANTOWN                    NJ07001    FER0012                       NJ1234                        00000000          00000000          000000000000   D
NJN95JWF    00NJN95JWF  00111409583473NJT2017052679838432000163201714120161412017141201729000 14822   00VAN     99945   201703310000000000000000021FRIESEN             FRIESEN MARIANNE                   6720 EZEQUIEL RIDGE                                                   GERMANTOWN                    NJ07001    FER0012                       NJ1234                        00000000          00000000          000000000000   D
NJT31HXL    00NJT31HXL  00111409583474NJT2017052679838432000163201714120161412017141201729000 14822   00VAN     99945   201703310000000000000000021CASPER              CASPER SHERWOOD                    334 LINDSEY KEY                                                       GERMANTOWN                    NJ07001    FER0012                       NJ1234                        00000000          00000000          000000000000   D
NJE52KMU    00NJE52KMU  00111409583476NJT2017052679838432000163201714120161412017141201729000 14822   00VAN     99945   201703310000000000000000021HAGENES             HAGENES SHAYNE                     20430 KRIS COURSE                                                     GERMANTOWN                    NJ07001    FER0012                       NJ1234                        00000000          00000000          000000000000   D
NJMNL48J    00NJMNL48J  00111409583717NJT2017052679838432000163201714120161412017141201729000 14822   00VAN     99945   201703310000000000000000021RENNER              RENNER GERRY                       2128 ELI PORT                                                         GERMANTOWN                    NJ07001    FER0012                       NJ1234                        00000000          00000000          000000000000   D
NYHVW5277   00NYHVW5277 00111409583718NJT2017052679838432000163201714120161412017141201729000 14822   00VAN     99945   201703310000000000000000021KLING               KLING ELDORA                       03545 PROHASKA WALL                                                   GERMANTOWN                    NJ07001    FER0012                       NJ1234                        00000000          00000000          000000000000   D
NJY54KBH    00NJY54KBH  00111409583719NJT2017052679838432000163201714120161412017141201729000 14822   00VAN     99945   201703310000000000000000021WELCH               WELCH LAVINA                       98979 JUDY KNOLLS                                                     GERMANTOWN                    NJ07001    FER0012                       NJ1234                        00000000          00000000          000000000000   D
NJH32HWD    00NJH32HWD  00111409583720NJT2017052679838432000163201714120161412017141201729000 14822   00VAN     99945   201703310000000000000000021DIBBERT             DIBBERT ROSCOE                     07607 PACOCHA PARKWAYS                                                GERMANTOWN                    NJ07001    FER0012                       NJ1234                        00000000          00000000          000000000000   D
NJ18494MG   00NJ18494MG 00111409583722NJT2017052679838432000163201714120161412017141201729000 14822   00VAN     99945   201703310000000000000000021WITTING             WITTING KHALID                     129 HALEY CURVE                                                       GERMANTOWN                    NJ07001    FER0012                       NJ1234                        00000000          00000000          000000000000   D
NJM22KKF    00NJM22KKF  00111409583724NJT2017052679838432000163201714120161412017141201729000 14822   00VAN     99945   201703310000000000000000021TREUTEL             TREUTEL JULIAN                     41203 KYLE GREENS                                                     GERMANTOWN                    NJ07001    FER0012                       NJ1234                        00000000          00000000          000000000000   D
PAKPB0754   00PAKPB0754 00111409583725NJT2017052679838432000163201714120161412017141201729000 14822   00VAN     99945   201703310000000000000000021SAUER               SAUER CAMYLLE                      60928 VIRGIE PASSAGE                                                  GERMANTOWN                    NJ07001    FER0012                       NJ1234                        00000000          00000000          000000000000   D
NJXERB84    00NJXERB84  00111409583726NJT2017052679838432000163201714120161412017141201729000 14822   00VAN     99945   201703310000000000000000021HILLL               HILLL BUSTER                       183 BERNHARD EXPRESSWAY                                               GERMANTOWN                    NJ07001    FER0012                       NJ1234                        00000000          00000000          000000000000   D
NJXGDB14    00NJXGDB14  00111409583727NJT2017052679838432000163201714120161412017141201729000 14822   00VAN     99945   201703310000000000000000021KUVALIS             KUVALIS JENNIFER                   516 ORTIZ DRIVE                                                       GERMANTOWN                    NJ07001    FER0012                       NJ1234                        00000000          00000000          000000000000   D
NJ1LRS8     00NJ1LRS8   00111409583728NJT2017052679838432000163201714120161412017141201729000 14822   00VAN     99945   201703310000000000000000021FAHEY               FAHEY FELTON                       430 KIAN RAPID                                                        GERMANTOWN                    NJ07001    FER0012                       NJ1234                        00000000          00000000          000000000000   D
NJCG7BMK    00NJCG7BMK  00111409583729NJT2017052679838432000163201714120161412017141201729000 14822   00VAN     99945   201703310000000000000000021JASKOLSKI           JASKOLSKI LADARIUS                 705 MAYER RIDGES                                                      GERMANTOWN                    NJ07001    FER0012                       NJ1234                        00000000          00000000          000000000000   D
DE785667    00DE785667  00111409583730NJT2017052679838432000163201714120161412017141201729000 14822   00VAN     99945   201703310000000000000000021FERRY               FERRY CAROL                        53931 CORRINE ROADS                                                   GERMANTOWN                    NJ07001    FER0012                       NJ1234                        00000000          00000000          000000000000   D
NJK53KBJ    00NJK53KBJ  00111409583732NJT2017052679838432000163201714120161412017141201729000 14822   00VAN     99945   201703310000000000000000021MAYER               MAYER LEOPOLD                      9845 GISLASON JUNCTIONS                                               GERMANTOWN                    NJ07001    FER0012                       NJ1234                        00000000          00000000          000000000000   D
NJT41HEZ    00NJT41HEZ  00111409583733NJT2017052679838432000163201714120161412017141201729000 14822   00VAN     99945   201703310000000000000000021TILLMAN             TILLMAN LEOPOLD                    439 AMALIA TUNNEL                                                     GERMANTOWN                    NJ07001    FER0012                       NJ1234                        00000000          00000000          000000000000   D
PAKRF4555   00PAKRF4555 00111409583477NJT2017052679838432000163201714120161412017141201729000 14822   00VAN     99945   201703310000000000000000021MORISSETTE          MORISSETTE SAVANNA                 0424 BERNARDO LOOP                                                    GERMANTOWN                    NJ07001    FER0012                       NJ1234                        00000000          00000000          000000000000   D
PAKRL5080   00PAKRL5080 00111409583478NJT2017052679838432000163201714120161412017141201729000 14822   00VAN     99945   201703310000000000000000021WALSH               WALSH MARCO                        731 MALINDA VIA                                                       GERMANTOWN                    NJ07001    FER0012                       NJ1234                        00000000          00000000          000000000000   D
NJZ69JLB    00NJZ69JLB  00111409583479NJT2017052679838432000163201714120161412017141201729000 14822   00VAN     99945   201703310000000000000000021GOLDNER             GOLDNER CHRISTIAN                  831 TERRY FIELD                                                       GERMANTOWN                    NJ07001    FER0012                       NJ1234                        00000000          00000000          000000000000   D
PAKXV6850   00PAKXV6850 00111409583480NJT2017052679838432000163201714120161412017141201729000 14822   00VAN     99945   201703310000000000000000021HALVORSON           HALVORSON MONA                     09297 BETTYE DAM                                                      GERMANTOWN                    NJ07001    FER0012                       NJ1234                        00000000          00000000          000000000000   D
NJP35FFH    00NJP35FFH  00111409583481NJT2017052679838432000163201714120161412017141201729000 14822   00VAN     99945   201703310000000000000000021REICHEL             REICHEL ANAHI                      8982 AUFDERHAR GLENS                                                  GERMANTOWN                    NJ07001    FER0012                       NJ1234                        00000000          00000000          000000000000   D
NJ5630HE    00NJ5630HE  00111409583482NJT2017052679838432000163201714120161412017141201729000 14822   00VAN     99945   201703310000000000000000021GRADY               GRADY SADIE                        645 DENESIK KNOLLS                                                    GERMANTOWN                    NJ07001    FER0012                       NJ1234                        00000000          00000000          000000000000   D
PAKCY5696   00PAKCY5696 00111409583483NJT2017052679838432000163201714120161412017141201729000 14822   00VAN     99945   201703310000000000000000021KUTCH               KUTCH JENNYFER                     51557 HEATHCOTE EXPRESSWAY                                            GERMANTOWN                    NJ07001    FER0012                       NJ1234                        00000000          00000000          000000000000   D
NJXEEH66    00NJXEEH66  00111409583487NJT2017052679838432000163201714120161412017141201729000 14822   00VAN     99945   201703310000000000000000021AUFDERHAR           AUFDERHAR OSBORNE                  19805 BEDNAR PORT                                                     GERMANTOWN                    NJ07001    FER0012                       NJ1234                        00000000          00000000          000000000000   D
NJTNB96W    00NJTNB96W  00111409583488NJT2017052679838432000163201714120161412017141201729000 14822   00VAN     99945   201703310000000000000000021LIND                LIND TIMMY                         895 ERIC NECK                                                         GERMANTOWN                    NJ07001    FER0012                       NJ1234                        00000000          00000000          000000000000   D
NJ17453MG   00NJ17453MG 00111409583489NJT2017052679838432000163201714120161412017141201729000 14822   00VAN     99945   201703310000000000000000021POLLICH             POLLICH RUBIE                      6673 HAGENES ROAD                                                     GERMANTOWN                    NJ07001    FER0012                       NJ1234                        00000000          00000000          000000000000   D
NJT41JWG    00NJT41JWG  00111409583492NJT2017052679838432000163201714120161412017141201729000 14822   00VAN     99945   201703310000000000000000021ROMAGUERA           ROMAGUERA ALENE                    3946 VEDA POINTS                                                      GERMANTOWN                    NJ07001    FER0012                       NJ1234                        00000000          00000000          000000000000   D
NJOL5073J   00NJOL5073J 00111409583735NJT2017052679838432000163201714120161412017141201729000 14822   00VAN     99945   201703310000000000000000021HEIDENREICH         HEIDENREICH MISSOURI               462 JACINTO MOUNT                                                     GERMANTOWN                    NJ07001    FER0012                       NJ1234                        00000000          00000000          000000000000   D
NJXACS69    00NJXACS69  00111409583737NJT2017052679838432000163201714120161412017141201729000 14822   00VAN     99945   201703310000000000000000021GUTMANN             GUTMANN AMIYA                      207 FISHER LOCKS                                                      GERMANTOWN                    NJ07001    FER0012                       NJ1234                        00000000          00000000          000000000000   D
MD7CE4815   00MD7CE4815 00111409583738NJT2017052679838432000163201714120161412017141201729000 14822   00VAN     99945   201703310000000000000000021SCHUMM              SCHUMM KELSIE                      45656 REANNA CROSSING                                                 GERMANTOWN                    NJ07001    FER0012                       NJ1234                        00000000          00000000          000000000000   D
NJA89KZY    00NJA89KZY  00111409583740NJT2017052679838432000163201714120161412017141201729000 14822   00VAN     99945   201703310000000000000000021OCONNELL            OCONNELL SANTINA                   146 REINGER SUMMIT                                                    GERMANTOWN                    NJ07001    FER0012                       NJ1234                        00000000          00000000          000000000000   D
PAHGH1889   00PAHGH1889 00111409583741NJT2017052679838432000163201714120161412017141201729000 14822   00VAN     99945   201703310000000000000000021HELLER              HELLER JEWEL                       62353 HILLL ISLAND                                                    GERMANTOWN                    NJ07001    FER0012                       NJ1234                        00000000          00000000          000000000000   D
NJHNI14E    00NJHNI14E  00111409583742NJT2017052679838432000163201714120161412017141201729000 14822   00VAN     99945   201703310000000000000000021KAUTZER             KAUTZER MARCO                      318 GRIMES UNION                                                      GERMANTOWN                    NJ07001    FER0012                       NJ1234                        00000000          00000000          000000000000   D
NJY10GMN    00NJY10GMN  00111409583743NJT2017052679838432000163201714120161412017141201729000 14822   00VAN     99945   201703310000000000000000021CUMMERATA           CUMMERATA ARNE                     051 CARLEY VILLAGE                                                    GERMANTOWN                    NJ07001    FER0012                       NJ1234                        00000000          00000000          000000000000   D
NJX28JPC    00NJX28JPC  00111409583744NJT2017052679838432000163201714120161412017141201729000 14822   00VAN     99945   201703310000000000000000021DICKENS             DICKENS LILLIE                     981 EMERSON TURNPIKE                                                  GERMANTOWN                    NJ07001    FER0012                       NJ1234                        00000000          00000000          000000000000   D
NJN76HRK    00NJN76HRK  00111409583745NJT2017052679838432000163201714120161412017141201729000 14822   00VAN     99945   201703310000000000000000021REMPEL              REMPEL SKYE                        672 ALTENWERTH POINT                                                  GERMANTOWN                    NJ07001    FER0012                       NJ1234                        00000000          00000000          000000000000   D
NJX18FTZ    00NJX18FTZ  00111409583746NJT2017052679838432000163201714120161412017141201729000 14822   00VAN     99945   201703310000000000000000021SCHOWALTER          SCHOWALTER LOWELL                  42444 JACINTO SUMMIT                                                  GERMANTOWN                    NJ07001    FER0012                       NJ1234                        00000000          00000000          000000000000   D
NJW10FEH    00NJW10FEH  00111409583747NJT2017052679838432000163201714120161412017141201729000 14822   00VAN     99945   201703310000000000000000021GOLDNER             GOLDNER JIMMIE                     38180 SHIRLEY PORTS                                                   GERMANTOWN                    NJ07001    FER0012                       NJ1234                        00000000          00000000          000000000000   D
NJWUY66X    00NJWUY66X  00111409583750NJT2017052679838432000163201714120161412017141201729000 14822   00VAN     99945   201703310000000000000000021ZIEMANN             ZIEMANN KARSON                     671 JANAE TRACE                                                       GERMANTOWN                    NJ07001    FER0012                       NJ1234                        00000000          00000000          000000000000   D
NJZBP58S    00NJZBP58S  00111409583494NJT2017052679838432000163201714120161412017141201729000 14822   00VAN     99945   201703310000000000000000021KIRLIN              KIRLIN EDA                         477 WAELCHI RIDGES                                                    GERMANTOWN                    NJ07001    FER0012                       NJ1234                        00000000          00000000          000000000000   D
NJY50KNC    00NJY50KNC  00111409583498NJT2017052679838432000163201714120161412017141201729000 14822   00VAN     99945   201703310000000000000000021LESCH               LESCH SID                          49862 SCHUMM MOUNTAIN                                                 GERMANTOWN                    NJ07001    FER0012                       NJ1234                        00000000          00000000          000000000000   D
NJSRN88G    00NJSRN88G  00111409583502NJT2017052679838432000163201714120161412017141201729000 14822   00VAN     99945   201703310000000000000000021GAYLORD             GAYLORD MAGALI                     17448 WISOKY TRACK                                                    GERMANTOWN                    NJ07001    FER0012                       NJ1234                        00000000          00000000          000000000000   D
NJUYP25Z    00NJUYP25Z  00111409583503NJT2017052679838432000163201714120161412017141201729000 14822   00VAN     99945   201703310000000000000000021PAUCEK              PAUCEK LINDSAY                     384 MOEN WELLS                                                        GERMANTOWN                    NJ07001    FER0012                       NJ1234                        00000000          00000000          000000000000   D
NJS11HFS    00NJS11HFS  00111409583504NJT2017052679838432000163201714120161412017141201729000 14822   00VAN     99945   201703310000000000000000021WALSH               WALSH LISA                         0128 WIZA SPRING                                                      GERMANTOWN                    NJ07001    FER0012                       NJ1234                        00000000          00000000          000000000000   D
NJX12KNA    00NJX12KNA  00111409583508NJT2017052679838432000163201714120161412017141201729000 14822   00VAN     99945   201703310000000000000000021OLSON               OLSON SUSANA                       482 DOOLEY PLAINS                                                     GERMANTOWN                    NJ07001    FER0012                       NJ1234                        00000000          00000000          000000000000   D
NJT14KPW    00NJT14KPW  00111409583509NJT2017052679838432000163201714120161412017141201729000 14822   00VAN     99945   201703310000000000000000021HAYES               HAYES TATYANA                      2566 ROSANNA CANYON                                                   GERMANTOWN                    NJ07001    FER0012                       NJ1234                        00000000          00000000          000000000000   D
NJOT8113    00NJOT8113  00111409583752NJT2017052679838432000163201714120161412017141201729000 14822   00VAN     99945   201703310000000000000000021BARTELL             BARTELL KADE                       6418 WILL RAPIDS                                                      GERMANTOWN                    NJ07001    FER0012                       NJ1234                        00000000          00000000          000000000000   D
NJP84HFS    00NJP84HFS  00111409583510NJT2017052679838432000163201714120161412017141201729000 14822   00VAN     99945   201703310000000000000000021LITTEL              LITTEL NOEMI                       72087 KUTCH VILLAGES                                                  GERMANTOWN                    NJ07001    FER0012                       NJ1234                        00000000          00000000          000000000000   D
NJG97GFR    00NJG97GFR  00111409583512NJT2017052679838432000163201714120161412017141201729000 14822   00VAN     99945   201703310000000000000000021WITTING             WITTING FELICITA                   34635 CHANDLER UNION                                                  GERMANTOWN                    NJ07001    FER0012                       NJ1234                        00000000          00000000          000000000000   D
NJV95JPE    00NJV95JPE  00111409583513NJT2017052679838432000163201714120161412017141201729000 14822   00VAN     99945   201703310000000000000000021MCCULLOUGH          MCCULLOUGH CLEORA                  35425 ETHEL PORT                                                      GERMANTOWN                    NJ07001    FER0012                       NJ1234                        00000000          00000000          000000000000   D
NJK72KZC    00NJK72KZC  00111409583514NJT2017052679838432000163201714120161412017141201729000 14822   00VAN     99945   201703310000000000000000021KONOPELSKI          KONOPELSKI REINHOLD                4808 MURPHY CLUB                                                      GERMANTOWN                    NJ07001    FER0012                       NJ1234                        00000000          00000000          000000000000   D
NJU26HWA    00NJU26HWA  00111409583515NJT2017052679838432000163201714120161412017141201729000 14822   00VAN     99945   201703310000000000000000021BEATTY              BEATTY MAKENNA                     146 ROGELIO COURSE                                                    GERMANTOWN                    NJ07001    FER0012                       NJ1234                        00000000          00000000          000000000000   D
NJS88JFP    00NJS88JFP  00111409583516NJT2017052679838432000163201714120161412017141201729000 14822   00VAN     99945   201703310000000000000000021RYAN                RYAN PAMELA                        603 LILLIE PINE                                                       GERMANTOWN                    NJ07001    FER0012                       NJ1234                        00000000          00000000          000000000000   D
NJZWH23H    00NJZWH23H  00111409583517NJT2017052679838432000163201714120161412017141201729000 14822   00VAN     99945   201703310000000000000000021KOEPP               KOEPP KAYLEE                       374 KEATON KNOLL                                                      GERMANTOWN                    NJ07001    FER0012                       NJ1234                        00000000          00000000          000000000000   D
NJXBJL22    00NJXBJL22  00111409583518NJT2017052679838432000163201714120161412017141201729000 14822   00VAN     99945   201703310000000000000000021ALTENWERTH          ALTENWERTH BELL                    07611 TOBY HIGHWAY                                                    GERMANTOWN                    NJ07001    FER0012                       NJ1234                        00000000          00000000          000000000000   D
NJXEZG55    00NJXEZG55  00111409583519NJT2017052679838432000163201714120161412017141201729000 14822   00VAN     99945   201703310000000000000000021DECKOW              DECKOW RODOLFO                     465 HASKELL ROAD                                                      GERMANTOWN                    NJ07001    FER0012                       NJ1234                        00000000          00000000          000000000000   D
NJM93HYM    00NJM93HYM  00111409583521NJT2017052679838432000163201714120161412017141201729000 14822   00VAN     99945   201703310000000000000000021CHRISTIANSEN        CHRISTIANSEN FLORIDA               84135 POUROS STREET                                                   GERMANTOWN                    NJ07001    FER0012                       NJ1234                        00000000          00000000          000000000000   D
VAUXB4072   00VAUXB4072 00111409583522NJT2017052679838432000163201714120161412017141201729000 14822   00VAN     99945   201703310000000000000000021CRONIN              CRONIN CLEMENTINA                  59047 EFFIE DRIVES                                                    GERMANTOWN                    NJ07001    FER0012                       NJ1234                        00000000          00000000          000000000000   D
NJN87HFS    00NJN87HFS  00111409583523NJT2017052679838432000163201714120161412017141201729000 14822   00VAN     99945   201703310000000000000000021NIKOLAUS            NIKOLAUS MAUDE                     47596 JARROD VISTA                                                    GERMANTOWN                    NJ07001    FER0012                       NJ1234                        00000000          00000000          000000000000   D
NJXGFV78    00NJXGFV78  00111409583524NJT2017052679838432000163201714120161412017141201729000 14822   00VAN     99945   201703310000000000000000021LOCKMAN             LOCKMAN NELLA                      2305 JACOBSON RUN                                                     GERMANTOWN                    NJ07001    FER0012                       NJ1234                        00000000          00000000          000000000000   D
NJV30KDJ    00NJV30KDJ  00111409583525NJT2017052679838432000163201714120161412017141201729000 14822   00VAN     99945   201703310000000000000000021WINDLER             WINDLER MERRITT                    90532 WILLARD FERRY                                                   GERMANTOWN                    NJ07001    FER0012                       NJ1234                        00000000          00000000          000000000000   D
NJK25KBJ    00NJK25KBJ  00111409583527NJT2017052679838432000163201714120161412017141201729000 14822   00VAN     99945   201703310000000000000000021DANIEL              DANIEL JULIAN                      049 SCHROEDER OVERPASS                                                GERMANTOWN                    NJ07001    FER0012                       NJ1234                        00000000          00000000          000000000000   D
NJK55KUC    00NJK55KUC  00111409583528NJT2017052679838432000163201714120161412017141201729000 14822   00VAN     99945   201703310000000000000000021MURRAY              MURRAY GERALD                      71698 OLAF LOCK                                                       GERMANTOWN                    NJ07001    FER0012                       NJ1234                        00000000          00000000          000000000000   D
NJZJU31U    00NJZJU31U  00111409583529NJT2017052679838432000163201714120161412017141201729000 14822   00VAN     99945   201703310000000000000000021WEST                WEST CARSON                        977 GREGG FLATS                                                       GERMANTOWN                    NJ07001    FER0012                       NJ1234                        00000000          00000000          000000000000   D
NJT85KWN    00NJT85KWN  00111409583530NJT2017052679838432000163201714120161412017141201729000 14822   00VAN     99945   201703310000000000000000021CRUICKSHANK         CRUICKSHANK TOMASA                 1269 ROWE BURG                                                        GERMANTOWN                    NJ07001    FER0012                       NJ1234                        00000000          00000000          000000000000   D
NJYBC30A    00NJYBC30A  00111409583531NJT2017052679838432000163201714120161412017141201729000 14822   00VAN     99945   201703310000000000000000021RYAN                RYAN KEYSHAWN                      06121 HAND PRAIRIE                                                    GERMANTOWN                    NJ07001    FER0012                       NJ1234                        00000000          00000000          000000000000   D
MD8CJ6050   00MD8CJ6050 00111409583533NJT2017052679838432000163201714120161412017141201729000 14822   00VAN     99945   201703310000000000000000021LIND                LIND MELISSA                       9476 WEISSNAT WALL                                                    GERMANTOWN                    NJ07001    FER0012                       NJ1234                        00000000          00000000          000000000000   D
NJV80JRD    00NJV80JRD  00111409583534NJT2017052679838432000163201714120161412017141201729000 14822   00VAN     99945   201703310000000000000000021HODKIEWICZ          HODKIEWICZ MOSE                    8513 OBERBRUNNER CLIFFS                                               GERMANTOWN                    NJ07001    FER0012                       NJ1234                        00000000          00000000          000000000000   D
NJC72KNC    00NJC72KNC  00111409583535NJT2017052679838432000163201714120161412017141201729000 14822   00VAN     99945   201703310000000000000000021JACOBI              JACOBI BRICE                       03231 HOWELL WELLS                                                    GERMANTOWN                    NJ07001    FER0012                       NJ1234                        00000000          00000000          000000000000   D
NJXGFW34    00NJXGFW34  00111409583536NJT2017052679838432000163201714120161412017141201729000 14822   00VAN     99945   201703310000000000000000021KUNDE               KUNDE LEDA                         37789 SAMMIE LANDING                                                  GERMANTOWN                    NJ07001    FER0012                       NJ1234                        00000000          00000000          000000000000   D
NJSU255K    00NJSU255K  00111409583537NJT2017052679838432000163201714120161412017141201729000 14822   00VAN     99945   201703310000000000000000021CORKERY             CORKERY DAVID                      2488 GERHOLD FALLS                                                    GERMANTOWN                    NJ07001    FER0012                       NJ1234                        00000000          00000000          000000000000   D
PAKWG7025   00PAKWG7025 00111409583538NJT2017052679838432000163201714120161412017141201729000 14822   00VAN     99945   201703310000000000000000021KUNDE               KUNDE CLEVE                        743 ANNABEL SHORES                                                    GERMANTOWN                    NJ07001    FER0012                       NJ1234                        00000000          00000000          000000000000   D
NJK71KZC    00NJK71KZC  00111409583539NJT2017052679838432000163201714120161412017141201729000 14822   00VAN     99945   201703310000000000000000021RAYNOR              RAYNOR JAMMIE                      68588 CHAYA UNIONS                                                    GERMANTOWN                    NJ07001    FER0012                       NJ1234                        00000000          00000000          000000000000   D
NJD86KMU    00NJD86KMU  00111409583540NJT2017052679838432000163201714120161412017141201729000 14822   00VAN     99945   201703310000000000000000021LESCH               LESCH SAM                          7967 JAKUBOWSKI OVERPASS                                              GERMANTOWN                    NJ07001    FER0012                       NJ1234                        00000000          00000000          000000000000   D
NJXT282H    00NJXT282H  00111409583541NJT2017052679838432000163201714120161412017141201729000 14822   00VAN     99945   201703310000000000000000021DUBUQUE             DUBUQUE ANABEL                     83033 TROMP TRACK                                                     GERMANTOWN                    NJ07001    FER0012                       NJ1234                        00000000          00000000          000000000000   D
VAVKB2603   00VAVKB2603 00111409583543NJT2017052679838432000163201714120161412017141201729000 14822   00VAN     99945   201703310000000000000000021FEENEY              FEENEY AMANI                       9015 RUBY PLAINS                                                      GERMANTOWN                    NJ07001    FER0012                       NJ1234                        00000000          00000000          000000000000   D
NJXAPC25    00NJXAPC25  00111409583544NJT2017052679838432000163201714120161412017141201729000 14822   00VAN     99945   201703310000000000000000021CRONIN              CRONIN NICOLA                      02459 MARVIN HILLS                                                    GERMANTOWN                    NJ07001    FER0012                       NJ1234                        00000000          00000000          000000000000   D
NJN98FRD    00NJN98FRD  00111409583545NJT2017052679838432000163201714120161412017141201729000 14822   00VAN     99945   201703310000000000000000021MACEJKOVIC          MACEJKOVIC MELODY                  2810 JAKAYLA CIRCLE                                                   GERMANTOWN                    NJ07001    FER0012                       NJ1234                        00000000          00000000          000000000000   D
NJF73GYC    00NJF73GYC  00111409583546NJT2017052679838432000163201714120161412017141201729000 14822   00VAN     99945   201703310000000000000000021LEGROS              LEGROS CRISTIAN                    00768 ORRIN CENTERS                                                   GERMANTOWN                    NJ07001    FER0012                       NJ1234                        00000000          00000000          000000000000   D
NJG19JHN    00NJG19JHN  00111409583547NJT2017052679838432000163201714120161412017141201729000 14822   00VAN     99945   201703310000000000000000021UPTON               UPTON REBEKAH                      0486 MARILYNE SHOALS                                                  GERMANTOWN                    NJ07001    FER0012                       NJ1234                        00000000          00000000          000000000000   D
NJY907CG    00NJY907CG  00111409583548NJT2017052679838432000163201714120161412017141201729000 14822   00VAN     99945   201703310000000000000000021LINDGREN            LINDGREN DILLAN                    417 LANCE TURNPIKE                                                    GERMANTOWN                    NJ07001    FER0012                       NJ1234                        00000000          00000000          000000000000   D
NJY64HCJ    00NJY64HCJ  00111409583549NJT2017052679838432000163201714120161412017141201729000 14822   00VAN     99945   201703310000000000000000021BASHIRIAN           BASHIRIAN ROYAL                    4950 SCHMELER NECK                                                    GERMANTOWN                    NJ07001    FER0012                       NJ1234                        00000000          00000000          000000000000   D
NJT36JJV    00NJT36JJV  00111409583550NJT2017052679838432000163201714120161412017141201729000 14822   00VAN     99945   201703310000000000000000021REICHERT            REICHERT JERAMIE                   66798 BERNHARD CLIFFS                                                 GERMANTOWN                    NJ07001    FER0012                       NJ1234                        00000000          00000000          000000000000   D
NJM47BVR    00NJM47BVR  00111409583551NJT2017052679838432000163201714120161412017141201729000 14822   00VAN     99945   201703310000000000000000021SCHIMMEL            SCHIMMEL JIMMIE                    906 EMILY WALL                                                        GERMANTOWN                    NJ07001    FER0012                       NJ1234                        00000000          00000000          000000000000   D
NJXC394N    00NJXC394N  00111409583552NJT2017052679838432000163201714120161412017141201729000 14822   00VAN     99945   201703310000000000000000021SAUER               SAUER GODFREY                      5181 JOHANNA CORNERS                                                  GERMANTOWN                    NJ07001    FER0012                       NJ1234                        00000000          00000000          000000000000   D
NJR63HFW    00NJR63HFW  00111409583553NJT2017052679838432000163201714120161412017141201729000 14822   00VAN     99945   201703310000000000000000021ZBONCAK             ZBONCAK CARMEN                     4017 STEVIE SHOALS                                                    GERMANTOWN                    NJ07001    FER0012                       NJ1234                        00000000          00000000          000000000000   D
NJG47CEC    00NJG47CEC  00111409583554NJT2017052679838432000163201714120161412017141201729000 14822   00VAN     99945   201703310000000000000000021HARVEY              HARVEY EDMUND                      50580 SMITH RADIAL                                                    GERMANTOWN                    NJ07001    FER0012                       NJ1234                        00000000          00000000          000000000000   D
NJT179458   00NJT179458 00111409583556NJT2017052679838432000163201714120161412017141201729000 14822   00VAN     99945   201703310000000000000000021STOLTENBERG         STOLTENBERG LOYCE                  74895 BELLE PARKWAYS                                                  GERMANTOWN                    NJ07001    FER0012                       NJ1234                        00000000          00000000          000000000000   D
NJXGBN95    00NJXGBN95  00111409583557NJT2017052679838432000163201714120161412017141201729000 14822   00VAN     99945   201703310000000000000000021OSINSKI             OSINSKI FRANCESCO                  110 PROHASKA BRIDGE                                                   GERMANTOWN                    NJ07001    FER0012                       NJ1234                        00000000          00000000          000000000000   D
NJN94GCF    00NJN94GCF  00111409583559NJT2017052679838432000163201714120161412017141201729000 14822   00VAN     99945   201703310000000000000000021OSINSKI             OSINSKI GEORGIANNA                 3047 BOGAN WALL                                                       GERMANTOWN                    NJ07001    FER0012                       NJ1234                        00000000          00000000          000000000000   D
NJXY537J    00NJXY537J  00111409583560NJT2017052679838432000163201714120161412017141201729000 14822   00VAN     99945   201703310000000000000000021BINS                BINS GIOVANNA                      5379 MALINDA TURNPIKE                                                 GERMANTOWN                    NJ07001    FER0012                       NJ1234                        00000000          00000000          000000000000   D
NJN47DAC    00NJN47DAC  00111409583562NJT2017052679838432000163201714120161412017141201729000 14822   00VAN     99945   201703310000000000000000021BEER                BEER GAIL                          8361 CLEMMIE FORKS                                                    GERMANTOWN                    NJ07001    FER0012                       NJ1234                        00000000          00000000          000000000000   D
NJSR809Z    00NJSR809Z  00111409583565NJT2017052679838432000163201714120161412017141201729000 14822   00VAN     99945   201703310000000000000000021SPORER              SPORER BRADY                       198 SCHMIDT STREETS                                                   GERMANTOWN                    NJ07001    FER0012                       NJ1234                        00000000          00000000          000000000000   D
NJA23FMV    00NJA23FMV  00111409583566NJT2017052679838432000163201714120161412017141201729000 14822   00VAN     99945   201703310000000000000000021WATERS              WATERS CANDIDO                     802 WEIMANN STREAM                                                    GERMANTOWN                    NJ07001    FER0012                       NJ1234                        00000000          00000000          000000000000   D
NJH17FNN    00NJH17FNN  00111409583567NJT2017052679838432000163201714120161412017141201729000 14822   00VAN     99945   201703310000000000000000021KUHN                KUHN AGLAE                         18043 WHITE DALE                                                      GERMANTOWN                    NJ07001    FER0012                       NJ1234                        00000000          00000000          000000000000   D
NJG56KRF    00NJG56KRF  00111409583568NJT2017052679838432000163201714120161412017141201729000 14822   00VAN     99945   201703310000000000000000021LUBOWITZ            LUBOWITZ BRANDON                   28102 ALEX KNOLL                                                      GERMANTOWN                    NJ07001    FER0012                       NJ1234                        00000000          00000000          000000000000   D
PAKFC0407   00PAKFC0407 00111409583569NJT2017052679838432000163201714120161412017141201729000 14822   00VAN     99945   201703310000000000000000021POUROS              POUROS LEA                         5153 SIMEON BURGS                                                     GERMANTOWN                    NJ07001    FER0012                       NJ1234                        00000000          00000000          000000000000   D
NJT68HFS    00NJT68HFS  00111409583570NJT2017052679838432000163201714120161412017141201729000 14822   00VAN     99945   201703310000000000000000021OKON                OKON ARNOLDO                       3873 CURTIS SUMMIT                                                    GERMANTOWN                    NJ07001    FER0012                       NJ1234                        00000000          00000000          000000000000   D
NJY41JYV    00NJY41JYV  00111409583571NJT2017052679838432000163201714120161412017141201729000 14822   00VAN     99945   201703310000000000000000021REINGER             REINGER LINNEA                     4710 KATRINA PLAINS                                                   GERMANTOWN                    NJ07001    FER0012                       NJ1234                        00000000          00000000          000000000000   D
NJXGFW18    00NJXGFW18  00111409583572NJT2017052679838432000163201714120161412017141201729000 14822   00VAN     99945   201703310000000000000000021KOZEY               KOZEY REBECA                       5868 LEANN MOUNTAIN                                                   GERMANTOWN                    NJ07001    FER0012                       NJ1234                        00000000          00000000          000000000000   D
NJZTX61T    00NJZTX61T  00111409583575NJT2017052679838432000163201714120161412017141201729000 14822   00VAN     99945   201703310000000000000000021ZEMLAK              ZEMLAK TROY                        639 SHANAHAN ORCHARD                                                  GERMANTOWN                    NJ07001    FER0012                       NJ1234                        00000000          00000000          000000000000   D
PAZLD0372   00PAZLD0372 00111409583576NJT2017052679838432000163201714120161412017141201729000 14822   00VAN     99945   201703310000000000000000021MILLS               MILLS GREGG                        27472 WIZA MANOR                                                      GERMANTOWN                    NJ07001    FER0012                       NJ1234                        00000000          00000000          000000000000   D
NJN80GMP    00NJN80GMP  00111409583577NJT2017052679838432000163201714120161412017141201729000 14822   00VAN     99945   201703310000000000000000021LEANNON             LEANNON HARVEY                     11424 BROWN SPRING                                                    GERMANTOWN                    NJ07001    FER0012                       NJ1234                        00000000          00000000          000000000000   D
NJG16JGF    00NJG16JGF  00111409583578NJT2017052679838432000163201714120161412017141201729000 14822   00VAN     99945   201703310000000000000000021EFFERTZ             EFFERTZ KRYSTAL                    351 ZIEME MOTORWAY                                                    GERMANTOWN                    NJ07001    FER0012                       NJ1234                        00000000          00000000          000000000000   D
NJE88JXX    00NJE88JXX  00111409583579NJT2017052679838432000163201714120161412017141201729000 14822   00VAN     99945   201703310000000000000000021GLOVER              GLOVER SEAN                        9782 JERAD STRAVENUE                                                  GERMANTOWN                    NJ07001    FER0012                       NJ1234                        00000000          00000000          000000000000   D
NJXBMS70    00NJXBMS70  00111409583580NJT2017052679838432000163201714120161412017141201729000 14822   00VAN     99945   201703310000000000000000021HERMANN             HERMANN EULALIA                    2339 SWANIAWSKI CROSSING                                              GERMANTOWN                    NJ07001    FER0012                       NJ1234                        00000000          00000000          000000000000   D
NJULL62K    00NJULL62K  00111409583582NJT2017052679838432000163201714120161412017141201729000 14822   00VAN     99945   201703310000000000000000021ABSHIRE             ABSHIRE LUCIANO                    0279 RIGOBERTO TRAIL                                                  GERMANTOWN                    NJ07001    FER0012                       NJ1234                        00000000          00000000          000000000000   D
NJA11LBT    00NJA11LBT  00111409583583NJT2017052679838432000163201714120161412017141201729000 14822   00VAN     99945   201703310000000000000000021BECKER              BECKER HELOISE                     19013 FRANECKI LAKES                                                  GERMANTOWN                    NJ07001    FER0012                       NJ1234                        00000000          00000000          000000000000   D
NJZME25R    00NJZME25R  00111409583584NJT2017052679838432000163201714120161412017141201729000 14822   00VAN     99945   201703310000000000000000021KLOCKO              KLOCKO JACKIE                      804 TERRELL WELL                                                      GERMANTOWN                    NJ07001    FER0012                       NJ1234                        00000000          00000000          000000000000   D
NJXHHR29    00NJXHHR29  00111409583585NJT2017052679838432000163201714120161412017141201729000 14822   00VAN     99945   201703310000000000000000021KOZEY               KOZEY LUCY                         43245 WILL KEYS                                                       GERMANTOWN                    NJ07001    FER0012                       NJ1234                        00000000          00000000          000000000000   D
NJY58HUW    00NJY58HUW  00111409583586NJT2017052679838432000163201714120161412017141201729000 14822   00VAN     99945   201703310000000000000000021PROHASKA            PROHASKA JAIDA                     588 JAMEL TURNPIKE                                                    GERMANTOWN                    NJ07001    FER0012                       NJ1234                        00000000          00000000          000000000000   D
NJA24GXL    00NJA24GXL  00111409583587NJT2017052679838432000163201714120161412017141201729000 14822   00VAN     99945   201703310000000000000000021GRAHAM              GRAHAM CONCEPCION                  136 SANTIAGO DALE                                                     GERMANTOWN                    NJ07001    FER0012                       NJ1234                        00000000          00000000          000000000000   D
NJB21DNC    00NJB21DNC  00111409583588NJT2017052679838432000163201714120161412017141201729000 14822   00VAN     99945   201703310000000000000000021BOGAN               BOGAN DAISHA                       8102 ROBERTS ESTATE                                                   GERMANTOWN                    NJ07001    FER0012                       NJ1234                        00000000          00000000          000000000000   D
NJV34HPB    00NJV34HPB  00111409583590NJT2017052679838432000163201714120161412017141201729000 14822   00VAN     99945   201703310000000000000000021HAND                HAND ESTEFANIA                     99739 HILLS LIGHTS                                                    GERMANTOWN                    NJ07001    FER0012                       NJ1234                        00000000          00000000          000000000000   D
NJPZS82M    00NJPZS82M  00111409583592NJT2017052679838432000163201714120161412017141201729000 14822   00VAN     99945   201703310000000000000000021BRAUN               BRAUN GRANT                        8760 DORIAN SPUR                                                      GERMANTOWN                    NJ07001    FER0012                       NJ1234                        00000000          00000000          000000000000   D
MIDFB3273   00MIDFB3273 00111409583593NJT2017052679838432000163201714120161412017141201729000 14822   00VAN     99945   201703310000000000000000021NICOLAS             NICOLAS DORA                       5918 KERLUKE ISLANDS                                                  GERMANTOWN                    NJ07001    FER0012                       NJ1234                        00000000          00000000          000000000000   D
NJP46HYA    00NJP46HYA  00111409583594NJT2017052679838432000163201714120161412017141201729000 14822   00VAN     99945   201703310000000000000000021CORWIN              CORWIN UBALDO                      6858 TRE CANYON                                                       GERMANTOWN                    NJ07001    FER0012                       NJ1234                        00000000          00000000          000000000000   D
NJY23GXK    00NJY23GXK  00111409583595NJT2017052679838432000163201714120161412017141201729000 14822   00VAN     99945   201703310000000000000000021LEMKE               LEMKE LUCAS                        138 ROSENBAUM MOUNTAINS                                               GERMANTOWN                    NJ07001    FER0012                       NJ1234                        00000000          00000000          000000000000   D
NJH38GYB    00NJH38GYB  00111409583596NJT2017052679838432000163201714120161412017141201729000 14822   00VAN     99945   201703310000000000000000021GRANT               GRANT MARINA                       21631 SOPHIA WELL                                                     GERMANTOWN                    NJ07001    FER0012                       NJ1234                        00000000          00000000          000000000000   D
NJU72KLS    00NJU72KLS  00111409583597NJT2017052679838432000163201714120161412017141201729000 14822   00VAN     99945   201703310000000000000000021BROWN               BROWN MAEVE                        085 AUGUST HAVEN                                                      GERMANTOWN                    NJ07001    FER0012                       NJ1234                        00000000          00000000          000000000000   D
