NJVC3AP1    00NJVC3AP1  00113079822579NJT2017052679838432000163201714120161412017141201729000 14822   00VAN     99945   201703310000000000000000021BLICK               BLICK BELL                         680 LAYNE HIGHWAY                                                     NEWARK                        NJ07114    FER0012                       NJ1234                        00000000          00000000          000000000000   D
NJVC3AP4    00NJVC3AP4  00113079822592NJT2017052679838432000163201714120161412017141201729000 14822   00VAN     99945   201703310000000000000000021MORAR               MORAR IRMA                         8162 BEAHAN MEWS                                                      NEWARK                        NJ07114    FER0012                       NJ1234                        00000000          00000000          000000000000   D
NJVC3AP2    00NJVC3AP2  00113079822598NJT2017052679838432000163201714120161412017141201729000 14822   00VAN     99945   201703310000000000000000021PARISIAN            PARISIAN PEARL                     9135 BERNARD DRIVES                                                   NEWARK                        NJ07114    FER0012                       NJ1234                        00000000          00000000          000000000000   D
NJVC3AP3    00NJVC3AP3  00113079822601NJT2017052679838432000163201714120161412017141201729000 14822   00VAN     99945   201703310000000000000000021SCHROEDER           SCHROEDER BERNARD                  447 LOCKMAN WELLS                                                     NEWARK                        NJ07114    FER0012                       NJ1234                        00000000          00000000          000000000000   D
