NJK9LS1     00NJK9LS1   00113079454909NJT2017052679838432000163201714120161412017141201729000 14822   00VAN     99945   201703310000000000000000021TRANTOW             TRANTOW MONIQUE                    076 STARK HEIGHTS                                                     NEWARK                        NJ07114    FER0012                       NJ1234                        00000000          00000000          000000000000   D
NJK9LS2     00NJK9LS2   00113079454915NJT2017052679838432000163201714120161412017141201729000 14822   00VAN     99945   201703310000000000000000021GUTKOWSKI           GUTKOWSKI BERNITA                  54426 CYRIL PINE                                                      NEWARK                        NJ07114    FER0012                       NJ1234                        00000000          00000000          000000000000   D
NJK9LS3     00NJK9LS3   00113079454919NJT2017052679838432000163201714120161412017141201729000 14822   00VAN     99945   201703310000000000000000021STROSIN             STROSIN LIZETH                     53196 ROWE PASSAGE                                                    NEWARK                        NJ07114    FER0012                       NJ1234                        00000000          00000000          000000000000   D
