NJ18197M1   00NJ18197M1 00111408993166NJT2017052679838432000163201714120161412017141201729000 14822   00VAN     99945   201703310000000000000000021SETU                SETU NPOLO                         480 NEPTUNE AVE                                                       LONG BRANCH                   NJ07740    FER0012                       NJ1234                        00000000          00000000          000000000000   D
NJL513878   00NJL513878 00111408993167NJT2017052679838432000163201714120161412017141201729000 14822   00VAN     99945   201703310000000000000000021PADRAN              PADRAN RUFSAN                      203 N SUMNER AVE                                                      MARGATE CITY                  NJ08402    FER0012                       NJ1234                        00000000          00000000          000000000000   D
NJN30EXG    00NJN30EXG  00111408993168NJT2017052679838432000163201714120161412017141201729000 14822   00VAN     99945   201703310000000000000000021QUREISHI            QUREISHI JALALUDDI M               10 MIAMI TRL                                                          ROCKAWAY                      NJ07866    FER0012                       NJ1234                        00000000          00000000          000000000000   D
NJWNH13Z    00NJWNH13Z  00111408993169NJT2017052679838432000163201714120161412017141201729000 14822   00VAN     99945   201703310000000000000000021LUIGI               LUIGI TERENCE                      15 JULIE DR                                                           EDISON                        NJ08820    FER0012                       NJ1234                        00000000          00000000          000000000000   D
