NJPO3P1A    00NJPO3P1A  00111408993249NJT2017052679838432000163201714120161412017141201729000 14822   00VAN     99945   201703310000000000000000021HAKUNA              HAKUNA ONE                         GULMOHAR STREET1                                                      GERMANTOWN                    NJ07001    FER0012                       NJ1234                        00000000          00000000          000000000000   D
NJPO3P1B    00NJPO3P1B  00111408993237NJT2017052679838432000163201714120161412017141201729000 14822   00VAN     99945   201703310000000000000000021HAKUNA              HAKUNA TWO                         GULMOHAR STREET2                                                      GERMANTOWN                    NJ07001    FER0012                       NJ1234                        00000000          00000000          000000000000   D
NJPO3P1C    00NJPO3P1C  00111408993240NJT2017052679838432000163201714120161412017141201729000 14822   00VAN     99945   201703310000000000000000021HAKUNA              HAKUNA THREE                       GULMOHAR STREET3                                                      GERMANTOWN                    NJ07001    FER0012                       NJ1234                        00000000          00000000          000000000000   D
NJPO3P1D    00NJPO3P1D  00111408993244NJT2017052679838432000163201714120161412017141201729000 14822   00VAN     99945   201703310000000000000000021HAUKNA              HAUKNA FOUR                        GULMOHAR STREET4                                                      GERMANTOWN                    NJ07001    FER0012                       NJ1234                        00000000          00000000          000000000000   D
