NJAKM911    00NJAKM911  00113078828438NJT2017052679838432000163201714120161412017141201729000 14822   00VAN     99945   201703310000000000000000021DAVIS               DAVIS AMBER                        38074 RITCHIE VALLEY                                                  GERMANTOWN                    NJ07001    FER0012                       NJ1234                        00000000          00000000          000000000000   D
NJAKM912    00NJAKM912  00113078828442NJT2017052679838432000163201714120161412017141201729000 14822   00VAN     99945   201703310000000000000000021OKUNEVA             OKUNEVA ELISEO                     5137 LUBOWITZ BURG                                                    GERMANTOWN                    NJ07001    FER0012                       NJ1234                        00000000          00000000          000000000000   D
NJAKM913    00NJAKM913  00113078828446NJT2017052679838432000163201714120161412017141201729000 14822   00VAN     99945   201703310000000000000000021HERMISTON           HERMISTON DOMINIC                  90066 ARNULFO GARDEN                                                  GERMANTOWN                    NJ07001    FER0012                       NJ1234                        00000000          00000000          000000000000   D
NJAKM914    00NJAKM914  00113078828452NJT2017052679838432000163201714120161412017141201729000 14822   00VAN     99945   201703310000000000000000021MCDERMOTT           MCDERMOTT DIXIE                    05480 RUNTE SKYWAY                                                    GERMANTOWN                    NJ07001    FER0012                       NJ1234                        00000000          00000000          000000000000   D
NJAKM915    00NJAKM915  00113078828456NJT2017052679838432000163201714120161412017141201729000 14822   00VAN     99945   201703310000000000000000021SPINKA              SPINKA JESSICA                     96577 LUEILWITZ PRAIRIE                                               GERMANTOWN                    NJ07001    FER0012                       NJ1234                        00000000          00000000          000000000000   D
