NYDBK8P01   00NYDBK8P01 00111409269689NJT2017052679838432000163201714120161412017141201729000 14822   00VAN     99945   201703310000000000000000021BORER               BORER EMERALD                      96098 BECHTELAR ESTATE                                                GERMANTOWN                    NJ07001    FER0012                       NJ1234                        00000000          00000000          000000000000   D
NYDBK8P02   00NYDBK8P02 00111409269692NJT2017052679838432000163201714120161412017141201729000 14822   00VAN     99945   201703310000000000000000021HERMANN             HERMANN NELLE                      509 CONN GARDEN                                                       GERMANTOWN                    NJ07001    FER0012                       NJ1234                        00000000          00000000          000000000000   D
NYDBK8P03   00NYDBK8P03 00111409269694NJT2017052679838432000163201714120161412017141201729000 14822   00VAN     99945   201703310000000000000000021FEEST               FEEST MACY                         61453 DEVIN VILLAGE                                                   GERMANTOWN                    NJ07001    FER0012                       NJ1234                        00000000          00000000          000000000000   D
NYDBK8P04   00NYDBK8P04 00111409269696NJT2017052679838432000163201714120161412017141201729000 14822   00VAN     99945   201703310000000000000000021TURCOTTE            TURCOTTE PERCY                     9770 GREENHOLT DRIVE                                                  GERMANTOWN                    NJ07001    FER0012                       NJ1234                        00000000          00000000          000000000000   D
