NJLS01HK    00NJLS01HK  00111409043511NJT2017052679838432000163201714120161412017141201729000 14822   00VAN     99945   201703310000000000000000021HKONE               HKONE LESS                         NO 767, GULMOHAR STREET                                               GERMANTOWN                    NJ07001    FER0012                       NJ1234                        00000000          00000000          000000000000   D
NJLS02HK    00NJLS02HK  00111409043520NJT2017052679838432000163201714120161412017141201729000 14822   00VAN     99945   201703310000000000000000021HKTWO               HKTWO LESS                         NO 768, GULMOHAR STREET                                               GERMANTOWN                    NJ07001    FER0012                       NJ1234                        00000000          00000000          000000000000   D
NJLS03HK    00NJLS03HK  00111409043522NJT2017052679838432000163201714120161412017141201729000 14822   00VAN     99945   201703310000000000000000021HKTHREE             HKTHREE LESS                       NO 769, GULMOHAR STREET                                               GERMANTOWN                    NJ07001    FER0012                       NJ1234                        00000000          00000000          000000000000   D
