NJKLD7P1    00NJKLD7P1  00111409481401NJT2017052679838432000163201714120161412017141201729000 14822   00VAN     99945   201703310000000000000000021LEHNER              LEHNER GAYLE                       13747 HYATT TURNPIKE                                                  GERMANTOWN                    NJ07001    FER0012                       NJ1234                        00000000          00000000          000000000000   D
NJKLD7P2    00NJKLD7P2  00111409481404NJT2017052679838432000163201714120161412017141201729000 14822   00VAN     99945   201703310000000000000000021BEAHAN              BEAHAN MICHAELA                    124 BARTELL ROAD                                                      GERMANTOWN                    NJ07001    FER0012                       NJ1234                        00000000          00000000          000000000000   D
NJKLD7P3    00NJKLD7P3  00111409481410NJT2017052679838432000163201714120161412017141201729000 14822   00VAN     99945   201703310000000000000000021RATKE               RATKE STEPHANIA                    5102 JENNIE FORKS                                                     GERMANTOWN                    NJ07001    FER0012                       NJ1234                        00000000          00000000          000000000000   D
NJKLD7P4    00NJKLD7P4  00111409481414NJT2017052679838432000163201714120161412017141201729000 14822   00VAN     99945   201703310000000000000000021MORISSETTE          MORISSETTE ELIEZER                 8395 SPENCER GREENS                                                   GERMANTOWN                    NJ07001    FER0012                       NJ1234                        00000000          00000000          000000000000   D
