NJNHI6P01   00NJNHI6P01 00111409287904NJT2017052679838432000163201714120161412017141201729000 14822   00VAN     99945   201703310000000000000000021SWIFT               SWIFT KAYLEE                       4241 LITTLE OVERPASS                                                  GERMANTOWN                    NJ07001    FER0012                       NJ1234                        00000000          00000000          000000000000   D
NJNHI6P02   00NJNHI6P02 00111409287911NJT2017052679838432000163201714120161412017141201729000 14822   00VAN     99945   201703310000000000000000021KONOPELSKI          KONOPELSKI PROVIDENCI              9651 LERA ROAD                                                        GERMANTOWN                    NJ07001    FER0012                       NJ1234                        00000000          00000000          000000000000   D
NJNHI6P03   00NJNHI6P03 00111409287914NJT2017052679838432000163201714120161412017141201729000 14822   00VAN     99945   201703310000000000000000021RUTHERFORD          RUTHERFORD CLAUDIE                 821 OSINSKI COURTS                                                    GERMANTOWN                    NJ07001    FER0012                       NJ1234                        00000000          00000000          000000000000   D
NJNHI6P04   00NJNHI6P04 00111409287919NJT2017052679838432000163201714120161412017141201729000 14822   00VAN     99945   201703310000000000000000021SHANAHAN            SHANAHAN ELLEN                     02643 HALEY REST                                                      GERMANTOWN                    NJ07001    FER0012                       NJ1234                        00000000          00000000          000000000000   D
NJNHI6P05   00NJNHI6P05 00111409287920NJT2017052679838432000163201714120161412017141201729000 14822   00VAN     99945   201703310000000000000000021FRIESEN             FRIESEN ALBERTHA                   8713 ROWE VIEWS                                                       GERMANTOWN                    NJ07001    FER0012                       NJ1234                        00000000          00000000          000000000000   D
