NJAUTO8P01  00NJAUTO8P0100111409268599NJT2017052679838432000163201714120161412017141201729000 14822   00VAN     99945   201703310000000000000000021HAZARD              HAZARD SIKA                        480 NEPTUNE AVE NO 1                                                  GERMANTOWN                    NJ07001    FER0012                       NJ1234                        00000000          00000000          000000000000   D
NJAUTO8P02  00NJAUTO8P0200111409268605NJT2017052679838432000163201714120161412017141201729000 14822   00VAN     99945   201703310000000000000000021HAZARD              HAZARD SIKA                        480 NEPTUNE AVE NO 1                                                  GERMANTOWN                    NJ07001    FER0012                       NJ1234                        00000000          00000000          000000000000   D
NJAUTO8P03  00NJAUTO8P0300111409268606NJT2017052679838432000163201714120161412017141201729000 14822   00VAN     99945   201703310000000000000000021HAZARD              HAZARD SIKA                        480 NEPTUNE AVE NO 1                                                  GERMANTOWN                    NJ07001    FER0012                       NJ1234                        00000000          00000000          000000000000   D
NJAUTO8P04  00NJAUTO8P0400111409268611NJT2017052679838432000163201714120161412017141201729000 14822   00VAN     99945   201703310000000000000000021HAZARD              HAZARD SIKA                        480 NEPTUNE AVE NO 1                                                  GERMANTOWN                    NJ07001    FER0012                       NJ1234                        00000000          00000000          000000000000   D
NJAUTO8P05  00NJAUTO8P0500111409268616NJT2017052679838432000163201714120161412017141201729000 14822   00VAN     99945   201703310000000000000000021HAZARD              HAZARD SIKA                        480 NEPTUNE AVE NO 1                                                  GERMANTOWN                    NJ07001    FER0012                       NJ1234                        00000000          00000000          000000000000   D
NJAUTO8P06  00NJAUTO8P0600111409268623NJT2017052679838432000163201714120161412017141201729000 14822   00VAN     99945   201703310000000000000000021HAZARD              HAZARD SIKA                        480 NEPTUNE AVE NO 1                                                  GERMANTOWN                    NJ07001    FER0012                       NJ1234                        00000000          00000000          000000000000   D
NJAUTO8P07  00NJAUTO8P0700111409268628NJT2017052679838432000163201714120161412017141201729000 14822   00VAN     99945   201703310000000000000000021HAZARD              HAZARD SIKA                        480 NEPTUNE AVE NO 1                                                  GERMANTOWN                    NJ07001    FER0012                       NJ1234                        00000000          00000000          000000000000   D
NJAUTO8P08  00NJAUTO8P0800111409268633NJT2017052679838432000163201714120161412017141201729000 14822   00VAN     99945   201703310000000000000000021HAZARD              HAZARD SIKA                        480 NEPTUNE AVE NO 1                                                  GERMANTOWN                    NJ07001    FER0012                       NJ1234                        00000000          00000000          000000000000   D
NJAUTO8P09  00NJAUTO8P0900111409268639NJT2017052679838432000163201714120161412017141201729000 14822   00VAN     99945   201703310000000000000000021HAZARD              HAZARD SIKA                        480 NEPTUNE AVE NO 1                                                  GERMANTOWN                    NJ07001    FER0012                       NJ1234                        00000000          00000000          000000000000   D
NJAUTO8P10  00NJAUTO8P1000111409268641NJT2017052679838432000163201714120161412017141201729000 14822   00VAN     99945   201703310000000000000000021HAZARD              HAZARD SIKA                        480 NEPTUNE AVE NO 1                                                  GERMANTOWN                    NJ07001    FER0012                       NJ1234                        00000000          00000000          000000000000   D
NJAUTO8P11  00NJAUTO8P1100111409268415NJT2017052679838432000163201714120161412017141201729000 14822   00VAN     99945   201703310000000000000000021HAZARD              HAZARD SIKA                        480 NEPTUNE AVE NO 1                                                  GERMANTOWN                    NJ07001    FER0012                       NJ1234                        00000000          00000000          000000000000   D
NJAUTO8P12  00NJAUTO8P1200111409268420NJT2017052679838432000163201714120161412017141201729000 14822   00VAN     99945   201703310000000000000000021HAZARD              HAZARD SIKA                        480 NEPTUNE AVE NO 1                                                  GERMANTOWN                    NJ07001    FER0012                       NJ1234                        00000000          00000000          000000000000   D
NJAUTO8P13  00NJAUTO8P1300111409268428NJT2017052679838432000163201714120161412017141201729000 14822   00VAN     99945   201703310000000000000000021HAZARD              HAZARD SIKA                        480 NEPTUNE AVE NO 1                                                  GERMANTOWN                    NJ07001    FER0012                       NJ1234                        00000000          00000000          000000000000   D
NJAUTO8P14  00NJAUTO8P1400111409268429NJT2017052679838432000163201714120161412017141201729000 14822   00VAN     99945   201703310000000000000000021HAZARD              HAZARD SIKA                        480 NEPTUNE AVE NO 1                                                  GERMANTOWN                    NJ07001    FER0012                       NJ1234                        00000000          00000000          000000000000   D
NJAUTO8P15  00NJAUTO8P1500111409268435NJT2017052679838432000163201714120161412017141201729000 14822   00VAN     99945   201703310000000000000000021HAZARD              HAZARD SIKA                        480 NEPTUNE AVE NO 1                                                  GERMANTOWN                    NJ07001    FER0012                       NJ1234                        00000000          00000000          000000000000   D
NJAUTO8P16  00NJAUTO8P1600111409268443NJT2017052679838432000163201714120161412017141201729000 14822   00VAN     99945   201703310000000000000000021HAZARD              HAZARD SIKA                        480 NEPTUNE AVE NO 1                                                  GERMANTOWN                    NJ07001    FER0012                       NJ1234                        00000000          00000000          000000000000   D
NJAUTO8P17  00NJAUTO8P1700111409268445NJT2017052679838432000163201714120161412017141201729000 14822   00VAN     99945   201703310000000000000000021HAZARD              HAZARD SIKA                        480 NEPTUNE AVE NO 1                                                  GERMANTOWN                    NJ07001    FER0012                       NJ1234                        00000000          00000000          000000000000   D
NJAUTO8P18  00NJAUTO8P1800111409268648NJT2017052679838432000163201714120161412017141201729000 14822   00VAN     99945   201703310000000000000000021HAZARD              HAZARD SIKA                        480 NEPTUNE AVE NO 1                                                  GERMANTOWN                    NJ07001    FER0012                       NJ1234                        00000000          00000000          000000000000   D
NJAUTO8P19  00NJAUTO8P1900111409268453NJT2017052679838432000163201714120161412017141201729000 14822   00VAN     99945   201703310000000000000000021HAZARD              HAZARD SIKA                        480 NEPTUNE AVE NO 1                                                  GERMANTOWN                    NJ07001    FER0012                       NJ1234                        00000000          00000000          000000000000   D
NJAUTO8P20  00NJAUTO8P2000111409268456NJT2017052679838432000163201714120161412017141201729000 14822   00VAN     99945   201703310000000000000000021HAZARD              HAZARD SIKA                        480 NEPTUNE AVE NO 1                                                  GERMANTOWN                    NJ07001    FER0012                       NJ1234                        00000000          00000000          000000000000   D
NJAUTO8P21  00NJAUTO8P2100111409268464NJT2017052679838432000163201714120161412017141201729000 14822   00VAN     99945   201703310000000000000000021HAZARD              HAZARD SIKA                        480 NEPTUNE AVE NO 1                                                  GERMANTOWN                    NJ07001    FER0012                       NJ1234                        00000000          00000000          000000000000   D
NJAUTO8P22  00NJAUTO8P2200111409268465NJT2017052679838432000163201714120161412017141201729000 14822   00VAN     99945   201703310000000000000000021HAZARD              HAZARD SIKA                        480 NEPTUNE AVE NO 1                                                  GERMANTOWN                    NJ07001    FER0012                       NJ1234                        00000000          00000000          000000000000   D
NJAUTO8P23  00NJAUTO8P2300111409268471NJT2017052679838432000163201714120161412017141201729000 14822   00VAN     99945   201703310000000000000000021HAZARD              HAZARD SIKA                        480 NEPTUNE AVE NO 1                                                  GERMANTOWN                    NJ07001    FER0012                       NJ1234                        00000000          00000000          000000000000   D
NJAUTO8P24  00NJAUTO8P2400111409268478NJT2017052679838432000163201714120161412017141201729000 14822   00VAN     99945   201703310000000000000000021HAZARD              HAZARD SIKA                        480 NEPTUNE AVE NO 1                                                  GERMANTOWN                    NJ07001    FER0012                       NJ1234                        00000000          00000000          000000000000   D
NJAUTO8P25  00NJAUTO8P2500111409268482NJT2017052679838432000163201714120161412017141201729000 14822   00VAN     99945   201703310000000000000000021HAZARD              HAZARD SIKA                        480 NEPTUNE AVE NO 1                                                  GERMANTOWN                    NJ07001    FER0012                       NJ1234                        00000000          00000000          000000000000   D
NJAUTO8P26  00NJAUTO8P2600111409268489NJT2017052679838432000163201714120161412017141201729000 14822   00VAN     99945   201703310000000000000000021HAZARD              HAZARD SIKA                        480 NEPTUNE AVE NO 1                                                  GERMANTOWN                    NJ07001    FER0012                       NJ1234                        00000000          00000000          000000000000   D
NJAUTO8P27  00NJAUTO8P2700111409268492NJT2017052679838432000163201714120161412017141201729000 14822   00VAN     99945   201703310000000000000000021HAZARD              HAZARD SIKA                        480 NEPTUNE AVE NO 1                                                  GERMANTOWN                    NJ07001    FER0012                       NJ1234                        00000000          00000000          000000000000   D
NJAUTO8P28  00NJAUTO8P2800111409268497NJT2017052679838432000163201714120161412017141201729000 14822   00VAN     99945   201703310000000000000000021HAZARD              HAZARD SIKA                        480 NEPTUNE AVE NO 1                                                  GERMANTOWN                    NJ07001    FER0012                       NJ1234                        00000000          00000000          000000000000   D
NJAUTO8P29  00NJAUTO8P2900111409268503NJT2017052679838432000163201714120161412017141201729000 14822   00VAN     99945   201703310000000000000000021HAZARD              HAZARD SIKA                        480 NEPTUNE AVE NO 1                                                  GERMANTOWN                    NJ07001    FER0012                       NJ1234                        00000000          00000000          000000000000   D
NJAUTO8P30  00NJAUTO8P3000111409268507NJT2017052679838432000163201714120161412017141201729000 14822   00VAN     99945   201703310000000000000000021HAZARD              HAZARD SIKA                        480 NEPTUNE AVE NO 1                                                  GERMANTOWN                    NJ07001    FER0012                       NJ1234                        00000000          00000000          000000000000   D
NJAUTO8P31  00NJAUTO8P3100111409268514NJT2017052679838432000163201714120161412017141201729000 14822   00VAN     99945   201703310000000000000000021HAZARD              HAZARD SIKA                        480 NEPTUNE AVE NO 1                                                  GERMANTOWN                    NJ07001    FER0012                       NJ1234                        00000000          00000000          000000000000   D
NJAUTO8P32  00NJAUTO8P3200111409268518NJT2017052679838432000163201714120161412017141201729000 14822   00VAN     99945   201703310000000000000000021HAZARD              HAZARD SIKA                        480 NEPTUNE AVE NO 1                                                  GERMANTOWN                    NJ07001    FER0012                       NJ1234                        00000000          00000000          000000000000   D
NJAUTO8P33  00NJAUTO8P3300111409268521NJT2017052679838432000163201714120161412017141201729000 14822   00VAN     99945   201703310000000000000000021HAZARD              HAZARD SIKA                        480 NEPTUNE AVE NO 1                                                  GERMANTOWN                    NJ07001    FER0012                       NJ1234                        00000000          00000000          000000000000   D
NJAUTO8P34  00NJAUTO8P3400111409268527NJT2017052679838432000163201714120161412017141201729000 14822   00VAN     99945   201703310000000000000000021HAZARD              HAZARD SIKA                        480 NEPTUNE AVE NO 1                                                  GERMANTOWN                    NJ07001    FER0012                       NJ1234                        00000000          00000000          000000000000   D
NJAUTO8P35  00NJAUTO8P3500111409268531NJT2017052679838432000163201714120161412017141201729000 14822   00VAN     99945   201703310000000000000000021HAZARD              HAZARD SIKA                        480 NEPTUNE AVE NO 1                                                  GERMANTOWN                    NJ07001    FER0012                       NJ1234                        00000000          00000000          000000000000   D
NJAUTO8P36  00NJAUTO8P3600111409268535NJT2017052679838432000163201714120161412017141201729000 14822   00VAN     99945   201703310000000000000000021HAZARD              HAZARD SIKA                        480 NEPTUNE AVE NO 1                                                  GERMANTOWN                    NJ07001    FER0012                       NJ1234                        00000000          00000000          000000000000   D
NJAUTO8P37  00NJAUTO8P3700111409268540NJT2017052679838432000163201714120161412017141201729000 14822   00VAN     99945   201703310000000000000000021HAZARD              HAZARD SIKA                        480 NEPTUNE AVE NO 1                                                  GERMANTOWN                    NJ07001    FER0012                       NJ1234                        00000000          00000000          000000000000   D
NJAUTO8P38  00NJAUTO8P3800111409268546NJT2017052679838432000163201714120161412017141201729000 14822   00VAN     99945   201703310000000000000000021HAZARD              HAZARD SIKA                        480 NEPTUNE AVE NO 1                                                  GERMANTOWN                    NJ07001    FER0012                       NJ1234                        00000000          00000000          000000000000   D
NJAUTO8P39  00NJAUTO8P3900111409268552NJT2017052679838432000163201714120161412017141201729000 14822   00VAN     99945   201703310000000000000000021HAZARD              HAZARD SIKA                        480 NEPTUNE AVE NO 1                                                  GERMANTOWN                    NJ07001    FER0012                       NJ1234                        00000000          00000000          000000000000   D
NJAUTO8P40  00NJAUTO8P4000111409268555NJT2017052679838432000163201714120161412017141201729000 14822   00VAN     99945   201703310000000000000000021HAZARD              HAZARD SIKA                        480 NEPTUNE AVE NO 1                                                  GERMANTOWN                    NJ07001    FER0012                       NJ1234                        00000000          00000000          000000000000   D
NJAUTO8P41  00NJAUTO8P4100111409268563NJT2017052679838432000163201714120161412017141201729000 14822   00VAN     99945   201703310000000000000000021HAZARD              HAZARD SIKA                        480 NEPTUNE AVE NO 1                                                  GERMANTOWN                    NJ07001    FER0012                       NJ1234                        00000000          00000000          000000000000   D
NJAUTO8P42  00NJAUTO8P4200111409268568NJT2017052679838432000163201714120161412017141201729000 14822   00VAN     99945   201703310000000000000000021HAZARD              HAZARD SIKA                        480 NEPTUNE AVE NO 1                                                  GERMANTOWN                    NJ07001    FER0012                       NJ1234                        00000000          00000000          000000000000   D
NJAUTO8P43  00NJAUTO8P4300111409268573NJT2017052679838432000163201714120161412017141201729000 14822   00VAN     99945   201703310000000000000000021HAZARD              HAZARD SIKA                        480 NEPTUNE AVE NO 1                                                  GERMANTOWN                    NJ07001    FER0012                       NJ1234                        00000000          00000000          000000000000   D
NJAUTO8P44  00NJAUTO8P4400111409268578NJT2017052679838432000163201714120161412017141201729000 14822   00VAN     99945   201703310000000000000000021HAZARD              HAZARD SIKA                        480 NEPTUNE AVE NO 1                                                  GERMANTOWN                    NJ07001    FER0012                       NJ1234                        00000000          00000000          000000000000   D
NJAUTO8P45  00NJAUTO8P4500111409268584NJT2017052679838432000163201714120161412017141201729000 14822   00VAN     99945   201703310000000000000000021HAZARD              HAZARD SIKA                        480 NEPTUNE AVE NO 1                                                  GERMANTOWN                    NJ07001    FER0012                       NJ1234                        00000000          00000000          000000000000   D
NJAUTO8P46  00NJAUTO8P4600111409268587NJT2017052679838432000163201714120161412017141201729000 14822   00VAN     99945   201703310000000000000000021HAZARD              HAZARD SIKA                        480 NEPTUNE AVE NO 1                                                  GERMANTOWN                    NJ07001    FER0012                       NJ1234                        00000000          00000000          000000000000   D
NJAUTO8P47  00NJAUTO8P4700111409268590NJT2017052679838432000163201714120161412017141201729000 14822   00VAN     99945   201703310000000000000000021HAZARD              HAZARD SIKA                        480 NEPTUNE AVE NO 1                                                  GERMANTOWN                    NJ07001    FER0012                       NJ1234                        00000000          00000000          000000000000   D
NJAUTO8P48  00NJAUTO8P4800111409268653NJT2017052679838432000163201714120161412017141201729000 14822   00VAN     99945   201703310000000000000000021HAZARD              HAZARD SIKA                        480 NEPTUNE AVE NO 1                                                  GERMANTOWN                    NJ07001    FER0012                       NJ1234                        00000000          00000000          000000000000   D
NJAUTO8P49  00NJAUTO8P4900111409268659NJT2017052679838432000163201714120161412017141201729000 14822   00VAN     99945   201703310000000000000000021HAZARD              HAZARD SIKA                        480 NEPTUNE AVE NO 1                                                  GERMANTOWN                    NJ07001    FER0012                       NJ1234                        00000000          00000000          000000000000   D
NJAUTO8P50  00NJAUTO8P5000111409268662NJT2017052679838432000163201714120161412017141201729000 14822   00VAN     99945   201703310000000000000000021HAZARD              HAZARD SIKA                        480 NEPTUNE AVE NO 1                                                  GERMANTOWN                    NJ07001    FER0012                       NJ1234                        00000000          00000000          000000000000   D
