NJXCS13P1   00NJXCS13P1 00113078654760NJT2017052679838432000163201714120161412017141201729000 14822   00VAN     99945   201703310000000000000000021TERRY               TERRY CLARK                        752 NOEL SPRINGS                                                      GERMANTOWN                    NJ07001    FER0012                       NJ1234                        00000000          00000000          000000000000   D
NJXCS13P2   00NJXCS13P2 00113078654764NJT2017052679838432000163201714120161412017141201729000 14822   00VAN     99945   201703310000000000000000021PADBERG             PADBERG MAIYA                      3087 SHAYNE STREET                                                    GERMANTOWN                    NJ07001    FER0012                       NJ1234                        00000000          00000000          000000000000   D
NJXCS13P3   00NJXCS13P3 00113078654770NJT2017052679838432000163201714120161412017141201729000 14822   00VAN     99945   201703310000000000000000021CONSIDINE           CONSIDINE FLO                      65413 ANTONINA HEIGHTS                                                GERMANTOWN                    NJ07001    FER0012                       NJ1234                        00000000          00000000          000000000000   D
NJXCS13P4   00NJXCS13P4 00113078654772NJT2017052679838432000163201714120161412017141201729000 14822   00VAN     99945   201703310000000000000000021BAUCH               BAUCH HETTIE                       94021 ARMSTRONG CORNER                                                GERMANTOWN                    NJ07001    FER0012                       NJ1234                        00000000          00000000          000000000000   D
