NJPO1JA1    00NJPO1JA1  00113079260528NJT2017052679838432000163201714120161412017141201729000 14822   00VAN     99945   201703310000000000000000021BECKER              BECKER PAOLO                       0402 FLAVIO JUNCTIONS                                                 NEWARK                        NJ07114    FER0012                       NJ1234                        00000000          00000000          000000000000   D
NJPO1JA2    00NJPO1JA2  00113079260535NJT2017052679838432000163201714120161412017141201729000 14822   00VAN     99945   201703310000000000000000021GOLDNER             GOLDNER KRIS                       7637 BECKER PARKS                                                     NEWARK                        NJ07114    FER0012                       NJ1234                        00000000          00000000          000000000000   D
NJPO1JA3    00NJPO1JA3  00113079260536NJT2017052679838432000163201714120161412017141201729000 14822   00VAN     99945   201703310000000000000000021BERGE               BERGE BRETT                        982 FRANECKI SPRING                                                   NEWARK                        NJ07114    FER0012                       NJ1234                        00000000          00000000          000000000000   D
NJPO1JA4    00NJPO1JA4  00113079260542NJT2017052679838432000163201714120161412017141201729000 14822   00VAN     99945   201703310000000000000000021MUELLER             MUELLER DELPHINE                   8428 SANFORD CLIFFS                                                   NEWARK                        NJ07114    FER0012                       NJ1234                        00000000          00000000          000000000000   D
