NJBH89M1    00NJBH89M1  00113078660053NJT2017052679838432000163201714120161412017141201729000 14822   00VAN     99945   201703310000000000000000021GRANT               GRANT ELROY                        96960 LEMPI WAYS                                                      GERMANTOWN                    NJ07001    FER0012                       NJ1234                        00000000          00000000          000000000000   D
NJBH89M2    00NJBH89M2  00113078660058NJT2017052679838432000163201714120161412017141201729000 14822   00VAN     99945   201703310000000000000000021RITCHIE             RITCHIE PARIS                      05204 MARIETTA UNION                                                  GERMANTOWN                    NJ07001    FER0012                       NJ1234                        00000000          00000000          000000000000   D
NJBH89M3    00NJBH89M3  00113078660060NJT2017052679838432000163201714120161412017141201729000 14822   00VAN     99945   201703310000000000000000021FUNK                FUNK RAY                           3138 MARVIN CURVE                                                     GERMANTOWN                    NJ07001    FER0012                       NJ1234                        00000000          00000000          000000000000   D
NJBH89M4    00NJBH89M4  00113078660068NJT2017052679838432000163201714120161412017141201729000 14822   00VAN     99945   201703310000000000000000021LEHNER              LEHNER AMERICO                     319 BROWN SPURS                                                       GERMANTOWN                    NJ07001    FER0012                       NJ1234                        00000000          00000000          000000000000   D
NJBH89M5    00NJBH89M5  00113078660071NJT2017052679838432000163201714120161412017141201729000 14822   00VAN     99945   201703310000000000000000021PURDY               PURDY RODERICK                     921 RUTHERFORD CIRCLES                                                GERMANTOWN                    NJ07001    FER0012                       NJ1234                        00000000          00000000          000000000000   D
