NJAX8KM1    00NJAX8KM1  00113078660400NJT2017052679838432000163201714120161412017141201729000 14822   00VAN     99945   201703310000000000000000021HERMAN              HERMAN JABARI                      1808 DONNELL EXTENSION                                                GERMANTOWN                    NJ07001    FER0012                       NJ1234                        00000000          00000000          000000000000   D
NJAX8KM2    00NJAX8KM2  00113078660402NJT2017052679838432000163201714120161412017141201729000 14822   00VAN     99945   201703310000000000000000021HERMAN              HERMAN JABARI                      1808 DONNELL EXTENSION                                                GERMANTOWN                    NJ07001    FER0012                       NJ1234                        00000000          00000000          000000000000   D
NJAX8KM3    00NJAX8KM3  00113078660404NJT2017052679838432000163201714120161412017141201729000 14822   00VAN     99945   201703310000000000000000021HERMAN              HERMAN JABARI                      1808 DONNELL EXTENSION                                                GERMANTOWN                    NJ07001    FER0012                       NJ1234                        00000000          00000000          000000000000   D
NJAX8KM4    00NJAX8KM4  00113078660406NJT2017052679838432000163201714120161412017141201729000 14822   00VAN     99945   201703310000000000000000021CONNELLY            CONNELLY FREDERIQUE                9264 AURELIO RUE                                                      GERMANTOWN                    NJ07001    FER0012                       NJ1234                        00000000          00000000          000000000000   D
NJAX8KM5    00NJAX8KM5  00113078660409NJT2017052679838432000163201714120161412017141201729000 14822   00VAN     99945   201703310000000000000000021CONNELLY            CONNELLY FREDERIQUE                9264 AURELIO RUE                                                      GERMANTOWN                    NJ07001    FER0012                       NJ1234                        00000000          00000000          000000000000   D
NJAX8KM6    00NJAX8KM6  00113078660410NJT2017052679838432000163201714120161412017141201729000 14822   00VAN     99945   201703310000000000000000021CONNELLY            CONNELLY FREDERIQUE                9264 AURELIO RUE                                                      GERMANTOWN                    NJ07001    FER0012                       NJ1234                        00000000          00000000          000000000000   D
