NJSMSCP1    00NJSMSCP1  00111409575011NJT2017052679838432000163201714120161412017141201729000 14822   00VAN     99945   201703310000000000000000021SCHOEN              SCHOEN PAULINE                     84441 RUNTE FREEWAY                                                   GERMANTOWN                    NJ07001    FER0012                       NJ1234                        00000000          00000000          000000000000   D
NJSMSCP2    00NJSMSCP2  00111409575018NJT2017052679838432000163201714120161412017141201729000 14822   00VAN     99945   201703310000000000000000021RICE                RICE KOBE                          852 ANNE CORNERS                                                      GERMANTOWN                    NJ07001    FER0012                       NJ1234                        00000000          00000000          000000000000   D
NJSMSCP3    00NJSMSCP3  00111409575019NJT2017052679838432000163201714120161412017141201729000 14822   00VAN     99945   201703310000000000000000021WOLFF               WOLFF MAYE                         008 PURDY LOAF                                                        GERMANTOWN                    NJ07001    FER0012                       NJ1234                        00000000          00000000          000000000000   D
NJSMSCP4    00NJSMSCP4  00111409575023NJT2017052679838432000163201714120161412017141201729000 14822   00VAN     99945   201703310000000000000000021MONAHAN             MONAHAN FREDDY                     330 SAVANAH EXTENSIONS                                                GERMANTOWN                    NJ07001    FER0012                       NJ1234                        00000000          00000000          000000000000   D
NJSMSCP5    00NJSMSCP5  00111409575029NJT2017052679838432000163201714120161412017141201729000 14822   00VAN     99945   201703310000000000000000021WOLFF               WOLFF MACEY                        928 ROSENBAUM PORT                                                    GERMANTOWN                    NJ07001    FER0012                       NJ1234                        00000000          00000000          000000000000   D
