NJTOYP01    00NJTOYP01  00111409054703NJT2017052679838432000163201714120161412017141201729000 14822   00VAN     99945   201703310000000000000000021ZORABEIN            ZORABEIN MANU                      ZORABEIN STREET1                                                      GERMANTOWN                    NJ07001    FER0012                       NJ1234                        00000000          00000000          000000000000   D
NJTOYP02    00NJTOYP02  00111409054707NJT2017052679838432000163201714120161412017141201729000 14822   00VAN     99945   201703310000000000000000021ZORABEIN            ZORABEIN MANU                      ZORABEIN STREET1                                                      GERMANTOWN                    NJ07001    FER0012                       NJ1234                        00000000          00000000          000000000000   D
NJTOYP03    00NJTOYP03  00111409054712NJT2017052679838432000163201714120161412017141201729000 14822   00VAN     99945   201703310000000000000000021ZORABEIN            ZORABEIN MANU                      ZORABEIN STREET1                                                      GERMANTOWN                    NJ07001    FER0012                       NJ1234                        00000000          00000000          000000000000   D
NJTOYP04    00NJTOYP04  00111409054715NJT2017052679838432000163201714120161412017141201729000 14822   00VAN     99945   201703310000000000000000021ZORABEIN            ZORABEIN MANU                      ZORABEIN STREET1                                                      GERMANTOWN                    NJ07001    FER0012                       NJ1234                        00000000          00000000          000000000000   D
NJTOYP05    00NJTOYP05  00111409054721NJT2017052679838432000163201714120161412017141201729000 14822   00VAN     99945   201703310000000000000000021ZORABEIN            ZORABEIN MANU                      ZORABEIN STREET1                                                      GERMANTOWN                    NJ07001    FER0012                       NJ1234                        00000000          00000000          000000000000   D
NJTOYP06    00NJTOYP06  00111409054725NJT2017052679838432000163201714120161412017141201729000 14822   00VAN     99945   201703310000000000000000021ZORABEIN            ZORABEIN MANU                      ZORABEIN STREET1                                                      GERMANTOWN                    NJ07001    FER0012                       NJ1234                        00000000          00000000          000000000000   D
NJTOYP07    00NJTOYP07  00111409054732NJT2017052679838432000163201714120161412017141201729000 14822   00VAN     99945   201703310000000000000000021ZORABEIN            ZORABEIN MANU                      ZORABEIN STREET1                                                      GERMANTOWN                    NJ07001    FER0012                       NJ1234                        00000000          00000000          000000000000   D
NJTOYP08    00NJTOYP08  00111409054736NJT2017052679838432000163201714120161412017141201729000 14822   00VAN     99945   201703310000000000000000021ZORABEIN            ZORABEIN MANU                      ZORABEIN STREET1                                                      GERMANTOWN                    NJ07001    FER0012                       NJ1234                        00000000          00000000          000000000000   D
NJTOYP09    00NJTOYP09  00111409054739NJT2017052679838432000163201714120161412017141201729000 14822   00VAN     99945   201703310000000000000000021ZORABEIN            ZORABEIN MANU                      ZORABEIN STREET1                                                      GERMANTOWN                    NJ07001    FER0012                       NJ1234                        00000000          00000000          000000000000   D
NJTOYP10    00NJTOYP10  00111409054748NJT2017052679838432000163201714120161412017141201729000 14822   00VAN     99945   201703310000000000000000021ZORABEIN            ZORABEIN MANU                      ZORABEIN STREET1                                                      GERMANTOWN                    NJ07001    FER0012                       NJ1234                        00000000          00000000          000000000000   D
