NJTWO123    00NJTWO123  00111409477923NJT2017052679838432000163201714120161412017141201729000 14822   00VAN     99945   201703310000000000000000021KK                  KK KK                              25 PARK ST                                                            POESTENKILL                   NY12140    FER0012                       NJ1234                        00000000          00000000          000000000000   D
NJMK021     00NJMK021   00111409477927NJT2017052679838432000163201714120161412017141201729000 14822   00VAN     99945   201703310000000000000000021MK                  MK GK                              1234, MILESTONE                                                       AVENEL                        NJ07001    FER0012                       NJ1234                        00000000          00000000          000000000000   D
NJ578877    00NJ578877  00111409477935NJT2017052679838432000163201714120161412017141201729000 14822   00VAN     99945   201703310000000000000000021PAUL                PAUL JOHN                          101 SOUTH                                                             ATCO                          NJ08004    FER0012                       NJ1234                        00000000          00000000          000000000000   D
NJEW343     00NJEW343   00111409477938NJT2017052679838432000163201714120161412017141201729000 14822   00VAN     99945   201703310000000000000000021WE                  WE SDSD                            ERWEWR                             EWREW                              MARGATE CITY                  NJ08402    FER0012                       NJ1234                        00000000          00000000          000000000000   D
NJJAE1      00NJJAE1    00111409477942NJT2017052679838432000163201714120161412017141201729000 14822   00VAN     99945   201703310000000000000000021TAGSTATUS           TAGSTATUS TESTK                    800 MONTROSE AVE                   SOUTH PLAINFIELD                   SOUTH PLAINFIELD              NJ07080    FER0012                       NJ1234                        00000000          00000000          000000000000   D
NJKOKO10    00NJKOKO10  00111409477946NJT2017052679838432000163201714120161412017141201729000 14822   00VAN     99945   201703310000000000000000021KUO                 KUO DRYTWOCASH                     1010 FIFTH AVENUE                                                     EDISON                        NJ08820    FER0012                       NJ1234                        00000000          00000000          000000000000   D
NJUAT205    00NJUAT205  00111409477952NJT2017052679838432000163201714120161412017141201729000 14822   00VAN     99945   201703310000000000000000021DRYRUNTW            DRYRUNTW MANJU                     205 W STATE ST                                                        TRENTON                       NJ08608    FER0012                       NJ1234                        00000000          00000000          000000000000   D
NJIM469T    00NJIM469T  00111409477959NJT2017052679838432000163201714120161412017141201729000 14822   00VAN     99945   201703310000000000000000021DOUGHERTY           DOUGHERTY CHARLES N                37 CAMBRIDGE AVE                                                      GARDEN CITY                   NY11530    FER0012                       NJ1234                        00000000          00000000          000000000000   D
NJN87DMN    00NJN87DMN  00111409477961NJT2017052679838432000163201714120161412017141201729000 14822   00VAN     99945   201703310000000000000000021MISENTI             MISENTI SANTI A                     95 FENTON DR                                                         PENNS GROVE                   NJ08069    FER0012                       NJ1234                        00000000          00000000          000000000000   D
