NJFT567S    00NJFT567S  00113080878505NJT2017052679838432000163201714120161412017141201729000 14822   00VAN     99945   201703310000000000000000021WEHNER              WEHNER ARIELLE                     2126 GLADYCE CLUB                                                     NEWARK                        NJ07114    FER0012                       NJ1234                        00000000          00000000          000000000000   D
NJDGET47    00NJDGET47  00113080878506NJT2017052679838432000163201714120161412017141201729000 14822   00VAN     99945   201703310000000000000000021WEHNER              WEHNER ARIELLE                     2126 GLADYCE CLUB                                                     NEWARK                        NJ07114    FER0012                       NJ1234                        00000000          00000000          000000000000   D
NJJK46DF    00NJJK46DF  00113080878507NJT2017052679838432000163201714120161412017141201729000 14822   00VAN     99945   201703310000000000000000021WEHNER              WEHNER ARIELLE                     2126 GLADYCE CLUB                                                     NEWARK                        NJ07114    FER0012                       NJ1234                        00000000          00000000          000000000000   D
