NJPH0N1     00NJPH0N1   00111409294411NJT2017052679838432000163201714120161412017141201729000 14822   00VAN     99945   201703310000000000000000021HEGMANN             HEGMANN KENNA                      374 ADELL FOREST                                                      GERMANTOWN                    NJ07001    FER0012                       NJ1234                        00000000          00000000          000000000000   D
NJPH0N2     00NJPH0N2   00111409294416NJT2017052679838432000163201714120161412017141201729000 14822   00VAN     99945   201703310000000000000000021HOEGER              HOEGER SUSAN                       87937 ADELBERT ROADS                                                  GERMANTOWN                    NJ07001    FER0012                       NJ1234                        00000000          00000000          000000000000   D
NJPH0N3     00NJPH0N3   00111409294423NJT2017052679838432000163201714120161412017141201729000 14822   00VAN     99945   201703310000000000000000021OBERBRUNNER         OBERBRUNNER HELMER                 329 VON COVES                                                         GERMANTOWN                    NJ07001    FER0012                       NJ1234                        00000000          00000000          000000000000   D
NJPH0N4     00NJPH0N4   00111409294426NJT2017052679838432000163201714120161412017141201729000 14822   00VAN     99945   201703310000000000000000021SCHMELER            SCHMELER EMORY                     5752 DARYL GROVE                                                      GERMANTOWN                    NJ07001    FER0012                       NJ1234                        00000000          00000000          000000000000   D
NJPH0N5     00NJPH0N5   00111409294216NJT2017052679838432000163201714120161412017141201729000 14822   00VAN     99945   201703310000000000000000021MARVIN              MARVIN REECE                       30935 HELENA COURT                                                    GERMANTOWN                    NJ07001    FER0012                       NJ1234                        00000000          00000000          000000000000   D
NJPH0N6     00NJPH0N6   00111409294224NJT2017052679838432000163201714120161412017141201729000 14822   00VAN     99945   201703310000000000000000021HARBER              HARBER CHANEL                      5684 ELVA LODGE                                                       GERMANTOWN                    NJ07001    FER0012                       NJ1234                        00000000          00000000          000000000000   D
NJPH0N7     00NJPH0N7   00111409294428NJT2017052679838432000163201714120161412017141201729000 14822   00VAN     99945   201703310000000000000000021KERLUKE             KERLUKE KEATON                     914 BRADTKE PINE                                                      GERMANTOWN                    NJ07001    FER0012                       NJ1234                        00000000          00000000          000000000000   D
NJPH0N8     00NJPH0N8   00111409294431NJT2017052679838432000163201714120161412017141201729000 14822   00VAN     99945   201703310000000000000000021HANSEN              HANSEN JAYCE                       5339 LEXI MOUNTAINS                                                   GERMANTOWN                    NJ07001    FER0012                       NJ1234                        00000000          00000000          000000000000   D
NJPH0N9     00NJPH0N9   00111409294438NJT2017052679838432000163201714120161412017141201729000 14822   00VAN     99945   201703310000000000000000021KOZEY               KOZEY CARLO                        1366 CASSIDY GARDENS                                                  GERMANTOWN                    NJ07001    FER0012                       NJ1234                        00000000          00000000          000000000000   D
NJPH0N10    00NJPH0N10  00111409294440NJT2017052679838432000163201714120161412017141201729000 14822   00VAN     99945   201703310000000000000000021JASKOLSKI           JASKOLSKI DESMOND                  0632 GLEICHNER VALLEYS                                                GERMANTOWN                    NJ07001    FER0012                       NJ1234                        00000000          00000000          000000000000   D
NJPH0N11    00NJPH0N11  00111409294230NJT2017052679838432000163201714120161412017141201729000 14822   00VAN     99945   201703310000000000000000021HYATT               HYATT BERENICE                     691 ERDMAN CLIFF                                                      GERMANTOWN                    NJ07001    FER0012                       NJ1234                        00000000          00000000          000000000000   D
NJPH0N12    00NJPH0N12  00111409294235NJT2017052679838432000163201714120161412017141201729000 14822   00VAN     99945   201703310000000000000000021JOHNSON             JOHNSON EVAN                       71664 IRWIN TRAIL                                                     GERMANTOWN                    NJ07001    FER0012                       NJ1234                        00000000          00000000          000000000000   D
NJPH0N13    00NJPH0N13  00111409294241NJT2017052679838432000163201714120161412017141201729000 14822   00VAN     99945   201703310000000000000000021MARQUARDT           MARQUARDT ALVINA                   321 DAVIS LOOP                                                        GERMANTOWN                    NJ07001    FER0012                       NJ1234                        00000000          00000000          000000000000   D
NJPH0N14    00NJPH0N14  00111409294243NJT2017052679838432000163201714120161412017141201729000 14822   00VAN     99945   201703310000000000000000021RUECKER             RUECKER IMELDA                     10501 KLING UNDERPASS                                                 GERMANTOWN                    NJ07001    FER0012                       NJ1234                        00000000          00000000          000000000000   D
NJPH0N15    00NJPH0N15  00111409294252NJT2017052679838432000163201714120161412017141201729000 14822   00VAN     99945   201703310000000000000000021EICHMANN            EICHMANN ALENE                     6121 HARRIS PATH                                                      GERMANTOWN                    NJ07001    FER0012                       NJ1234                        00000000          00000000          000000000000   D
NJPH0N16    00NJPH0N16  00111409294255NJT2017052679838432000163201714120161412017141201729000 14822   00VAN     99945   201703310000000000000000021WISOKY              WISOKY JAEDEN                      16384 ELROY FORK                                                      GERMANTOWN                    NJ07001    FER0012                       NJ1234                        00000000          00000000          000000000000   D
NJPH0N17    00NJPH0N17  00111409294259NJT2017052679838432000163201714120161412017141201729000 14822   00VAN     99945   201703310000000000000000021ONDRICKA            ONDRICKA HARRY                     9033 ANISSA FLAT                                                      GERMANTOWN                    NJ07001    FER0012                       NJ1234                        00000000          00000000          000000000000   D
NJPH0N18    00NJPH0N18  00111409294263NJT2017052679838432000163201714120161412017141201729000 14822   00VAN     99945   201703310000000000000000021WILLMS              WILLMS ZACHARY                     6432 MELODY RUN                                                       GERMANTOWN                    NJ07001    FER0012                       NJ1234                        00000000          00000000          000000000000   D
NJPH0N19    00NJPH0N19  00111409294270NJT2017052679838432000163201714120161412017141201729000 14822   00VAN     99945   201703310000000000000000021GISLASON            GISLASON BILLIE                    351 LESTER GLENS                                                      GERMANTOWN                    NJ07001    FER0012                       NJ1234                        00000000          00000000          000000000000   D
NJPH0N20    00NJPH0N20  00111409294277NJT2017052679838432000163201714120161412017141201729000 14822   00VAN     99945   201703310000000000000000021THIEL               THIEL MCKENZIE                     49071 MAYBELLE ISLAND                                                 GERMANTOWN                    NJ07001    FER0012                       NJ1234                        00000000          00000000          000000000000   D
NJPH0N21    00NJPH0N21  00111409294282NJT2017052679838432000163201714120161412017141201729000 14822   00VAN     99945   201703310000000000000000021QUITZON             QUITZON AURELIA                    9568 ABSHIRE GROVES                                                   GERMANTOWN                    NJ07001    FER0012                       NJ1234                        00000000          00000000          000000000000   D
NJPH0N22    00NJPH0N22  00111409294287NJT2017052679838432000163201714120161412017141201729000 14822   00VAN     99945   201703310000000000000000021ROOB                ROOB BERENICE                      6594 PADBERG HILLS                                                    GERMANTOWN                    NJ07001    FER0012                       NJ1234                        00000000          00000000          000000000000   D
NJPH0N23    00NJPH0N23  00111409294289NJT2017052679838432000163201714120161412017141201729000 14822   00VAN     99945   201703310000000000000000021ROBERTS             ROBERTS BELLE                      10185 WILL JUNCTION                                                   GERMANTOWN                    NJ07001    FER0012                       NJ1234                        00000000          00000000          000000000000   D
NJPH0N24    00NJPH0N24  00111409294293NJT2017052679838432000163201714120161412017141201729000 14822   00VAN     99945   201703310000000000000000021KOSS                KOSS JETT                          32300 DALLIN UNDERPASS                                                GERMANTOWN                    NJ07001    FER0012                       NJ1234                        00000000          00000000          000000000000   D
NJPH0N25    00NJPH0N25  00111409294298NJT2017052679838432000163201714120161412017141201729000 14822   00VAN     99945   201703310000000000000000021THOMPSON            THOMPSON GILBERT                   19221 RUSSEL JUNCTIONS                                                GERMANTOWN                    NJ07001    FER0012                       NJ1234                        00000000          00000000          000000000000   D
NJPH0N26    00NJPH0N26  00111409294306NJT2017052679838432000163201714120161412017141201729000 14822   00VAN     99945   201703310000000000000000021MCCULLOUGH          MCCULLOUGH ALAN                    198 BOGISICH CAMP                                                     GERMANTOWN                    NJ07001    FER0012                       NJ1234                        00000000          00000000          000000000000   D
NJPH0N27    00NJPH0N27  00111409294311NJT2017052679838432000163201714120161412017141201729000 14822   00VAN     99945   201703310000000000000000021CORWIN              CORWIN SHELDON                     202 CROOKS MOTORWAY                                                   GERMANTOWN                    NJ07001    FER0012                       NJ1234                        00000000          00000000          000000000000   D
NJPH0N28    00NJPH0N28  00111409294315NJT2017052679838432000163201714120161412017141201729000 14822   00VAN     99945   201703310000000000000000021BALISTRERI          BALISTRERI SISTER                  2507 COLLIER SHOAL                                                    GERMANTOWN                    NJ07001    FER0012                       NJ1234                        00000000          00000000          000000000000   D
NJPH0N29    00NJPH0N29  00111409294320NJT2017052679838432000163201714120161412017141201729000 14822   00VAN     99945   201703310000000000000000021CUMMINGS            CUMMINGS GAGE                      56262 KRISTOFER LANDING                                               GERMANTOWN                    NJ07001    FER0012                       NJ1234                        00000000          00000000          000000000000   D
NJPH0N30    00NJPH0N30  00111409294325NJT2017052679838432000163201714120161412017141201729000 14822   00VAN     99945   201703310000000000000000021CRONA               CRONA BRAD                         174 PURDY STREAM                                                      GERMANTOWN                    NJ07001    FER0012                       NJ1234                        00000000          00000000          000000000000   D
NJPH0N31    00NJPH0N31  00111409294328NJT2017052679838432000163201714120161412017141201729000 14822   00VAN     99945   201703310000000000000000021FRANECKI            FRANECKI SAVANNA                   419 KOREY SPRINGS                                                     GERMANTOWN                    NJ07001    FER0012                       NJ1234                        00000000          00000000          000000000000   D
NJPH0N32    00NJPH0N32  00111409294333NJT2017052679838432000163201714120161412017141201729000 14822   00VAN     99945   201703310000000000000000021SCHOEN              SCHOEN AYLA                        23961 ALICIA COMMON                                                   GERMANTOWN                    NJ07001    FER0012                       NJ1234                        00000000          00000000          000000000000   D
NJPH0N33    00NJPH0N33  00111409294342NJT2017052679838432000163201714120161412017141201729000 14822   00VAN     99945   201703310000000000000000021SCHUMM              SCHUMM MARLEE                      4876 NATASHA STREET                                                   GERMANTOWN                    NJ07001    FER0012                       NJ1234                        00000000          00000000          000000000000   D
NJPH0N34    00NJPH0N34  00111409294345NJT2017052679838432000163201714120161412017141201729000 14822   00VAN     99945   201703310000000000000000021KUHLMAN             KUHLMAN CLARE                      741 GLOVER PRAIRIE                                                    GERMANTOWN                    NJ07001    FER0012                       NJ1234                        00000000          00000000          000000000000   D
NJPH0N35    00NJPH0N35  00111409294350NJT2017052679838432000163201714120161412017141201729000 14822   00VAN     99945   201703310000000000000000021DENESIK             DENESIK SABINA                     214 ELYSE NECK                                                        GERMANTOWN                    NJ07001    FER0012                       NJ1234                        00000000          00000000          000000000000   D
NJPH0N36    00NJPH0N36  00111409294354NJT2017052679838432000163201714120161412017141201729000 14822   00VAN     99945   201703310000000000000000021SCHULIST            SCHULIST ABDIEL                    3951 ANABELLE TRAIL                                                   GERMANTOWN                    NJ07001    FER0012                       NJ1234                        00000000          00000000          000000000000   D
NJPH0N37    00NJPH0N37  00111409294358NJT2017052679838432000163201714120161412017141201729000 14822   00VAN     99945   201703310000000000000000021BRADTKE             BRADTKE MAGDALENA                  320 JONES BRIDGE                                                      GERMANTOWN                    NJ07001    FER0012                       NJ1234                        00000000          00000000          000000000000   D
NJPH0N38    00NJPH0N38  00111409294364NJT2017052679838432000163201714120161412017141201729000 14822   00VAN     99945   201703310000000000000000021GULGOWSKI           GULGOWSKI JEROD                    78858 GLENNIE STREAM                                                  GERMANTOWN                    NJ07001    FER0012                       NJ1234                        00000000          00000000          000000000000   D
NJPH0N39    00NJPH0N39  00111409294371NJT2017052679838432000163201714120161412017141201729000 14822   00VAN     99945   201703310000000000000000021HEGMANN             HEGMANN ESTRELLA                   63278 BOEHM PARKWAY                                                   GERMANTOWN                    NJ07001    FER0012                       NJ1234                        00000000          00000000          000000000000   D
NJPH0N40    00NJPH0N40  00111409294373NJT2017052679838432000163201714120161412017141201729000 14822   00VAN     99945   201703310000000000000000021GUTMANN             GUTMANN FABIAN                     1233 VOLKMAN CURVE                                                    GERMANTOWN                    NJ07001    FER0012                       NJ1234                        00000000          00000000          000000000000   D
NJPH0N41    00NJPH0N41  00111409294378NJT2017052679838432000163201714120161412017141201729000 14822   00VAN     99945   201703310000000000000000021KEELING             KEELING BRET                       0506 FEIL SPRING                                                      GERMANTOWN                    NJ07001    FER0012                       NJ1234                        00000000          00000000          000000000000   D
NJPH0N42    00NJPH0N42  00111409294383NJT2017052679838432000163201714120161412017141201729000 14822   00VAN     99945   201703310000000000000000021WAELCHI             WAELCHI CLARE                      1043 FISHER SPRING                                                    GERMANTOWN                    NJ07001    FER0012                       NJ1234                        00000000          00000000          000000000000   D
NJPH0N43    00NJPH0N43  00111409294389NJT2017052679838432000163201714120161412017141201729000 14822   00VAN     99945   201703310000000000000000021BARTOLETTI          BARTOLETTI CRISTINA                544 MARLEE HAVEN                                                      GERMANTOWN                    NJ07001    FER0012                       NJ1234                        00000000          00000000          000000000000   D
NJPH0N44    00NJPH0N44  00111409294195NJT2017052679838432000163201714120161412017141201729000 14822   00VAN     99945   201703310000000000000000021WILL                WILL KARLEY                        2180 HANE VALLEYS                                                     GERMANTOWN                    NJ07001    FER0012                       NJ1234                        00000000          00000000          000000000000   D
NJPH0N45    00NJPH0N45  00111409294203NJT2017052679838432000163201714120161412017141201729000 14822   00VAN     99945   201703310000000000000000021ERDMAN              ERDMAN MOHAMMED                    71528 GUDRUN STREETS                                                  GERMANTOWN                    NJ07001    FER0012                       NJ1234                        00000000          00000000          000000000000   D
NJPH0N46    00NJPH0N46  00111409294206NJT2017052679838432000163201714120161412017141201729000 14822   00VAN     99945   201703310000000000000000021RIPPIN              RIPPIN EUSEBIO                     319 NIKITA COVE                                                       GERMANTOWN                    NJ07001    FER0012                       NJ1234                        00000000          00000000          000000000000   D
NJPH0N47    00NJPH0N47  00111409294395NJT2017052679838432000163201714120161412017141201729000 14822   00VAN     99945   201703310000000000000000021WILKINSON           WILKINSON LINNEA                   19271 ANNABELL BRANCH                                                 GERMANTOWN                    NJ07001    FER0012                       NJ1234                        00000000          00000000          000000000000   D
NJPH0N48    00NJPH0N48  00111409294397NJT2017052679838432000163201714120161412017141201729000 14822   00VAN     99945   201703310000000000000000021BLICK               BLICK JACINTHE                     513 CALEB CREST                                                       GERMANTOWN                    NJ07001    FER0012                       NJ1234                        00000000          00000000          000000000000   D
NJPH0N49    00NJPH0N49  00111409294402NJT2017052679838432000163201714120161412017141201729000 14822   00VAN     99945   201703310000000000000000021GOLDNER             GOLDNER JACKY                      551 JACOBSON PARK                                                     GERMANTOWN                    NJ07001    FER0012                       NJ1234                        00000000          00000000          000000000000   D
NJPH0N50    00NJPH0N50  00111409294409NJT2017052679838432000163201714120161412017141201729000 14822   00VAN     99945   201703310000000000000000021BODE                BODE BRAIN                         86809 TILLMAN HILL                                                    GERMANTOWN                    NJ07001    FER0012                       NJ1234                        00000000          00000000          000000000000   D
