NJKO98P01   00NJKO98P01 00111409474784NJT2017052679838432000163201714120161412017141201729000 14822   00VAN     99945   201703310000000000000000021HILPERT             HILPERT KRISTY                     51489 MCCLURE PLAZA                                                   GERMANTOWN                    NJ07001    FER0012                       NJ1234                        00000000          00000000          000000000000   D
NJKO98P02   00NJKO98P02 00111409474785NJT2017052679838432000163201714120161412017141201729000 14822   00VAN     99945   201703310000000000000000021BOEHM               BOEHM BRENDA                       768 HODKIEWICZ TRAFFICWAY                                             GERMANTOWN                    NJ07001    FER0012                       NJ1234                        00000000          00000000          000000000000   D
NJKO98P03   00NJKO98P03 00111409474792NJT2017052679838432000163201714120161412017141201729000 14822   00VAN     99945   201703310000000000000000021GIBSON              GIBSON ANGEL                       338 SPORER PLAZA                                                      GERMANTOWN                    NJ07001    FER0012                       NJ1234                        00000000          00000000          000000000000   D
NJKO98P04   00NJKO98P04 00111409474794NJT2017052679838432000163201714120161412017141201729000 14822   00VAN     99945   201703310000000000000000021KIRLIN              KIRLIN GERTRUDE                    3594 BRAKUS SUMMIT                                                    GERMANTOWN                    NJ07001    FER0012                       NJ1234                        00000000          00000000          000000000000   D
NJKO98P05   00NJKO98P05 00111409474797NJT2017052679838432000163201714120161412017141201729000 14822   00VAN     99945   201703310000000000000000021ROMAGUERA           ROMAGUERA RETA                     88599 PRICE MEWS                                                      GERMANTOWN                    NJ07001    FER0012                       NJ1234                        00000000          00000000          000000000000   D
NJKO98P06   00NJKO98P06 00111409474803NJT2017052679838432000163201714120161412017141201729000 14822   00VAN     99945   201703310000000000000000021LITTEL              LITTEL COTY                        072 PARKER HILLS                                                      GERMANTOWN                    NJ07001    FER0012                       NJ1234                        00000000          00000000          000000000000   D
NJKO98P07   00NJKO98P07 00111409474806NJT2017052679838432000163201714120161412017141201729000 14822   00VAN     99945   201703310000000000000000021KUHN                KUHN FRANCO                        614 ALBERT HOLLOW                                                     GERMANTOWN                    NJ07001    FER0012                       NJ1234                        00000000          00000000          000000000000   D
NJKO98P08   00NJKO98P08 00111409474812NJT2017052679838432000163201714120161412017141201729000 14822   00VAN     99945   201703310000000000000000021CARROLL             CARROLL HELEN                      6706 RAU SHOALS                                                       GERMANTOWN                    NJ07001    FER0012                       NJ1234                        00000000          00000000          000000000000   D
NJKO98P09   00NJKO98P09 00111409474815NJT2017052679838432000163201714120161412017141201729000 14822   00VAN     99945   201703310000000000000000021MCKENZIE            MCKENZIE MAYE                      304 DIEGO DAM                                                         GERMANTOWN                    NJ07001    FER0012                       NJ1234                        00000000          00000000          000000000000   D
NJKO98P010  00NJKO98P01000111409474817NJT2017052679838432000163201714120161412017141201729000 14822   00VAN     99945   201703310000000000000000021SCHULTZ             SCHULTZ LAVERNE                    157 MADIE ROADS                                                       GERMANTOWN                    NJ07001    FER0012                       NJ1234                        00000000          00000000          000000000000   D
NJKO98P011  00NJKO98P01100111409474822NJT2017052679838432000163201714120161412017141201729000 14822   00VAN     99945   201703310000000000000000021TREMBLAY            TREMBLAY BRYCEN                    519 JAVONTE SPRINGS                                                   GERMANTOWN                    NJ07001    FER0012                       NJ1234                        00000000          00000000          000000000000   D
NJKO98P012  00NJKO98P01200111409474825NJT2017052679838432000163201714120161412017141201729000 14822   00VAN     99945   201703310000000000000000021HERMISTON           HERMISTON MELBA                    43579 HAYES MANOR                                                     GERMANTOWN                    NJ07001    FER0012                       NJ1234                        00000000          00000000          000000000000   D
NJKO98P013  00NJKO98P01300111409474832NJT2017052679838432000163201714120161412017141201729000 14822   00VAN     99945   201703310000000000000000021HANE                HANE HANS                          53290 YOST CIRCLES                                                    GERMANTOWN                    NJ07001    FER0012                       NJ1234                        00000000          00000000          000000000000   D
NJKO98P014  00NJKO98P01400111409474836NJT2017052679838432000163201714120161412017141201729000 14822   00VAN     99945   201703310000000000000000021ZIEMANN             ZIEMANN GABRIELLE                  7074 CYNTHIA ISLAND                                                   GERMANTOWN                    NJ07001    FER0012                       NJ1234                        00000000          00000000          000000000000   D
NJKO98P015  00NJKO98P01500111409474839NJT2017052679838432000163201714120161412017141201729000 14822   00VAN     99945   201703310000000000000000021SWIFT               SWIFT MIA                          38557 VANDERVORT MANORS                                               GERMANTOWN                    NJ07001    FER0012                       NJ1234                        00000000          00000000          000000000000   D
NJKO98P016  00NJKO98P01600111409474843NJT2017052679838432000163201714120161412017141201729000 14822   00VAN     99945   201703310000000000000000021GRADY               GRADY YASMIN                       64076 SALLIE CAPE                                                     GERMANTOWN                    NJ07001    FER0012                       NJ1234                        00000000          00000000          000000000000   D
NJKO98P017  00NJKO98P01700111409474845NJT2017052679838432000163201714120161412017141201729000 14822   00VAN     99945   201703310000000000000000021KEELING             KEELING KARLEY                     764 TALON CROSSROAD                                                   GERMANTOWN                    NJ07001    FER0012                       NJ1234                        00000000          00000000          000000000000   D
NJKO98P018  00NJKO98P01800111409474850NJT2017052679838432000163201714120161412017141201729000 14822   00VAN     99945   201703310000000000000000021KLING               KLING RICHMOND                     175 FEENEY COURSE                                                     GERMANTOWN                    NJ07001    FER0012                       NJ1234                        00000000          00000000          000000000000   D
NJKO98P019  00NJKO98P01900111409474856NJT2017052679838432000163201714120161412017141201729000 14822   00VAN     99945   201703310000000000000000021RAYNOR              RAYNOR OSCAR                       99140 MRAZ LIGHTS                                                     GERMANTOWN                    NJ07001    FER0012                       NJ1234                        00000000          00000000          000000000000   D
NJKO98P020  00NJKO98P02000111409474860NJT2017052679838432000163201714120161412017141201729000 14822   00VAN     99945   201703310000000000000000021REILLY              REILLY MARKUS                      7416 HARRIS STRAVENUE                                                 GERMANTOWN                    NJ07001    FER0012                       NJ1234                        00000000          00000000          000000000000   D
NJKO98P021  00NJKO98P02100111409474864NJT2017052679838432000163201714120161412017141201729000 14822   00VAN     99945   201703310000000000000000021TREMBLAY            TREMBLAY SIM                       9693 LESCH WALKS                                                      GERMANTOWN                    NJ07001    FER0012                       NJ1234                        00000000          00000000          000000000000   D
NJKO98P022  00NJKO98P02200111409474865NJT2017052679838432000163201714120161412017141201729000 14822   00VAN     99945   201703310000000000000000021BRAUN               BRAUN ALIZA                        2633 BUDDY INLET                                                      GERMANTOWN                    NJ07001    FER0012                       NJ1234                        00000000          00000000          000000000000   D
NJKO98P023  00NJKO98P02300111409474872NJT2017052679838432000163201714120161412017141201729000 14822   00VAN     99945   201703310000000000000000021HERZOG              HERZOG ALYSHA                      601 LEONEL KEYS                                                       GERMANTOWN                    NJ07001    FER0012                       NJ1234                        00000000          00000000          000000000000   D
NJKO98P024  00NJKO98P02400111409474876NJT2017052679838432000163201714120161412017141201729000 14822   00VAN     99945   201703310000000000000000021CROOKS              CROOKS ASSUNTA                     735 MARKS GREEN                                                       GERMANTOWN                    NJ07001    FER0012                       NJ1234                        00000000          00000000          000000000000   D
NJKO98P025  00NJKO98P02500111409474878NJT2017052679838432000163201714120161412017141201729000 14822   00VAN     99945   201703310000000000000000021GLOVER              GLOVER MARIETTA                    49657 PAUCEK UNION                                                    GERMANTOWN                    NJ07001    FER0012                       NJ1234                        00000000          00000000          000000000000   D
NJKO98P026  00NJKO98P02600111409474683NJT2017052679838432000163201714120161412017141201729000 14822   00VAN     99945   201703310000000000000000021JENKINS             JENKINS ADRAIN                     64155 ABEL PLAINS                                                     GERMANTOWN                    NJ07001    FER0012                       NJ1234                        00000000          00000000          000000000000   D
NJKO98P027  00NJKO98P02700111409474687NJT2017052679838432000163201714120161412017141201729000 14822   00VAN     99945   201703310000000000000000021RUSSEL              RUSSEL ADRAIN                      9649 ELLA SHOALS                                                      GERMANTOWN                    NJ07001    FER0012                       NJ1234                        00000000          00000000          000000000000   D
NJKO98P028  00NJKO98P02800111409474689NJT2017052679838432000163201714120161412017141201729000 14822   00VAN     99945   201703310000000000000000021GOODWIN             GOODWIN WILFORD                    0813 ALANIS HIGHWAY                                                   GERMANTOWN                    NJ07001    FER0012                       NJ1234                        00000000          00000000          000000000000   D
NJKO98P029  00NJKO98P02900111409474695NJT2017052679838432000163201714120161412017141201729000 14822   00VAN     99945   201703310000000000000000021DECKOW              DECKOW MADELINE                    96685 EMMET LIGHTS                                                    GERMANTOWN                    NJ07001    FER0012                       NJ1234                        00000000          00000000          000000000000   D
NJKO98P030  00NJKO98P03000111409474699NJT2017052679838432000163201714120161412017141201729000 14822   00VAN     99945   201703310000000000000000021GLEASON             GLEASON CLEO                       538 HIPOLITO MEADOWS                                                  GERMANTOWN                    NJ07001    FER0012                       NJ1234                        00000000          00000000          000000000000   D
NJKO98P031  00NJKO98P03100111409474701NJT2017052679838432000163201714120161412017141201729000 14822   00VAN     99945   201703310000000000000000021FUNK                FUNK LEILANI                       14159 LESLEY LOOP                                                     GERMANTOWN                    NJ07001    FER0012                       NJ1234                        00000000          00000000          000000000000   D
NJKO98P032  00NJKO98P03200111409474707NJT2017052679838432000163201714120161412017141201729000 14822   00VAN     99945   201703310000000000000000021KERLUKE             KERLUKE LILLA                      4459 DUDLEY GREEN                                                     GERMANTOWN                    NJ07001    FER0012                       NJ1234                        00000000          00000000          000000000000   D
NJKO98P033  00NJKO98P03300111409474709NJT2017052679838432000163201714120161412017141201729000 14822   00VAN     99945   201703310000000000000000021STROSIN             STROSIN ADOLPH                     3529 DOUGLAS PARKWAYS                                                 GERMANTOWN                    NJ07001    FER0012                       NJ1234                        00000000          00000000          000000000000   D
NJKO98P034  00NJKO98P03400111409474716NJT2017052679838432000163201714120161412017141201729000 14822   00VAN     99945   201703310000000000000000021REMPEL              REMPEL SHANE                       053 BOYER SHORES                                                      GERMANTOWN                    NJ07001    FER0012                       NJ1234                        00000000          00000000          000000000000   D
NJKO98P035  00NJKO98P03500111409474718NJT2017052679838432000163201714120161412017141201729000 14822   00VAN     99945   201703310000000000000000021GIBSON              GIBSON DANYKA                      2318 ELSE HEIGHTS                                                     GERMANTOWN                    NJ07001    FER0012                       NJ1234                        00000000          00000000          000000000000   D
NJKO98P036  00NJKO98P03600111409474723NJT2017052679838432000163201714120161412017141201729000 14822   00VAN     99945   201703310000000000000000021HIRTHE              HIRTHE CHRISTELLE                  4582 TOWNE FORDS                                                      GERMANTOWN                    NJ07001    FER0012                       NJ1234                        00000000          00000000          000000000000   D
NJKO98P037  00NJKO98P03700111409474726NJT2017052679838432000163201714120161412017141201729000 14822   00VAN     99945   201703310000000000000000021BERGE               BERGE RAEGAN                       56163 JAYSON PARKS                                                    GERMANTOWN                    NJ07001    FER0012                       NJ1234                        00000000          00000000          000000000000   D
NJKO98P038  00NJKO98P03800111409474730NJT2017052679838432000163201714120161412017141201729000 14822   00VAN     99945   201703310000000000000000021JONES               JONES ALESSANDRA                   13357 BOSCO STREAM                                                    GERMANTOWN                    NJ07001    FER0012                       NJ1234                        00000000          00000000          000000000000   D
NJKO98P039  00NJKO98P03900111409474736NJT2017052679838432000163201714120161412017141201729000 14822   00VAN     99945   201703310000000000000000021PREDOVIC            PREDOVIC BARNEY                    12145 ALLAN PLAZA                                                     GERMANTOWN                    NJ07001    FER0012                       NJ1234                        00000000          00000000          000000000000   D
NJKO98P040  00NJKO98P04000111409474740NJT2017052679838432000163201714120161412017141201729000 14822   00VAN     99945   201703310000000000000000021KONOPELSKI          KONOPELSKI KIAN                    417 WILLA CLUB                                                        GERMANTOWN                    NJ07001    FER0012                       NJ1234                        00000000          00000000          000000000000   D
NJKO98P041  00NJKO98P04100111409474741NJT2017052679838432000163201714120161412017141201729000 14822   00VAN     99945   201703310000000000000000021HAMMES              HAMMES PATIENCE                    54022 MONIQUE HOLLOW                                                  GERMANTOWN                    NJ07001    FER0012                       NJ1234                        00000000          00000000          000000000000   D
NJKO98P042  00NJKO98P04200111409474746NJT2017052679838432000163201714120161412017141201729000 14822   00VAN     99945   201703310000000000000000021LEFFLER             LEFFLER KASSANDRA                  8646 ANDERSON WELLS                                                   GERMANTOWN                    NJ07001    FER0012                       NJ1234                        00000000          00000000          000000000000   D
NJKO98P043  00NJKO98P04300111409474750NJT2017052679838432000163201714120161412017141201729000 14822   00VAN     99945   201703310000000000000000021STOLTENBERG         STOLTENBERG SONYA                  155 ELODY CANYON                                                      GERMANTOWN                    NJ07001    FER0012                       NJ1234                        00000000          00000000          000000000000   D
NJKO98P044  00NJKO98P04400111409474754NJT2017052679838432000163201714120161412017141201729000 14822   00VAN     99945   201703310000000000000000021BRADTKE             BRADTKE ZETTA                      784 LOCKMAN ESTATES                                                   GERMANTOWN                    NJ07001    FER0012                       NJ1234                        00000000          00000000          000000000000   D
NJKO98P045  00NJKO98P04500111409474758NJT2017052679838432000163201714120161412017141201729000 14822   00VAN     99945   201703310000000000000000021ORN                 ORN SUSIE                          257 LUCIENNE RADIAL                                                   GERMANTOWN                    NJ07001    FER0012                       NJ1234                        00000000          00000000          000000000000   D
NJKO98P046  00NJKO98P04600111409474761NJT2017052679838432000163201714120161412017141201729000 14822   00VAN     99945   201703310000000000000000021KUNZE               KUNZE LORINE                       53799 AUER VIADUCT                                                    GERMANTOWN                    NJ07001    FER0012                       NJ1234                        00000000          00000000          000000000000   D
NJKO98P047  00NJKO98P04700111409474768NJT2017052679838432000163201714120161412017141201729000 14822   00VAN     99945   201703310000000000000000021HELLER              HELLER MAYA                        7159 BABY PARKWAY                                                     GERMANTOWN                    NJ07001    FER0012                       NJ1234                        00000000          00000000          000000000000   D
NJKO98P048  00NJKO98P04800111409474771NJT2017052679838432000163201714120161412017141201729000 14822   00VAN     99945   201703310000000000000000021KING                KING SHYANNE                       55179 ABERNATHY SUMMIT                                                GERMANTOWN                    NJ07001    FER0012                       NJ1234                        00000000          00000000          000000000000   D
NJKO98P049  00NJKO98P04900111409474776NJT2017052679838432000163201714120161412017141201729000 14822   00VAN     99945   201703310000000000000000021HIRTHE              HIRTHE JUNIOR                      1731 ARVID FORT                                                       GERMANTOWN                    NJ07001    FER0012                       NJ1234                        00000000          00000000          000000000000   D
NJKO98P050  00NJKO98P05000111409474779NJT2017052679838432000163201714120161412017141201729000 14822   00VAN     99945   201703310000000000000000021VON                 VON COLE                           60889 GRIFFIN ROADS                                                   GERMANTOWN                    NJ07001    FER0012                       NJ1234                        00000000          00000000          000000000000   D
