NJKLB67P1   00NJKLB67P1 00111409269648NJT2017052679838432000163201714120161412017141201729000 14822   00VAN     99945   201703310000000000000000021BOGAN               BOGAN ULICES                       2233 BENJAMIN SQUARES                                                 GERMANTOWN                    NJ07001    FER0012                       NJ1234                        00000000          00000000          000000000000   D
NJKLB67P2   00NJKLB67P2 00111409269651NJT2017052679838432000163201714120161412017141201729000 14822   00VAN     99945   201703310000000000000000021HANE                HANE ZENA                          78638 EFFERTZ ISLAND                                                  GERMANTOWN                    NJ07001    FER0012                       NJ1234                        00000000          00000000          000000000000   D
NJKLB67P3   00NJKLB67P3 00111409269653NJT2017052679838432000163201714120161412017141201729000 14822   00VAN     99945   201703310000000000000000021CASSIN              CASSIN ELOISA                      2951 SAUER CAUSEWAY                                                   GERMANTOWN                    NJ07001    FER0012                       NJ1234                        00000000          00000000          000000000000   D
NJKLB67P4   00NJKLB67P4 00111409269658NJT2017052679838432000163201714120161412017141201729000 14822   00VAN     99945   201703310000000000000000021BAILEY              BAILEY BRISA                       684 LEDNER CREEK                                                      GERMANTOWN                    NJ07001    FER0012                       NJ1234                        00000000          00000000          000000000000   D
