NJ28CCS1    00NJ28CCS1  00111409584225NJT2017052679838432000163201714120161412017141201729000 14822   00VAN     99945   201703310000000000000000021HOWELL              HOWELL ADOLPHUS                    2128 JEANIE ESTATES                                                   GERMANTOWN                    NJ07001    FER0012                       NJ1234                        00000000          00000000          000000000000   D
NJ28CCS2    00NJ28CCS2  00111409584230NJT2017052679838432000163201714120161412017141201729000 14822   00VAN     99945   201703310000000000000000021BOYLE               BOYLE DEREK                        6082 EMILIE PASS                                                      GERMANTOWN                    NJ07001    FER0012                       NJ1234                        00000000          00000000          000000000000   D
NJ28CCS3    00NJ28CCS3  00111409584235NJT2017052679838432000163201714120161412017141201729000 14822   00VAN     99945   201703310000000000000000021ROLFSON             ROLFSON HOPE                       0581 HELENE LOCKS                                                     GERMANTOWN                    NJ07001    FER0012                       NJ1234                        00000000          00000000          000000000000   D
NJ28CCS4    00NJ28CCS4  00111409584240NJT2017052679838432000163201714120161412017141201729000 14822   00VAN     99945   201703310000000000000000021MOHR                MOHR GEORGE                        2302 PETE MANOR                                                       GERMANTOWN                    NJ07001    FER0012                       NJ1234                        00000000          00000000          000000000000   D
NJ28CCS5    00NJ28CCS5  00111409584241NJT2017052679838432000163201714120161412017141201729000 14822   00VAN     99945   201703310000000000000000021GLEICHNER           GLEICHNER ELECTA                   31626 CHYNA SQUARES                                                   GERMANTOWN                    NJ07001    FER0012                       NJ1234                        00000000          00000000          000000000000   D
NJ28CCS6    00NJ28CCS6  00111409584248NJT2017052679838432000163201714120161412017141201729000 14822   00VAN     99945   201703310000000000000000021KLEIN               KLEIN LILLIANA                     1373 MILLS HILLS                                                      GERMANTOWN                    NJ07001    FER0012                       NJ1234                        00000000          00000000          000000000000   D
