NJPO33P1    00NJPO33P1  00111408992262NJT2017052679838432000163201714120161412017141201729000 14822   00VAN     99945   201703310000000000000000021KHILADI             KHILADI MUNNA                      ALMARI STREET                                                         GERMANTOWN                    NJ07001    FER0012                       NJ1234                        00000000          00000000          000000000000   D
NJPO33P2    00NJPO33P2  00111408992271NJT2017052679838432000163201714120161412017141201729000 14822   00VAN     99945   201703310000000000000000021KHILADI             KHILADI MUNNA                      ALMARI STREET                                                         GERMANTOWN                    NJ07001    FER0012                       NJ1234                        00000000          00000000          000000000000   D
NJPO33P3    00NJPO33P3  00111408992275NJT2017052679838432000163201714120161412017141201729000 14822   00VAN     99945   201703310000000000000000021KHILADI             KHILADI MUNNA                      ALMARI STREET                                                         GERMANTOWN                    NJ07001    FER0012                       NJ1234                        00000000          00000000          000000000000   D
NJPO33P4    00NJPO33P4  00111408992279NJT2017052679838432000163201714120161412017141201729000 14822   00VAN     99945   201703310000000000000000021KHILADI             KHILADI MUNNA                      ALMARI STREET                                                         GERMANTOWN                    NJ07001    FER0012                       NJ1234                        00000000          00000000          000000000000   D
NJPO33P5    00NJPO33P5  00111408992285NJT2017052679838432000163201714120161412017141201729000 14822   00VAN     99945   201703310000000000000000021KHILADI             KHILADI MUNNA                      ALMARI STREET                                                         GERMANTOWN                    NJ07001    FER0012                       NJ1234                        00000000          00000000          000000000000   D
NJPO33P6    00NJPO33P6  00111408992290NJT2017052679838432000163201714120161412017141201729000 14822   00VAN     99945   201703310000000000000000021KHILADI             KHILADI MUNNA                      ALMARI STREET                                                         GERMANTOWN                    NJ07001    FER0012                       NJ1234                        00000000          00000000          000000000000   D
