NJSC7A1     00NJSC7A1   00113079454872NJT2017052679838432000163201714120161412017141201729000 14822   00VAN     99945   201703310000000000000000021PARKER              PARKER LUDWIG                      3093 ROBEL CIRCLES                                                    NEWARK                        NJ07114    FER0012                       NJ1234                        00000000          00000000          000000000000   D
NJSC7A2     00NJSC7A2   00113079454840NJT2017052679838432000163201714120161412017141201729000 14822   00VAN     99945   201703310000000000000000021MEDHURST            MEDHURST ALTHEA                    067 NORBERT RIDGE                                                     NEWARK                        NJ07114    FER0012                       NJ1234                        00000000          00000000          000000000000   D
NJSC7A3     00NJSC7A3   00113079454842NJT2017052679838432000163201714120161412017141201729000 14822   00VAN     99945   201703310000000000000000021KOVACEK             KOVACEK GENESIS                    96196 LITTLE TRAFFICWAY                                               NEWARK                        NJ07114    FER0012                       NJ1234                        00000000          00000000          000000000000   D
NJSC7A4     00NJSC7A4   00113079454852NJT2017052679838432000163201714120161412017141201729000 14822   00VAN     99945   201703310000000000000000021WUNSCH              WUNSCH ALANA                       8098 ROBEL PLAZA                                                      NEWARK                        NJ07114    FER0012                       NJ1234                        00000000          00000000          000000000000   D
NJSC7A5     00NJSC7A5   00113079454864NJT2017052679838432000163201714120161412017141201729000 14822   00VAN     99945   201703310000000000000000021HERMANN             HERMANN ABNER                      167 BRENDEN SPUR                                                      NEWARK                        NJ07114    FER0012                       NJ1234                        00000000          00000000          000000000000   D
