NJBVS7P1    00NJBVS7P1  00113078660251NJT2017052679838432000163201714120161412017141201729000 14822   00VAN     99945   201703310000000000000000021HALEY               HALEY TERRENCE                     65678 AVIS RIDGE                                                      GERMANTOWN                    NJ07001    FER0012                       NJ1234                        00000000          00000000          000000000000   D
NJBVS7P2    00NJBVS7P2  00113078660253NJT2017052679838432000163201714120161412017141201729000 14822   00VAN     99945   201703310000000000000000021HALEY               HALEY TERRENCE                     65678 AVIS RIDGE                                                      GERMANTOWN                    NJ07001    FER0012                       NJ1234                        00000000          00000000          000000000000   D
NJBVS7P3    00NJBVS7P3  00113078660257NJT2017052679838432000163201714120161412017141201729000 14822   00VAN     99945   201703310000000000000000021HILLS               HILLS ADELINE                      5657 LIZETH GLEN                                                      GERMANTOWN                    NJ07001    FER0012                       NJ1234                        00000000          00000000          000000000000   D
NJBVS7P4    00NJBVS7P4  00113078660261NJT2017052679838432000163201714120161412017141201729000 14822   00VAN     99945   201703310000000000000000021HILLS               HILLS ADELINE                      5657 LIZETH GLEN                                                      GERMANTOWN                    NJ07001    FER0012                       NJ1234                        00000000          00000000          000000000000   D
