NJKLIVP3    00NJKLIVP3  00113079101932NJT2017052679838432000163201714120161412017141201729000 14822   00VAN     99945   201703310000000000000000021BRAKUS              BRAKUS BARTHOLOME                  4091 KEON BROOKS                                                      NEWARK                        NJ07114    FER0012                       NJ1234                        00000000          00000000          000000000000   D
NJKLIVP5    00NJKLIVP5  00113079101939NJT2017052679838432000163201714120161412017141201729000 14822   00VAN     99945   201703310000000000000000021SPORER              SPORER KAREN                       77214 TALON EXPRESSWAY                                                NEWARK                        NJ07114    FER0012                       NJ1234                        00000000          00000000          000000000000   D
NJKLIVP1    00NJKLIVP1  00113079101944NJT2017052679838432000163201714120161412017141201729000 14822   00VAN     99945   201703310000000000000000021HYATT               HYATT ELMORE                       96769 JOVANNY TUNNEL                                                  NEWARK                        NJ07114    FER0012                       NJ1234                        00000000          00000000          000000000000   D
NJKLIVP2    00NJKLIVP2  00113079101950NJT2017052679838432000163201714120161412017141201729000 14822   00VAN     99945   201703310000000000000000021MCKENZIE            MCKENZIE KHALIL                    21329 HOWE ESTATE                                                     NEWARK                        NJ07114    FER0012                       NJ1234                        00000000          00000000          000000000000   D
NJKLIVP4    00NJKLIVP4  00113079101956NJT2017052679838432000163201714120161412017141201729000 14822   00VAN     99945   201703310000000000000000021REYNOLDS            REYNOLDS SALLY                     58113 SHANAHAN LIGHTS                                                 NEWARK                        NJ07114    FER0012                       NJ1234                        00000000          00000000          000000000000   D
