NJSDJ9P1    00NJSDJ9P1  00111409512473NJT2017052679838432000163201714120161412017141201729000 14822   00VAN     99945   201703310000000000000000021BARTELL             BARTELL MAXWELL                    3107 MARVIN LOCKS                                                     GERMANTOWN                    NJ07001    FER0012                       NJ1234                        00000000          00000000          000000000000   D
NJSDJ9P2    00NJSDJ9P2  00111409512479NJT2017052679838432000163201714120161412017141201729000 14822   00VAN     99945   201703310000000000000000021SCHMITT             SCHMITT EZRA                       7255 ISMAEL SPRING                                                    GERMANTOWN                    NJ07001    FER0012                       NJ1234                        00000000          00000000          000000000000   D
NJSDJ9P3    00NJSDJ9P3  00111409512482NJT2017052679838432000163201714120161412017141201729000 14822   00VAN     99945   201703310000000000000000021OBERBRUNNER         OBERBRUNNER GORDON                 582 FLETA CLIFFS                                                      GERMANTOWN                    NJ07001    FER0012                       NJ1234                        00000000          00000000          000000000000   D
NJSDJ9P4    00NJSDJ9P4  00111409512486NJT2017052679838432000163201714120161412017141201729000 14822   00VAN     99945   201703310000000000000000021DOYLE               DOYLE ALBINA                       9960 VICTORIA SUMMIT                                                  GERMANTOWN                    NJ07001    FER0012                       NJ1234                        00000000          00000000          000000000000   D
NJSDJ9P5    00NJSDJ9P5  00111409512489NJT2017052679838432000163201714120161412017141201729000 14822   00VAN     99945   201703310000000000000000021SCHAMBERGER         SCHAMBERGER DELILAH                76955 DAKOTA VILLE                                                    GERMANTOWN                    NJ07001    FER0012                       NJ1234                        00000000          00000000          000000000000   D
