NJJ43EJH    00NJJ43EJH  00111409583217NJT2017052679838432000163201714120161412017141201729000 14822   00VAN     99945   201703310000000000000000021DANNY               DANNY INC                          20561 ROBERT TAVERN DR                                                TOMS RIVER                    NJ08754    FER0012                       NJ1234                        00000000          00000000          000000000000   D
NJY903CG    00NJY903CG  00111409583220NJT2017052679838432000163201714120161412017141201729000 14822   00VAN     99945   201703310000000000000000021PURDY LTD           PURDY LTD                          97024 ODESSA OVAL                                                     GERMANTOWN                    NJ07001    FER0012                       NJ1234                        00000000          00000000          000000000000   D
RIZV451     00RIZV451   00111409583221NJT2017052679838432000163201714120161412017141201729000 14822   00VAN     99945   201703310000000000000000021STANTON             STANTON JAZMYN                     45063 OSINSKI REST                                                    GERMANTOWN                    NJ07001    FER0012                       NJ1234                        00000000          00000000          000000000000   D
NJE30LAB    00NJE30LAB  00111409583222NJT2017052679838432000163201714120161412017141201729000 14822   00VAN     99945   201703310000000000000000021VEUM                VEUM NYASIA                        72401 THERON COURTS                                                   GERMANTOWN                    NJ07001    FER0012                       NJ1234                        00000000          00000000          000000000000   D
PAZMR3435   00PAZMR3435 00111409583223NJT2017052679838432000163201714120161412017141201729000 14822   00VAN     99945   201703310000000000000000021FAY                 FAY ANNABELLE                      493 BOEHM MOUNTAINS                                                   GERMANTOWN                    NJ07001    FER0012                       NJ1234                        00000000          00000000          000000000000   D
NJCG1BBA    00NJCG1BBA  00111409583224NJT2017052679838432000163201714120161412017141201729000 14822   00VAN     99945   201703310000000000000000021HEIDENREICH         HEIDENREICH JEREMIE                84997 GABRIEL MEWS                                                    GERMANTOWN                    NJ07001    FER0012                       NJ1234                        00000000          00000000          000000000000   D
NJCG2ARK    00NJCG2ARK  00111409583225NJT2017052679838432000163201714120161412017141201729000 14822   00VAN     99945   201703310000000000000000021MOORE               MOORE ISABELLA                     9049 CHAUNCEY SHORES                                                  GERMANTOWN                    NJ07001    FER0012                       NJ1234                        00000000          00000000          000000000000   D
NJXFNL82    00NJXFNL82  00111409583227NJT2017052679838432000163201714120161412017141201729000 14822   00VAN     99945   201703310000000000000000021JACOBSON            JACOBSON TURNER                    5514 BRENDEN FORKS                                                    GERMANTOWN                    NJ07001    FER0012                       NJ1234                        00000000          00000000          000000000000   D
PAZKB4262   00PAZKB4262 00111409583229NJT2017052679838432000163201714120161412017141201729000 14822   00VAN     99945   201703310000000000000000021PACOCHA             PACOCHA KENNA                      211 ADRIENNE RIDGE                                                    GERMANTOWN                    NJ07001    FER0012                       NJ1234                        00000000          00000000          000000000000   D
NJB74HJA    00NJB74HJA  00111409583230NJT2017052679838432000163201714120161412017141201729000 14822   00VAN     99945   201703310000000000000000021ANDERSON            ANDERSON DANNY                     82112 MATTIE GATEWAY                                                  GERMANTOWN                    NJ07001    FER0012                       NJ1234                        00000000          00000000          000000000000   D
NJA89KZY    00NJA89KZY  00111409583231NJT2017052679838432000163201714120161412017141201729000 14822   00VAN     99945   201703310000000000000000021HARVEY              HARVEY NORBERTO                    240 OKEY FORGES                                                       GERMANTOWN                    NJ07001    FER0012                       NJ1234                        00000000          00000000          000000000000   D
PAKCV4054   00PAKCV4054 00111409583232NJT2017052679838432000163201714120161412017141201729000 14822   00VAN     99945   201703310000000000000000021MILSTEIN            MILSTEIN JERRY                     3202 EMBARCADERO CT                                                   SPRINGFIELD                   PA19064    FER0012                       NJ1234                        00000000          00000000          000000000000   D
NJD19BRY    00NJD19BRY  00111409583233NJT2017052679838432000163201714120161412017141201729000 14822   00VAN     99945   201703310000000000000000021BINS                BINS PATRICK                       661 ZACHARY GARDENS                                                   GERMANTOWN                    NJ07001    FER0012                       NJ1234                        00000000          00000000          000000000000   D
PAJVC7783   00PAJVC7783 00111409582931NJT2017052679838432000163201714120161412017141201729000 14822   00VAN     99945   201703310000000000000000021DONNELLY            DONNELLY OKEY                      97378 GAIL TRAIL                                                      GERMANTOWN                    NJ07001    FER0012                       NJ1234                        00000000          00000000          000000000000   D
NJJ31KWN    00NJJ31KWN  00111409582932NJT2017052679838432000163201714120161412017141201729000 14822   00VAN     99945   201703310000000000000000021BASHIRIAN           BASHIRIAN ROGER                    668 ENOS COVE                                                         GERMANTOWN                    NJ07001    FER0012                       NJ1234                        00000000          00000000          000000000000   D
NJW74FSX    00NJW74FSX  00111409582933NJT2017052679838432000163201714120161412017141201729000 14822   00VAN     99945   201703310000000000000000021BEER                BEER KARINE                        7256 FEENEY PATH                                                      GERMANTOWN                    NJ07001    FER0012                       NJ1234                        00000000          00000000          000000000000   D
NJR39KLG    00NJR39KLG  00111409582934NJT2017052679838432000163201714120161412017141201729000 14822   00VAN     99945   201703310000000000000000021BLANDA              BLANDA LEORA                       6229 MASON WALK                                                       GERMANTOWN                    NJ07001    FER0012                       NJ1234                        00000000          00000000          000000000000   D
NJT13HNZ    00NJT13HNZ  00111409582935NJT2017052679838432000163201714120161412017141201729000 14822   00VAN     99945   201703310000000000000000021RENNER              RENNER TAYLOR                      00101 MAYERT WELLS                                                    GERMANTOWN                    NJ07001    FER0012                       NJ1234                        00000000          00000000          000000000000   D
NJZ20LAH    00NJZ20LAH  00111409582936NJT2017052679838432000163201714120161412017141201729000 14822   00VAN     99945   201703310000000000000000021GOODWIN             GOODWIN ALEXZANDER                 1776 BERNIER MOUNT                                                    GERMANTOWN                    NJ07001    FER0012                       NJ1234                        00000000          00000000          000000000000   D
NJC36GAV    00NJC36GAV  00111409582937NJT2017052679838432000163201714120161412017141201729000 14822   00VAN     99945   201703310000000000000000021LEFFLER             LEFFLER HERMINIA                   530 JOVAN LANE                                                        GERMANTOWN                    NJ07001    FER0012                       NJ1234                        00000000          00000000          000000000000   D
NJJ89JTG    00NJJ89JTG  00111409582938NJT2017052679838432000163201714120161412017141201729000 14822   00VAN     99945   201703310000000000000000021STANTON             STANTON NICHOLAS                   8991 DIBBERT JUNCTIONS                                                GERMANTOWN                    NJ07001    FER0012                       NJ1234                        00000000          00000000          000000000000   D
NJZ50JPY    00NJZ50JPY  00111409582939NJT2017052679838432000163201714120161412017141201729000 14822   00VAN     99945   201703310000000000000000021RUTHERFORD          RUTHERFORD ARDITH                  198 CONROY CLUB                                                       GERMANTOWN                    NJ07001    FER0012                       NJ1234                        00000000          00000000          000000000000   D
NJA60HDM    00NJA60HDM  00111409582940NJT2017052679838432000163201714120161412017141201729000 14822   00VAN     99945   201703310000000000000000021ZIEMANN             ZIEMANN HOPE                       89175 PREDOVIC GROVE                                                  GERMANTOWN                    NJ07001    FER0012                       NJ1234                        00000000          00000000          000000000000   D
NJS70CLB    00NJS70CLB  00111409582941NJT2017052679838432000163201714120161412017141201729000 14822   00VAN     99945   201703310000000000000000021SCHAMBERGER         SCHAMBERGER HILBERT                848 KUTCH PLAIN                                                       GERMANTOWN                    NJ07001    FER0012                       NJ1234                        00000000          00000000          000000000000   D
NJF93JWY    00NJF93JWY  00111409582945NJT2017052679838432000163201714120161412017141201729000 14822   00VAN     99945   201703310000000000000000021TORP                TORP MARILIE                       785 CRONIN JUNCTION                                                   GERMANTOWN                    NJ07001    FER0012                       NJ1234                        00000000          00000000          000000000000   D
NJW51JJU    00NJW51JJU  00111409582946NJT2017052679838432000163201714120161412017141201729000 14822   00VAN     99945   201703310000000000000000021BRAUN               BRAUN RAUL                         336 JERROLD ESTATE                                                    GERMANTOWN                    NJ07001    FER0012                       NJ1234                        00000000          00000000          000000000000   D
NJH15KMU    00NJH15KMU  00111409582981NJT2017052679838432000163201714120161412017141201729000 14822   00VAN     99945   201703310000000000000000021POWLOWSKI           POWLOWSKI SOLON                    741 LISA WALK                                                         GERMANTOWN                    NJ07001    FER0012                       NJ1234                        00000000          00000000          000000000000   D
NJS61HLE    00NJS61HLE  00111409582982NJT2017052679838432000163201714120161412017141201729000 14822   00VAN     99945   201703310000000000000000021WALSH               WALSH DOMENICA                     099 TILLMAN LAKE                                                      GERMANTOWN                    NJ07001    FER0012                       NJ1234                        00000000          00000000          000000000000   D
NJXX934P    00NJXX934P  00111409582983NJT2017052679838432000163201714120161412017141201729000 14822   00VAN     99945   201703310000000000000000021DANIEL              DANIEL AMIE                        647 MERTZ CLIFFS                                                      GERMANTOWN                    NJ07001    FER0012                       NJ1234                        00000000          00000000          000000000000   D
NJS81GCV    00NJS81GCV  00111409582985NJT2017052679838432000163201714120161412017141201729000 14822   00VAN     99945   201703310000000000000000021KEEBLER             KEEBLER LAURINE                    7569 ELLIOT DIVIDE                                                    GERMANTOWN                    NJ07001    FER0012                       NJ1234                        00000000          00000000          000000000000   D
NJE84CVC    00NJE84CVC  00111409582987NJT2017052679838432000163201714120161412017141201729000 14822   00VAN     99945   201703310000000000000000021LAKIN               LAKIN BILLY                        5092 GILES MOUNTAIN                                                   GERMANTOWN                    NJ07001    FER0012                       NJ1234                        00000000          00000000          000000000000   D
NJCG9BMJ    00NJCG9BMJ  00111409582988NJT2017052679838432000163201714120161412017141201729000 14822   00VAN     99945   201703310000000000000000021PFANNERSTILL        PFANNERSTILL MAYA                  32574 ORN TRACK                                                       GERMANTOWN                    NJ07001    FER0012                       NJ1234                        00000000          00000000          000000000000   D
NJHANDYOC   00NJHANDYOC 00111409582989NJT2017052679838432000163201714120161412017141201729000 14822   00VAN     99945   201703310000000000000000021HODKIEWICZ          HODKIEWICZ ZELLA                   169 LILLA SPRINGS                                                     GERMANTOWN                    NJ07001    FER0012                       NJ1234                        00000000          00000000          000000000000   D
NJXEEH66    00NJXEEH66  00111409582990NJT2017052679838432000163201714120161412017141201729000 14822   00VAN     99945   201703310000000000000000021DACH                DACH ETHEL                         3226 WEIMANN ISLANDS                                                  GERMANTOWN                    NJ07001    FER0012                       NJ1234                        00000000          00000000          000000000000   D
NJM17JFN    00NJM17JFN  00111409582994NJT2017052679838432000163201714120161412017141201729000 14822   00VAN     99945   201703310000000000000000021OKUNEVA             OKUNEVA RAE                        5961 SCHMITT FORGES                                                   GERMANTOWN                    NJ07001    FER0012                       NJ1234                        00000000          00000000          000000000000   D
NJXFNL42    00NJXFNL42  00111409582995NJT2017052679838432000163201714120161412017141201729000 14822   00VAN     99945   201703310000000000000000021CARTER              CARTER WALLACE                     3064 MONTY KNOLL                                                      GERMANTOWN                    NJ07001    FER0012                       NJ1234                        00000000          00000000          000000000000   D
NJX88FGC    00NJX88FGC  00111409582996NJT2017052679838432000163201714120161412017141201729000 14822   00VAN     99945   201703310000000000000000021SCHULTZ             SCHULTZ MERRITT                    8216 RIPPIN COURT                                                     GERMANTOWN                    NJ07001    FER0012                       NJ1234                        00000000          00000000          000000000000   D
NJD42JGF    00NJD42JGF  00111409582947NJT2017052679838432000163201714120161412017141201729000 14822   00VAN     99945   201703310000000000000000021LANG                LANG IRWIN                         91926 VIVIANE CAUSEWAY                                                GERMANTOWN                    NJ07001    FER0012                       NJ1234                        00000000          00000000          000000000000   D
NJU96BXK    00NJU96BXK  00111409582948NJT2017052679838432000163201714120161412017141201729000 14822   00VAN     99945   201703310000000000000000021ONDRICKA            ONDRICKA CLARISSA                  060 MILAN WALK                                                        GERMANTOWN                    NJ07001    FER0012                       NJ1234                        00000000          00000000          000000000000   D
NJS67KFK    00NJS67KFK  00111409582949NJT2017052679838432000163201714120161412017141201729000 14822   00VAN     99945   201703310000000000000000021BOSCO               BOSCO MERLE                        058 MATHILDE DRIVES                                                   GERMANTOWN                    NJ07001    FER0012                       NJ1234                        00000000          00000000          000000000000   D
NJXEGH11    00NJXEGH11  00111409582950NJT2017052679838432000163201714120161412017141201729000 14822   00VAN     99945   201703310000000000000000021YUNDT               YUNDT HELENE                       909 DICKENS PLAIN                                                     GERMANTOWN                    NJ07001    FER0012                       NJ1234                        00000000          00000000          000000000000   D
NJR35FPR    00NJR35FPR  00111409582951NJT2017052679838432000163201714120161412017141201729000 14822   00VAN     99945   201703310000000000000000021RAU                 RAU GIDEON                         13769 DONNELLY TERRACE                                                GERMANTOWN                    NJ07001    FER0012                       NJ1234                        00000000          00000000          000000000000   D
NJS12KXR    00NJS12KXR  00111409582953NJT2017052679838432000163201714120161412017141201729000 14822   00VAN     99945   201703310000000000000000021HOPPE               HOPPE ANGUS                        649 CASSIN PASS                                                       GERMANTOWN                    NJ07001    FER0012                       NJ1234                        00000000          00000000          000000000000   D
NJH39FLW    00NJH39FLW  00111409582954NJT2017052679838432000163201714120161412017141201729000 14822   00VAN     99945   201703310000000000000000021LANG                LANG VELLA                         048 DIXIE THROUGHWAY                                                  GERMANTOWN                    NJ07001    FER0012                       NJ1234                        00000000          00000000          000000000000   D
NJZ29HCA    00NJZ29HCA  00111409582955NJT2017052679838432000163201714120161412017141201729000 14822   00VAN     99945   201703310000000000000000021DACH                DACH REILLY                        8801 MURRAY CIRCLES                                                   GERMANTOWN                    NJ07001    FER0012                       NJ1234                        00000000          00000000          000000000000   D
NJB61JNC    00NJB61JNC  00111409582956NJT2017052679838432000163201714120161412017141201729000 14822   00VAN     99945   201703310000000000000000021SCHIMMEL            SCHIMMEL RUPERT                    25349 CLEMENS FOREST                                                  GERMANTOWN                    NJ07001    FER0012                       NJ1234                        00000000          00000000          000000000000   D
NJG51HCN    00NJG51HCN  00111409582957NJT2017052679838432000163201714120161412017141201729000 14822   00VAN     99945   201703310000000000000000021CRIST               CRIST BRAEDEN                      24811 JORDYN SPUR                                                     GERMANTOWN                    NJ07001    FER0012                       NJ1234                        00000000          00000000          000000000000   D
NJB42CHP    00NJB42CHP  00111409582958NJT2017052679838432000163201714120161412017141201729000 14822   00VAN     99945   201703310000000000000000021TRANTOW             TRANTOW FABIAN                     449 NOVA ROAD                                                         GERMANTOWN                    NJ07001    FER0012                       NJ1234                        00000000          00000000          000000000000   D
NJW77LBL    00NJW77LBL  00111409582959NJT2017052679838432000163201714120161412017141201729000 14822   00VAN     99945   201703310000000000000000021FAHEY               FAHEY LONNIE                       419 GUTKOWSKI SQUARES                                                 GERMANTOWN                    NJ07001    FER0012                       NJ1234                        00000000          00000000          000000000000   D
NJY15JXU    00NJY15JXU  00111409582961NJT2017052679838432000163201714120161412017141201729000 14822   00VAN     99945   201703310000000000000000021KERTZMANN           KERTZMANN ZANE                     66434 CHRISTELLE ESTATES                                              GERMANTOWN                    NJ07001    FER0012                       NJ1234                        00000000          00000000          000000000000   D
NJR38HKH    00NJR38HKH  00111409582962NJT2017052679838432000163201714120161412017141201729000 14822   00VAN     99945   201703310000000000000000021CONSIDINE           CONSIDINE RONALDO                  5341 ROOB CANYON                                                      GERMANTOWN                    NJ07001    FER0012                       NJ1234                        00000000          00000000          000000000000   D
NJZRT85J    00NJZRT85J  00111409582963NJT2017052679838432000163201714120161412017141201729000 14822   00VAN     99945   201703310000000000000000021BOGAN               BOGAN FRANK                        0158 SCHUSTER TURNPIKE                                                GERMANTOWN                    NJ07001    FER0012                       NJ1234                        00000000          00000000          000000000000   D
NJUYP25Z    00NJUYP25Z  00111409583000NJT2017052679838432000163201714120161412017141201729000 14822   00VAN     99945   201703310000000000000000021BROWN               BROWN CYDNEY                       87998 BROOKS SQUARES                                                  GERMANTOWN                    NJ07001    FER0012                       NJ1234                        00000000          00000000          000000000000   D
NJMJL45C    00NJMJL45C  00111409583001NJT2017052679838432000163201714120161412017141201729000 14822   00VAN     99945   201703310000000000000000021WATERS              WATERS DUSTIN                      029 BAYER PORTS                                                       GERMANTOWN                    NJ07001    FER0012                       NJ1234                        00000000          00000000          000000000000   D
NJC72KNC    00NJC72KNC  00111409583003NJT2017052679838432000163201714120161412017141201729000 14822   00VAN     99945   201703310000000000000000021JAST                JAST PEARL                         788 BERGE DAM                                                         GERMANTOWN                    NJ07001    FER0012                       NJ1234                        00000000          00000000          000000000000   D
NJY85KPJ    00NJY85KPJ  00111409583004NJT2017052679838432000163201714120161412017141201729000 14822   00VAN     99945   201703310000000000000000021SCHUPPE             SCHUPPE FOSTER                     59200 LINDGREN VILLE                                                  GERMANTOWN                    NJ07001    FER0012                       NJ1234                        00000000          00000000          000000000000   D
NJT14KPW    00NJT14KPW  00111409583005NJT2017052679838432000163201714120161412017141201729000 14822   00VAN     99945   201703310000000000000000021WALTER              WALTER ROLANDO                     195 WISOZK GATEWAY                                                    GERMANTOWN                    NJ07001    FER0012                       NJ1234                        00000000          00000000          000000000000   D
NJZWH23H    00NJZWH23H  00111409583006NJT2017052679838432000163201714120161412017141201729000 14822   00VAN     99945   201703310000000000000000021DICKENS             DICKENS VANESSA                    2804 BERGE SQUARE                                                     GERMANTOWN                    NJ07001    FER0012                       NJ1234                        00000000          00000000          000000000000   D
NJM44JTF    00NJM44JTF  00111409583007NJT2017052679838432000163201714120161412017141201729000 14822   00VAN     99945   201703310000000000000000021COLE                COLE GENERAL                       457 BAUCH ISLAND                                                      GERMANTOWN                    NJ07001    FER0012                       NJ1234                        00000000          00000000          000000000000   D
PAYTN9913   00PAYTN9913 00111409583009NJT2017052679838432000163201714120161412017141201729000 14822   00VAN     99945   201703310000000000000000021OHARA               OHARA MAGGIE                       7998 KARIANE PLAIN                                                    GERMANTOWN                    NJ07001    FER0012                       NJ1234                        00000000          00000000          000000000000   D
NJXBJL22    00NJXBJL22  00111409583010NJT2017052679838432000163201714120161412017141201729000 14822   00VAN     99945   201703310000000000000000021KOZEY               KOZEY ALEXIE                       861 CORDIE CLIFF                                                      GERMANTOWN                    NJ07001    FER0012                       NJ1234                        00000000          00000000          000000000000   D
NJCG6BAZ    00NJCG6BAZ  00111409583012NJT2017052679838432000163201714120161412017141201729000 14822   00VAN     99945   201703310000000000000000021LANGWORTH           LANGWORTH JOHNSON                  74704 WATSICA FORT                                                    GERMANTOWN                    NJ07001    FER0012                       NJ1234                        00000000          00000000          000000000000   D
NJM93HYM    00NJM93HYM  00111409583013NJT2017052679838432000163201714120161412017141201729000 14822   00VAN     99945   201703310000000000000000021THOMPSON            THOMPSON MATT                      59450 LANCE FLAT                                                      GERMANTOWN                    NJ07001    FER0012                       NJ1234                        00000000          00000000          000000000000   D
NJH15DWD    00NJH15DWD  00111409583014NJT2017052679838432000163201714120161412017141201729000 14822   00VAN     99945   201703310000000000000000021DICKENS             DICKENS RUBYE                      45592 BEAU RUE                                                        GERMANTOWN                    NJ07001    FER0012                       NJ1234                        00000000          00000000          000000000000   D
NJK78JGF    00NJK78JGF  00111409582964NJT2017052679838432000163201714120161412017141201729000 14822   00VAN     99945   201703310000000000000000021WUCKERT             WUCKERT GARNET                     454 MOSCISKI STATION                                                  GERMANTOWN                    NJ07001    FER0012                       NJ1234                        00000000          00000000          000000000000   D
NJF38KCZ    00NJF38KCZ  00111409582965NJT2017052679838432000163201714120161412017141201729000 14822   00VAN     99945   201703310000000000000000021MAYERT              MAYERT DERICK                      00568 DIEGO VISTA                                                     GERMANTOWN                    NJ07001    FER0012                       NJ1234                        00000000          00000000          000000000000   D
NJXFFP26    00NJXFFP26  00111409582966NJT2017052679838432000163201714120161412017141201729000 14822   00VAN     99945   201703310000000000000000021MAGGIO              MAGGIO ASHLEY                      254 BLAKE ISLANDS                                                     GERMANTOWN                    NJ07001    FER0012                       NJ1234                        00000000          00000000          000000000000   D
NJYFE55E    00NJYFE55E  00111409582967NJT2017052679838432000163201714120161412017141201729000 14822   00VAN     99945   201703310000000000000000021KEMMER              KEMMER GERSON                      02949 MANUELA OVAL                                                    GERMANTOWN                    NJ07001    FER0012                       NJ1234                        00000000          00000000          000000000000   D
PAKXH7648   00PAKXH7648 00111409582968NJT2017052679838432000163201714120161412017141201729000 14822   00VAN     99945   201703310000000000000000021SCHADEN             SCHADEN CELINE                     374 HOWE REST                                                         GERMANTOWN                    NJ07001    FER0012                       NJ1234                        00000000          00000000          000000000000   D
NJV52GPB    00NJV52GPB  00111409582969NJT2017052679838432000163201714120161412017141201729000 14822   00VAN     99945   201703310000000000000000021RUSSEL              RUSSEL ABIGAIL                     9639 BEIER RAPIDS                                                     GERMANTOWN                    NJ07001    FER0012                       NJ1234                        00000000          00000000          000000000000   D
NJC72KRC    00NJC72KRC  00111409582970NJT2017052679838432000163201714120161412017141201729000 14822   00VAN     99945   201703310000000000000000021CORWIN              CORWIN LIZA                        0321 KRAJCIK SHOAL                                                    GERMANTOWN                    NJ07001    FER0012                       NJ1234                        00000000          00000000          000000000000   D
NJH91JHN    00NJH91JHN  00111409582971NJT2017052679838432000163201714120161412017141201729000 14822   00VAN     99945   201703310000000000000000021KSHLERIN            KSHLERIN AUSTYN                    129 RUNTE COURTS                                                      GERMANTOWN                    NJ07001    FER0012                       NJ1234                        00000000          00000000          000000000000   D
NJT24LAP    00NJT24LAP  00111409582974NJT2017052679838432000163201714120161412017141201729000 14822   00VAN     99945   201703310000000000000000021LYNCH               LYNCH LOURDES                      82763 NIGEL ISLE                                                      GERMANTOWN                    NJ07001    FER0012                       NJ1234                        00000000          00000000          000000000000   D
NJX86GMN    00NJX86GMN  00111409582975NJT2017052679838432000163201714120161412017141201729000 14822   00VAN     99945   201703310000000000000000021PADBERG             PADBERG MATTEO                     7244 ABBOTT TRAIL                                                     GERMANTOWN                    NJ07001    FER0012                       NJ1234                        00000000          00000000          000000000000   D
NJF34JFZ    00NJF34JFZ  00111409582976NJT2017052679838432000163201714120161412017141201729000 14822   00VAN     99945   201703310000000000000000021CRUICKSHANK         CRUICKSHANK GAYLORD                170 COURTNEY DRIVES                                                   GERMANTOWN                    NJ07001    FER0012                       NJ1234                        00000000          00000000          000000000000   D
NJF52KDE    00NJF52KDE  00111409582977NJT2017052679838432000163201714120161412017141201729000 14822   00VAN     99945   201703310000000000000000021ZEMLAK              ZEMLAK GERSON                      138 KORBIN CAPE                                                       GERMANTOWN                    NJ07001    FER0012                       NJ1234                        00000000          00000000          000000000000   D
NJXFXT88    00NJXFXT88  00111409582978NJT2017052679838432000163201714120161412017141201729000 14822   00VAN     99945   201703310000000000000000021GUTMANN             GUTMANN MANUELA                    129 MEDHURST PLAIN                                                    GERMANTOWN                    NJ07001    FER0012                       NJ1234                        00000000          00000000          000000000000   D
NJE52KMU    00NJE52KMU  00111409582979NJT2017052679838432000163201714120161412017141201729000 14822   00VAN     99945   201703310000000000000000021YUNDT               YUNDT RODRICK                      8698 VON FORKS                                                        GERMANTOWN                    NJ07001    FER0012                       NJ1234                        00000000          00000000          000000000000   D
FLKQYC93    00FLKQYC93  00111409582980NJT2017052679838432000163201714120161412017141201729000 14822   00VAN     99945   201703310000000000000000021JAKUBOWSKI          JAKUBOWSKI JAIDA                   771 MACEJKOVIC ORCHARD                                                GERMANTOWN                    NJ07001    FER0012                       NJ1234                        00000000          00000000          000000000000   D
NJS71HBB    00NJS71HBB  00111409583015NJT2017052679838432000163201714120161412017141201729000 14822   00VAN     99945   201703310000000000000000021HAUCK               HAUCK ROSALEE                      28043 JACKLYN ORCHARD                                                 GERMANTOWN                    NJ07001    FER0012                       NJ1234                        00000000          00000000          000000000000   D
NJC75KLM    00NJC75KLM  00111409583016NJT2017052679838432000163201714120161412017141201729000 14822   00VAN     99945   201703310000000000000000021WIEGAND             WIEGAND ALEXIS                     62783 FAHEY TUNNEL                                                    GERMANTOWN                    NJ07001    FER0012                       NJ1234                        00000000          00000000          000000000000   D
NJXEGH95    00NJXEGH95  00111409583017NJT2017052679838432000163201714120161412017141201729000 14822   00VAN     99945   201703310000000000000000021METZ                METZ MANLEY                        228 MACGYVER GLEN                                                     GERMANTOWN                    NJ07001    FER0012                       NJ1234                        00000000          00000000          000000000000   D
MD8CJ6050   00MD8CJ6050 00111409583018NJT2017052679838432000163201714120161412017141201729000 14822   00VAN     99945   201703310000000000000000021DUBUQUE             DUBUQUE LEMUEL                     1968 BRAD CAPE                                                        GERMANTOWN                    NJ07001    FER0012                       NJ1234                        00000000          00000000          000000000000   D
NJK25KBJ    00NJK25KBJ  00111409583019NJT2017052679838432000163201714120161412017141201729000 14822   00VAN     99945   201703310000000000000000021BODE                BODE GEOVANNY                      6946 BLOCK GATEWAY                                                    GERMANTOWN                    NJ07001    FER0012                       NJ1234                        00000000          00000000          000000000000   D
NJN36LAH    00NJN36LAH  00111409583020NJT2017052679838432000163201714120161412017141201729000 14822   00VAN     99945   201703310000000000000000021PRICE               PRICE ORAN                         174 BECHTELAR MOUNTAINS                                               GERMANTOWN                    NJ07001    FER0012                       NJ1234                        00000000          00000000          000000000000   D
NJK35HWD    00NJK35HWD  00111409583021NJT2017052679838432000163201714120161412017141201729000 14822   00VAN     99945   201703310000000000000000021ROBEL               ROBEL MAIYA                        42895 MARSHALL MOUNTAINS                                              GERMANTOWN                    NJ07001    FER0012                       NJ1234                        00000000          00000000          000000000000   D
NJUYC51Y    00NJUYC51Y  00111409583022NJT2017052679838432000163201714120161412017141201729000 14822   00VAN     99945   201703310000000000000000021BROWN               BROWN FRANCISCA                    29201 HINTZ VALLEYS                                                   GERMANTOWN                    NJ07001    FER0012                       NJ1234                        00000000          00000000          000000000000   D
NJS88JFP    00NJS88JFP  00111409583023NJT2017052679838432000163201714120161412017141201729000 14822   00VAN     99945   201703310000000000000000021CHAMPLIN            CHAMPLIN EARNEST                   4749 RICKIE STREETS                                                   GERMANTOWN                    NJ07001    FER0012                       NJ1234                        00000000          00000000          000000000000   D
NJV18JXU    00NJV18JXU  00111409583025NJT2017052679838432000163201714120161412017141201729000 14822   00VAN     99945   201703310000000000000000021ZEMLAK              ZEMLAK REVA                        4559 WAELCHI HARBOR                                                   GERMANTOWN                    NJ07001    FER0012                       NJ1234                        00000000          00000000          000000000000   D
NJV22JRD    00NJV22JRD  00111409583026NJT2017052679838432000163201714120161412017141201729000 14822   00VAN     99945   201703310000000000000000021LYNCH               LYNCH DAIJA                        90223 CORKERY SPRINGS                                                 GERMANTOWN                    NJ07001    FER0012                       NJ1234                        00000000          00000000          000000000000   D
NJH99HVH    00NJH99HVH  00111409583027NJT2017052679838432000163201714120161412017141201729000 14822   00VAN     99945   201703310000000000000000021TOWNE               TOWNE KEELY                        7408 NOELIA GLENS                                                     GERMANTOWN                    NJ07001    FER0012                       NJ1234                        00000000          00000000          000000000000   D
NJW74KPW    00NJW74KPW  00111409583028NJT2017052679838432000163201714120161412017141201729000 14822   00VAN     99945   201703310000000000000000021NICOLAS             NICOLAS CIELO                      402 AUGUSTINE FLAT                                                    GERMANTOWN                    NJ07001    FER0012                       NJ1234                        00000000          00000000          000000000000   D
NJU88GGV    00NJU88GGV  00111409583030NJT2017052679838432000163201714120161412017141201729000 14822   00VAN     99945   201703310000000000000000021BLOCK               BLOCK AKEEM                        0346 MULLER FORGE                                                     GERMANTOWN                    NJ07001    FER0012                       NJ1234                        00000000          00000000          000000000000   D
PAJGR4060   00PAJGR4060 00111409583031NJT2017052679838432000163201714120161412017141201729000 14822   00VAN     99945   201703310000000000000000021LABADIE             LABADIE GRACIELA                   871 FILIBERTO SPUR                                                    GERMANTOWN                    NJ07001    FER0012                       NJ1234                        00000000          00000000          000000000000   D
NJXS600H    00NJXS600H  00111409583032NJT2017052679838432000163201714120161412017141201729000 14822   00VAN     99945   201703310000000000000000021MORAR               MORAR ZARIA                        765 ELYSE STREAM                                                      GERMANTOWN                    NJ07001    FER0012                       NJ1234                        00000000          00000000          000000000000   D
NJN98FRD    00NJN98FRD  00111409583033NJT2017052679838432000163201714120161412017141201729000 14822   00VAN     99945   201703310000000000000000021FAY                 FAY MARTIN                         55015 SIMONIS VIA                                                     GERMANTOWN                    NJ07001    FER0012                       NJ1234                        00000000          00000000          000000000000   D
NJE96JBE    00NJE96JBE  00111409583035NJT2017052679838432000163201714120161412017141201729000 14822   00VAN     99945   201703310000000000000000021TURCOTTE            TURCOTTE MARIO                     5402 MAYNARD ORCHARD                                                  GERMANTOWN                    NJ07001    FER0012                       NJ1234                        00000000          00000000          000000000000   D
NJD62DYN    00NJD62DYN  00111409583036NJT2017052679838432000163201714120161412017141201729000 14822   00VAN     99945   201703310000000000000000021SCHMITT             SCHMITT QUINCY                     7241 NICOLAS WAYS                                                     GERMANTOWN                    NJ07001    FER0012                       NJ1234                        00000000          00000000          000000000000   D
NJV84JML    00NJV84JML  00111409583037NJT2017052679838432000163201714120161412017141201729000 14822   00VAN     99945   201703310000000000000000021HERMANN             HERMANN CRISTOPHER                 5912 MANTE LANDING                                                    GERMANTOWN                    NJ07001    FER0012                       NJ1234                        00000000          00000000          000000000000   D
NJPRA38X    00NJPRA38X  00111409583038NJT2017052679838432000163201714120161412017141201729000 14822   00VAN     99945   201703310000000000000000021MITCHELL            MITCHELL CALI                      3490 GAYLORD MOUNTAIN                                                 GERMANTOWN                    NJ07001    FER0012                       NJ1234                        00000000          00000000          000000000000   D
NJY64HCJ    00NJY64HCJ  00111409583039NJT2017052679838432000163201714120161412017141201729000 14822   00VAN     99945   201703310000000000000000021STOLTENBERG         STOLTENBERG HALEIGH                33102 JUWAN CLIFFS                                                    GERMANTOWN                    NJ07001    FER0012                       NJ1234                        00000000          00000000          000000000000   D
NJT36JJV    00NJT36JJV  00111409583041NJT2017052679838432000163201714120161412017141201729000 14822   00VAN     99945   201703310000000000000000021MURAZIK             MURAZIK MYA                        741 CHAMPLIN UNDERPASS                                                GERMANTOWN                    NJ07001    FER0012                       NJ1234                        00000000          00000000          000000000000   D
PAZMJ4589   00PAZMJ4589 00111409583042NJT2017052679838432000163201714120161412017141201729000 14822   00VAN     99945   201703310000000000000000021BOGISICH            BOGISICH ALVERA                    1089 EMILIE DAM                                                       GERMANTOWN                    NJ07001    FER0012                       NJ1234                        00000000          00000000          000000000000   D
PAYVH1745   00PAYVH1745 00111409583045NJT2017052679838432000163201714120161412017141201729000 14822   00VAN     99945   201703310000000000000000021LEHNER              LEHNER AHMAD                       13651 ADOLF PARKWAY                                                   GERMANTOWN                    NJ07001    FER0012                       NJ1234                        00000000          00000000          000000000000   D
NJXGFX27    00NJXGFX27  00111409583047NJT2017052679838432000163201714120161412017141201729000 14822   00VAN     99945   201703310000000000000000021TREUTEL             TREUTEL WILFRED                    908 TERRILL ROADS                                                     GERMANTOWN                    NJ07001    FER0012                       NJ1234                        00000000          00000000          000000000000   D
NJV49DKC    00NJV49DKC  00111409583048NJT2017052679838432000163201714120161412017141201729000 14822   00VAN     99945   201703310000000000000000021OCONNELL            OCONNELL PERRY                     046 JOHNS MANOR                                                       GERMANTOWN                    NJ07001    FER0012                       NJ1234                        00000000          00000000          000000000000   D
PAKCX7310   00PAKCX7310 00111409583049NJT2017052679838432000163201714120161412017141201729000 14822   00VAN     99945   201703310000000000000000021DICKI               DICKI EDYTH                        378 LUCAS MISSION                                                     GERMANTOWN                    NJ07001    FER0012                       NJ1234                        00000000          00000000          000000000000   D
NJM38HCN    00NJM38HCN  00111409583050NJT2017052679838432000163201714120161412017141201729000 14822   00VAN     99945   201703310000000000000000021ZULAUF              ZULAUF JAYNE                       11261 MAUD POINTS                                                     GERMANTOWN                    NJ07001    FER0012                       NJ1234                        00000000          00000000          000000000000   D
NJV33KWN    00NJV33KWN  00111409583051NJT2017052679838432000163201714120161412017141201729000 14822   00VAN     99945   201703310000000000000000021WISOZK              WISOZK MYRTLE                      705 VALENTIN JUNCTION                                                 GERMANTOWN                    NJ07001    FER0012                       NJ1234                        00000000          00000000          000000000000   D
NJXY537J    00NJXY537J  00111409583052NJT2017052679838432000163201714120161412017141201729000 14822   00VAN     99945   201703310000000000000000021OCONNER             OCONNER AUSTYN                     47216 EUDORA DIVIDE                                                   GERMANTOWN                    NJ07001    FER0012                       NJ1234                        00000000          00000000          000000000000   D
NJNXZ96L    00NJNXZ96L  00111409583054NJT2017052679838432000163201714120161412017141201729000 14822   00VAN     99945   201703310000000000000000021WALSH               WALSH GAETANO                      905 TOMMIE DRIVE                                                      GERMANTOWN                    NJ07001    FER0012                       NJ1234                        00000000          00000000          000000000000   D
NJXC394N    00NJXC394N  00111409583055NJT2017052679838432000163201714120161412017141201729000 14822   00VAN     99945   201703310000000000000000021OKON                OKON SIMONE                        64546 MINNIE ISLANDS                                                  GERMANTOWN                    NJ07001    FER0012                       NJ1234                        00000000          00000000          000000000000   D
NJR63HFW    00NJR63HFW  00111409583056NJT2017052679838432000163201714120161412017141201729000 14822   00VAN     99945   201703310000000000000000021ERNSER              ERNSER AILEEN                      845 ELDA PATH                                                         GERMANTOWN                    NJ07001    FER0012                       NJ1234                        00000000          00000000          000000000000   D
NJZ23CZR    00NJZ23CZR  00111409583057NJT2017052679838432000163201714120161412017141201729000 14822   00VAN     99945   201703310000000000000000021HAMMES              HAMMES DOROTHY                     4697 STOKES TRAIL                                                     GERMANTOWN                    NJ07001    FER0012                       NJ1234                        00000000          00000000          000000000000   D
NJXGFW18    00NJXGFW18  00111409583058NJT2017052679838432000163201714120161412017141201729000 14822   00VAN     99945   201703310000000000000000021GRADY               GRADY ELODY                        042 BERT VILLAGES                                                     GERMANTOWN                    NJ07001    FER0012                       NJ1234                        00000000          00000000          000000000000   D
NJZ92JVU    00NJZ92JVU  00111409583060NJT2017052679838432000163201714120161412017141201729000 14822   00VAN     99945   201703310000000000000000021LIND                LIND AUDRA                         1237 CLEVELAND VISTA                                                  GERMANTOWN                    NJ07001    FER0012                       NJ1234                        00000000          00000000          000000000000   D
PAKYL9906   00PAKYL9906 00111409583061NJT2017052679838432000163201714120161412017141201729000 14822   00VAN     99945   201703310000000000000000021ABBOTT              ABBOTT CHEYENNE                    891 BRUEN JUNCTION                                                    GERMANTOWN                    NJ07001    FER0012                       NJ1234                        00000000          00000000          000000000000   D
NJK59JWU    00NJK59JWU  00111409583063NJT2017052679838432000163201714120161412017141201729000 14822   00VAN     99945   201703310000000000000000021CONSIDINE           CONSIDINE DREW                     80712 STEFANIE ROADS                                                  GERMANTOWN                    NJ07001    FER0012                       NJ1234                        00000000          00000000          000000000000   D
NJXERV36    00NJXERV36  00111409583064NJT2017052679838432000163201714120161412017141201729000 14822   00VAN     99945   201703310000000000000000021KUNDE               KUNDE ARNE                         77990 IGNACIO MEADOWS                                                 GERMANTOWN                    NJ07001    FER0012                       NJ1234                        00000000          00000000          000000000000   D
NJH67KRF    00NJH67KRF  00111409583066NJT2017052679838432000163201714120161412017141201729000 14822   00VAN     99945   201703310000000000000000021DARE                DARE VENA                          950 ZEMLAK RIVER                                                      GERMANTOWN                    NJ07001    FER0012                       NJ1234                        00000000          00000000          000000000000   D
NJH29KEV    00NJH29KEV  00111409583067NJT2017052679838432000163201714120161412017141201729000 14822   00VAN     99945   201703310000000000000000021GREENFELDER         GREENFELDER BERNIECE               052 MORISSETTE HARBOR                                                 GERMANTOWN                    NJ07001    FER0012                       NJ1234                        00000000          00000000          000000000000   D
NJXBMS70    00NJXBMS70  00111409583068NJT2017052679838432000163201714120161412017141201729000 14822   00VAN     99945   201703310000000000000000021MEDHURST            MEDHURST ARCH                      717 CLETA LANDING                                                     GERMANTOWN                    NJ07001    FER0012                       NJ1234                        00000000          00000000          000000000000   D
NJK41GRM    00NJK41GRM  00111409583069NJT2017052679838432000163201714120161412017141201729000 14822   00VAN     99945   201703310000000000000000021JENKINS             JENKINS ZACKARY                    361 TRINITY FORGES                                                    GERMANTOWN                    NJ07001    FER0012                       NJ1234                        00000000          00000000          000000000000   D
NJB61KTC    00NJB61KTC  00111409583070NJT2017052679838432000163201714120161412017141201729000 14822   00VAN     99945   201703310000000000000000021LEFFLER             LEFFLER KOBY                       47744 LUEILWITZ TUNNEL                                                GERMANTOWN                    NJ07001    FER0012                       NJ1234                        00000000          00000000          000000000000   D
NJA23FMV    00NJA23FMV  00111409583071NJT2017052679838432000163201714120161412017141201729000 14822   00VAN     99945   201703310000000000000000021KOZEY               KOZEY ETHELYN                      85249 MADILYN GATEWAY                                                 GERMANTOWN                    NJ07001    FER0012                       NJ1234                        00000000          00000000          000000000000   D
NJXGYX77    00NJXGYX77  00111409583072NJT2017052679838432000163201714120161412017141201729000 14822   00VAN     99945   201703310000000000000000021MURPHY              MURPHY DEMARCO                     766 LAKIN UNDERPASS                                                   GERMANTOWN                    NJ07001    FER0012                       NJ1234                        00000000          00000000          000000000000   D
NJSU111B    00NJSU111B  00111409583073NJT2017052679838432000163201714120161412017141201729000 14822   00VAN     99945   201703310000000000000000021SKILES              SKILES MACEY                       6160 HILPERT FORK                                                     GERMANTOWN                    NJ07001    FER0012                       NJ1234                        00000000          00000000          000000000000   D
NJV98KWN    00NJV98KWN  00111409583074NJT2017052679838432000163201714120161412017141201729000 14822   00VAN     99945   201703310000000000000000021WEST                WEST MARJORIE                      478 NASIR PORT                                                        GERMANTOWN                    NJ07001    FER0012                       NJ1234                        00000000          00000000          000000000000   D
NJXY954P    00NJXY954P  00111409583075NJT2017052679838432000163201714120161412017141201729000 14822   00VAN     99945   201703310000000000000000021MOHR                MOHR JULIAN                        04953 ELDRIDGE WAYS                                                   GERMANTOWN                    NJ07001    FER0012                       NJ1234                        00000000          00000000          000000000000   D
NJE88JXX    00NJE88JXX  00111409583076NJT2017052679838432000163201714120161412017141201729000 14822   00VAN     99945   201703310000000000000000021GERHOLD             GERHOLD ABIGAYLE                   190 KERTZMANN DIVIDE                                                  GERMANTOWN                    NJ07001    FER0012                       NJ1234                        00000000          00000000          000000000000   D
NJXGAD36    00NJXGAD36  00111409583077NJT2017052679838432000163201714120161412017141201729000 14822   00VAN     99945   201703310000000000000000021KEELING             KEELING HEAVEN                     44166 JAVIER PIKE                                                     GERMANTOWN                    NJ07001    FER0012                       NJ1234                        00000000          00000000          000000000000   D
NJZHY71B    00NJZHY71B  00111409583079NJT2017052679838432000163201714120161412017141201729000 14822   00VAN     99945   201703310000000000000000021THOMPSON            THOMPSON ASHLEIGH                  4058 TILLMAN STRAVENUE                                                GERMANTOWN                    NJ07001    FER0012                       NJ1234                        00000000          00000000          000000000000   D
NJBF297B    00NJBF297B  00111409583080NJT2017052679838432000163201714120161412017141201729000 14822   00VAN     99945   201703310000000000000000021WIZA                WIZA MELANY                        00005 JERDE FREEWAY                                                   GERMANTOWN                    NJ07001    FER0012                       NJ1234                        00000000          00000000          000000000000   D
NJN47DAC    00NJN47DAC  00111409583082NJT2017052679838432000163201714120161412017141201729000 14822   00VAN     99945   201703310000000000000000021HERZOG              HERZOG NEAL                        66357 NIKOLAS CIRCLE                                                  GERMANTOWN                    NJ07001    FER0012                       NJ1234                        00000000          00000000          000000000000   D
MD4DN7384   00MD4DN7384 00111409583084NJT2017052679838432000163201714120161412017141201729000 14822   00VAN     99945   201703310000000000000000021KUPHAL              KUPHAL REYMUNDO                    2321 RATKE VALLEY                                                     GERMANTOWN                    NJ07001    FER0012                       NJ1234                        00000000          00000000          000000000000   D
NJZ16KSN    00NJZ16KSN  00111409583085NJT2017052679838432000163201714120161412017141201729000 14822   00VAN     99945   201703310000000000000000021JACOBI              JACOBI JACLYN                      5292 FARRELL MOUNT                                                    GERMANTOWN                    NJ07001    FER0012                       NJ1234                        00000000          00000000          000000000000   D
NJV87JUJ    00NJV87JUJ  00111409583086NJT2017052679838432000163201714120161412017141201729000 14822   00VAN     99945   201703310000000000000000021CASSIN              CASSIN JOSUE                       29699 LEONOR HAVEN                                                    GERMANTOWN                    NJ07001    FER0012                       NJ1234                        00000000          00000000          000000000000   D
NJC62HFA    00NJC62HFA  00111409583087NJT2017052679838432000163201714120161412017141201729000 14822   00VAN     99945   201703310000000000000000021FADEL               FADEL ADALBERTO                    2502 ABBY ROAD                                                        GERMANTOWN                    NJ07001    FER0012                       NJ1234                        00000000          00000000          000000000000   D
NJRJE77W    00NJRJE77W  00111409583088NJT2017052679838432000163201714120161412017141201729000 14822   00VAN     99945   201703310000000000000000021MUELLER             MUELLER MYRNA                      723 BARTHOLOME GLENS                                                  GERMANTOWN                    NJ07001    FER0012                       NJ1234                        00000000          00000000          000000000000   D
NJY46KPJ    00NJY46KPJ  00111409583089NJT2017052679838432000163201714120161412017141201729000 14822   00VAN     99945   201703310000000000000000021CHAMPLIN            CHAMPLIN ORPHA                     068 RUECKER BROOK                                                     GERMANTOWN                    NJ07001    FER0012                       NJ1234                        00000000          00000000          000000000000   D
PAZHX6072   00PAZHX6072 00111409583090NJT2017052679838432000163201714120161412017141201729000 14822   00VAN     99945   201703310000000000000000021CORMIER             CORMIER ZOLA                       0024 MACY DRIVE                                                       GERMANTOWN                    NJ07001    FER0012                       NJ1234                        00000000          00000000          000000000000   D
NJV42EVS    00NJV42EVS  00111409583091NJT2017052679838432000163201714120161412017141201729000 14822   00VAN     99945   201703310000000000000000021ROWE                ROWE GEORGIANNA                    1663 EICHMANN VALLEY                                                  GERMANTOWN                    NJ07001    FER0012                       NJ1234                        00000000          00000000          000000000000   D
PAKCM6514   00PAKCM6514 00111409583092NJT2017052679838432000163201714120161412017141201729000 14822   00VAN     99945   201703310000000000000000021STAMM               STAMM KATHRYN                      673 MILES STATION                                                     GERMANTOWN                    NJ07001    FER0012                       NJ1234                        00000000          00000000          000000000000   D
NJPZC92W    00NJPZC92W  00111409583093NJT2017052679838432000163201714120161412017141201729000 14822   00VAN     99945   201703310000000000000000021BOYER               BOYER SALLY                        13890 CLOVIS ESTATES                                                  GERMANTOWN                    NJ07001    FER0012                       NJ1234                        00000000          00000000          000000000000   D
NJC81LBK    00NJC81LBK  00111409583094NJT2017052679838432000163201714120161412017141201729000 14822   00VAN     99945   201703310000000000000000021ROBERTS             ROBERTS STANLEY                    0182 CAMDEN POINTS                                                    GERMANTOWN                    NJ07001    FER0012                       NJ1234                        00000000          00000000          000000000000   D
NJH19JZC    00NJH19JZC  00111409583095NJT2017052679838432000163201714120161412017141201729000 14822   00VAN     99945   201703310000000000000000021KUHLMAN             KUHLMAN LONNIE                     5766 ANDERSON POINT                                                   GERMANTOWN                    NJ07001    FER0012                       NJ1234                        00000000          00000000          000000000000   D
NJX9580S    00NJX9580S  00111409583096NJT2017052679838432000163201714120161412017141201729000 14822   00VAN     99945   201703310000000000000000021TORPHY              TORPHY NINA                        041 DURGAN BYPASS                                                     GERMANTOWN                    NJ07001    FER0012                       NJ1234                        00000000          00000000          000000000000   D
NJH81JHN    00NJH81JHN  00111409583097NJT2017052679838432000163201714120161412017141201729000 14822   00VAN     99945   201703310000000000000000021HARVEY              HARVEY YASMIN                      553 DEJON STATION                                                     GERMANTOWN                    NJ07001    FER0012                       NJ1234                        00000000          00000000          000000000000   D
PAKSD4043   00PAKSD4043 00111409583098NJT2017052679838432000163201714120161412017141201729000 14822   00VAN     99945   201703310000000000000000021GLEICHNER           GLEICHNER LOUIE                    224 SHAUN SUMMIT                                                      GERMANTOWN                    NJ07001    FER0012                       NJ1234                        00000000          00000000          000000000000   D
NJU72KLS    00NJU72KLS  00111409583099NJT2017052679838432000163201714120161412017141201729000 14822   00VAN     99945   201703310000000000000000021KREIGER             KREIGER LOY                        976 STARK PINES                                                       GERMANTOWN                    NJ07001    FER0012                       NJ1234                        00000000          00000000          000000000000   D
NJMJ855N    00NJMJ855N  00111409583100NJT2017052679838432000163201714120161412017141201729000 14822   00VAN     99945   201703310000000000000000021FAY                 FAY DEION                          709 MARGE GREENS                                                      GERMANTOWN                    NJ07001    FER0012                       NJ1234                        00000000          00000000          000000000000   D
NJXBAM41    00NJXBAM41  00111409583102NJT2017052679838432000163201714120161412017141201729000 14822   00VAN     99945   201703310000000000000000021HERMANN             HERMANN JOANNY                     174 JOHNS SPRINGS                                                     GERMANTOWN                    NJ07001    FER0012                       NJ1234                        00000000          00000000          000000000000   D
NJK87HLS    00NJK87HLS  00111409583103NJT2017052679838432000163201714120161412017141201729000 14822   00VAN     99945   201703310000000000000000021WATSICA             WATSICA CONSTANTIN                 11950 CAROLINE CIRCLES                                                GERMANTOWN                    NJ07001    FER0012                       NJ1234                        00000000          00000000          000000000000   D
NJT12FAN    00NJT12FAN  00111409583104NJT2017052679838432000163201714120161412017141201729000 14822   00VAN     99945   201703310000000000000000021HODKIEWICZ          HODKIEWICZ DORCAS                  0800 HARMONY PIKE                                                     GERMANTOWN                    NJ07001    FER0012                       NJ1234                        00000000          00000000          000000000000   D
NJJ68JHN    00NJJ68JHN  00111409583105NJT2017052679838432000163201714120161412017141201729000 14822   00VAN     99945   201703310000000000000000021CRUICKSHANK         CRUICKSHANK MURL                   68499 RICHIE JUNCTION                                                 GERMANTOWN                    NJ07001    FER0012                       NJ1234                        00000000          00000000          000000000000   D
NJV20DNT    00NJV20DNT  00111409583106NJT2017052679838432000163201714120161412017141201729000 14822   00VAN     99945   201703310000000000000000021KASSULKE            KASSULKE LEONORA                   6854 POUROS DRIVES                                                    GERMANTOWN                    NJ07001    FER0012                       NJ1234                        00000000          00000000          000000000000   D
NJYKL18J    00NJYKL18J  00111409583107NJT2017052679838432000163201714120161412017141201729000 14822   00VAN     99945   201703310000000000000000021BOYLE               BOYLE MARIA                        53535 FERRY STRAVENUE                                                 GERMANTOWN                    NJ07001    FER0012                       NJ1234                        00000000          00000000          000000000000   D
NJWGP50C    00NJWGP50C  00111409583109NJT2017052679838432000163201714120161412017141201729000 14822   00VAN     99945   201703310000000000000000021RUTHERFORD          RUTHERFORD XZAVIER                 319 ELINOR CREEK                                                      GERMANTOWN                    NJ07001    FER0012                       NJ1234                        00000000          00000000          000000000000   D
NJV33LAH    00NJV33LAH  00111409583112NJT2017052679838432000163201714120161412017141201729000 14822   00VAN     99945   201703310000000000000000021KUNDE               KUNDE PHOEBE                       20159 ZION LAND                                                       GERMANTOWN                    NJ07001    FER0012                       NJ1234                        00000000          00000000          000000000000   D
NJL13HWD    00NJL13HWD  00111409583114NJT2017052679838432000163201714120161412017141201729000 14822   00VAN     99945   201703310000000000000000021REMPEL              REMPEL SPENCER                     67961 LABADIE PATH                                                    GERMANTOWN                    NJ07001    FER0012                       NJ1234                        00000000          00000000          000000000000   D
NJPJW54D    00NJPJW54D  00111409583115NJT2017052679838432000163201714120161412017141201729000 14822   00VAN     99945   201703310000000000000000021WOLFF               WOLFF TREVOR                       8758 KLING SPRING                                                     GERMANTOWN                    NJ07001    FER0012                       NJ1234                        00000000          00000000          000000000000   D
NJB21DNC    00NJB21DNC  00111409583116NJT2017052679838432000163201714120161412017141201729000 14822   00VAN     99945   201703310000000000000000021KERTZMANN           KERTZMANN FLETCHER                 595 CARTER HARBOR                                                     GERMANTOWN                    NJ07001    FER0012                       NJ1234                        00000000          00000000          000000000000   D
NJD83GZS    00NJD83GZS  00111409583117NJT2017052679838432000163201714120161412017141201729000 14822   00VAN     99945   201703310000000000000000021STANTON             STANTON RAUL                       444 MACGYVER LOOP                                                     GERMANTOWN                    NJ07001    FER0012                       NJ1234                        00000000          00000000          000000000000   D
NJXEZG24    00NJXEZG24  00111409583118NJT2017052679838432000163201714120161412017141201729000 14822   00VAN     99945   201703310000000000000000021BERGSTROM           BERGSTROM ITZEL                    587 WEST HILLS                                                        GERMANTOWN                    NJ07001    FER0012                       NJ1234                        00000000          00000000          000000000000   D
NJW46FZP    00NJW46FZP  00111409583119NJT2017052679838432000163201714120161412017141201729000 14822   00VAN     99945   201703310000000000000000021LOWE                LOWE FREDY                         166 FUNK CORNERS                                                      GERMANTOWN                    NJ07001    FER0012                       NJ1234                        00000000          00000000          000000000000   D
NJR64HCJ    00NJR64HCJ  00111409583120NJT2017052679838432000163201714120161412017141201729000 14822   00VAN     99945   201703310000000000000000021MACGYVER            MACGYVER JEDEDIAH                  95093 VIVIAN KEY                                                      GERMANTOWN                    NJ07001    FER0012                       NJ1234                        00000000          00000000          000000000000   D
NJVVS42M    00NJVVS42M  00111409583121NJT2017052679838432000163201714120161412017141201729000 14822   00VAN     99945   201703310000000000000000021BUCKRIDGE           BUCKRIDGE ENOS                     4285 PHYLLIS HARBORS                                                  GERMANTOWN                    NJ07001    FER0012                       NJ1234                        00000000          00000000          000000000000   D
NJM23KMU    00NJM23KMU  00111409583123NJT2017052679838432000163201714120161412017141201729000 14822   00VAN     99945   201703310000000000000000021SCHAEFER            SCHAEFER BARON                     271 PACOCHA OVAL                                                      GERMANTOWN                    NJ07001    FER0012                       NJ1234                        00000000          00000000          000000000000   D
NJY200CG    00NJY200CG  00111409583124NJT2017052679838432000163201714120161412017141201729000 14822   00VAN     99945   201703310000000000000000021HINTZ               HINTZ KRISTINA                     724 RYAN STREET                                                       GERMANTOWN                    NJ07001    FER0012                       NJ1234                        00000000          00000000          000000000000   D
NJW98KNA    00NJW98KNA  00111409583125NJT2017052679838432000163201714120161412017141201729000 14822   00VAN     99945   201703310000000000000000021LINDGREN            LINDGREN LORNA                     8990 ROLFSON SQUARE                                                   GERMANTOWN                    NJ07001    FER0012                       NJ1234                        00000000          00000000          000000000000   D
NJZPL94K    00NJZPL94K  00111409583127NJT2017052679838432000163201714120161412017141201729000 14822   00VAN     99945   201703310000000000000000021HOPPE               HOPPE ANDRE                        91335 PAUCEK COURT                                                    GERMANTOWN                    NJ07001    FER0012                       NJ1234                        00000000          00000000          000000000000   D
NJA83KYJ    00NJA83KYJ  00111409583128NJT2017052679838432000163201714120161412017141201729000 14822   00VAN     99945   201703310000000000000000021GAYLORD             GAYLORD MADISON                    561 MONSERRAT CURVE                                                   GERMANTOWN                    NJ07001    FER0012                       NJ1234                        00000000          00000000          000000000000   D
NJZ14DRB    00NJZ14DRB  00111409583131NJT2017052679838432000163201714120161412017141201729000 14822   00VAN     99945   201703310000000000000000021LEFFLER             LEFFLER ANITA                      2798 WILLMS VIADUCT                                                   GERMANTOWN                    NJ07001    FER0012                       NJ1234                        00000000          00000000          000000000000   D
NJN97JED    00NJN97JED  00111409583132NJT2017052679838432000163201714120161412017141201729000 14822   00VAN     99945   201703310000000000000000021OSINSKI             OSINSKI THERESE                    8547 MALLORY TRAIL                                                    GERMANTOWN                    NJ07001    FER0012                       NJ1234                        00000000          00000000          000000000000   D
NJW34KWN    00NJW34KWN  00111409583134NJT2017052679838432000163201714120161412017141201729000 14822   00VAN     99945   201703310000000000000000021OHARA               OHARA BRANSON                      3176 KILBACK AVENUE                                                   GERMANTOWN                    NJ07001    FER0012                       NJ1234                        00000000          00000000          000000000000   D
NJW76KWN    00NJW76KWN  00111409583136NJT2017052679838432000163201714120161412017141201729000 14822   00VAN     99945   201703310000000000000000021HOMENICK            HOMENICK BRAIN                     26545 ANNABELLE BRIDGE                                                GERMANTOWN                    NJ07001    FER0012                       NJ1234                        00000000          00000000          000000000000   D
NJP41JUJ    00NJP41JUJ  00111409583138NJT2017052679838432000163201714120161412017141201729000 14822   00VAN     99945   201703310000000000000000021YOST                YOST GERHARD                       838 TRAVIS LODGE                                                      GERMANTOWN                    NJ07001    FER0012                       NJ1234                        00000000          00000000          000000000000   D
NJC38KVK    00NJC38KVK  00111409583139NJT2017052679838432000163201714120161412017141201729000 14822   00VAN     99945   201703310000000000000000021KOHLER              KOHLER CRISTOPHER                  6199 BORER MISSION                                                    GERMANTOWN                    NJ07001    FER0012                       NJ1234                        00000000          00000000          000000000000   D
NJC35KAL    00NJC35KAL  00111409583140NJT2017052679838432000163201714120161412017141201729000 14822   00VAN     99945   201703310000000000000000021UPTON               UPTON JAZMYNE                      28062 JAMAR REST                                                      GERMANTOWN                    NJ07001    FER0012                       NJ1234                        00000000          00000000          000000000000   D
NJX12HYW    00NJX12HYW  00111409583141NJT2017052679838432000163201714120161412017141201729000 14822   00VAN     99945   201703310000000000000000021ARMSTRONG           ARMSTRONG LIAM                     475 CASSIN CENTER                                                     GERMANTOWN                    NJ07001    FER0012                       NJ1234                        00000000          00000000          000000000000   D
CO128FQP    00CO128FQP  00111409583142NJT2017052679838432000163201714120161412017141201729000 14822   00VAN     99945   201703310000000000000000021GLOVER              GLOVER RYDER                       3994 BRAKUS KEYS                                                      GERMANTOWN                    NJ07001    FER0012                       NJ1234                        00000000          00000000          000000000000   D
NJH98KYX    00NJH98KYX  00111409583144NJT2017052679838432000163201714120161412017141201729000 14822   00VAN     99945   201703310000000000000000021QUIGLEY             QUIGLEY CRISTOBAL                  401 KRIS TUNNEL                                                       GERMANTOWN                    NJ07001    FER0012                       NJ1234                        00000000          00000000          000000000000   D
NJXFYX38    00NJXFYX38  00111409583145NJT2017052679838432000163201714120161412017141201729000 14822   00VAN     99945   201703310000000000000000021BAHRINGER           BAHRINGER ARVEL                    7403 LEBSACK STREAM                                                   GERMANTOWN                    NJ07001    FER0012                       NJ1234                        00000000          00000000          000000000000   D
NJXGTS71    00NJXGTS71  00111409583146NJT2017052679838432000163201714120161412017141201729000 14822   00VAN     99945   201703310000000000000000021JONES               JONES CHRISTOPHE                   00463 OBERBRUNNER TURNPIKE                                            GERMANTOWN                    NJ07001    FER0012                       NJ1234                        00000000          00000000          000000000000   D
OHEDR7233   00OHEDR7233 00111409583147NJT2017052679838432000163201714120161412017141201729000 14822   00VAN     99945   201703310000000000000000021BUCKRIDGE           BUCKRIDGE CAESAR                   98122 STEUBER MALL                                                    GERMANTOWN                    NJ07001    FER0012                       NJ1234                        00000000          00000000          000000000000   D
NJE26KGE    00NJE26KGE  00111409583148NJT2017052679838432000163201714120161412017141201729000 14822   00VAN     99945   201703310000000000000000021OHARA               OHARA TRACY                        9792 MAYER DRIVE                                                      GERMANTOWN                    NJ07001    FER0012                       NJ1234                        00000000          00000000          000000000000   D
NJN46CPB    00NJN46CPB  00111409583150NJT2017052679838432000163201714120161412017141201729000 14822   00VAN     99945   201703310000000000000000021BERGNAUM            BERGNAUM WELLINGTON                213 STAMM KEY                                                         GERMANTOWN                    NJ07001    FER0012                       NJ1234                        00000000          00000000          000000000000   D
NJ191GUS    00NJ191GUS  00111409583151NJT2017052679838432000163201714120161412017141201729000 14822   00VAN     99945   201703310000000000000000021MOHR                MOHR PEARLIE                       544 ELDRED INLET                                                      GERMANTOWN                    NJ07001    FER0012                       NJ1234                        00000000          00000000          000000000000   D
NJYHZ15V    00NJYHZ15V  00111409583152NJT2017052679838432000163201714120161412017141201729000 14822   00VAN     99945   201703310000000000000000021PFEFFER             PFEFFER TALON                      658 BARTON PORT                                                       GERMANTOWN                    NJ07001    FER0012                       NJ1234                        00000000          00000000          000000000000   D
NJY45JAM    00NJY45JAM  00111409583153NJT2017052679838432000163201714120161412017141201729000 14822   00VAN     99945   201703310000000000000000021LANGWORTH           LANGWORTH KYLE                     92552 SONYA GLEN                                                      GERMANTOWN                    NJ07001    FER0012                       NJ1234                        00000000          00000000          000000000000   D
NJZLV2      00NJZLV2    00111409583154NJT2017052679838432000163201714120161412017141201729000 14822   00VAN     99945   201703310000000000000000021BECHTELAR           BECHTELAR DARREL                   39184 JAYLON CENTER                                                   GERMANTOWN                    NJ07001    FER0012                       NJ1234                        00000000          00000000          000000000000   D
NJZ23GXK    00NJZ23GXK  00111409583155NJT2017052679838432000163201714120161412017141201729000 14822   00VAN     99945   201703310000000000000000021QUIGLEY             QUIGLEY KELLI                      5664 MOZELLE WALL                                                     GERMANTOWN                    NJ07001    FER0012                       NJ1234                        00000000          00000000          000000000000   D
NJB54JKS    00NJB54JKS  00111409583157NJT2017052679838432000163201714120161412017141201729000 14822   00VAN     99945   201703310000000000000000021TOWNE               TOWNE DILLON                       62084 ARIEL SPRINGS                                                   GERMANTOWN                    NJ07001    FER0012                       NJ1234                        00000000          00000000          000000000000   D
DE244065    00DE244065  00111409583158NJT2017052679838432000163201714120161412017141201729000 14822   00VAN     99945   201703310000000000000000021METZ                METZ JERAMY                        6983 BLICK REST                                                       GERMANTOWN                    NJ07001    FER0012                       NJ1234                        00000000          00000000          000000000000   D
NJXEGG52    00NJXEGG52  00111409583159NJT2017052679838432000163201714120161412017141201729000 14822   00VAN     99945   201703310000000000000000021VEUM                VEUM BAYLEE                        66430 CRONA DRIVE                                                     GERMANTOWN                    NJ07001    FER0012                       NJ1234                        00000000          00000000          000000000000   D
NJT15EBZ    00NJT15EBZ  00111409583160NJT2017052679838432000163201714120161412017141201729000 14822   00VAN     99945   201703310000000000000000021HERMISTON           HERMISTON MAGGIE                   113 JORDI FIELD                                                       GERMANTOWN                    NJ07001    FER0012                       NJ1234                        00000000          00000000          000000000000   D
NJM84GVW    00NJM84GVW  00111409583162NJT2017052679838432000163201714120161412017141201729000 14822   00VAN     99945   201703310000000000000000021KEEBLER             KEEBLER KENNA                      4548 KOZEY STREET                                                     GERMANTOWN                    NJ07001    FER0012                       NJ1234                        00000000          00000000          000000000000   D
NJL78JHN    00NJL78JHN  00111409583164NJT2017052679838432000163201714120161412017141201729000 14822   00VAN     99945   201703310000000000000000021EMMERICH            EMMERICH ZITA                      77607 JOHNSON SHORES                                                  GERMANTOWN                    NJ07001    FER0012                       NJ1234                        00000000          00000000          000000000000   D
NJXEZZ73    00NJXEZZ73  00111409583165NJT2017052679838432000163201714120161412017141201729000 14822   00VAN     99945   201703310000000000000000021WINDLER             WINDLER ELISABETH                  3838 JADYN JUNCTIONS                                                  GERMANTOWN                    NJ07001    FER0012                       NJ1234                        00000000          00000000          000000000000   D
NJU79DGS    00NJU79DGS  00111409583166NJT2017052679838432000163201714120161412017141201729000 14822   00VAN     99945   201703310000000000000000021TOY                 TOY SHAYNA                         984 RUSTY MOUNTAIN                                                    GERMANTOWN                    NJ07001    FER0012                       NJ1234                        00000000          00000000          000000000000   D
NJA30FGF    00NJA30FGF  00111409583167NJT2017052679838432000163201714120161412017141201729000 14822   00VAN     99945   201703310000000000000000021BOTSFORD            BOTSFORD ELDON                     42171 MARCELLE ORCHARD                                                GERMANTOWN                    NJ07001    FER0012                       NJ1234                        00000000          00000000          000000000000   D
NJY67FGE    00NJY67FGE  00111409583168NJT2017052679838432000163201714120161412017141201729000 14822   00VAN     99945   201703310000000000000000021GISLASON            GISLASON RACHELLE                  37286 MCLAUGHLIN BURGS                                                GERMANTOWN                    NJ07001    FER0012                       NJ1234                        00000000          00000000          000000000000   D
NJR20KSS    00NJR20KSS  00111409583169NJT2017052679838432000163201714120161412017141201729000 14822   00VAN     99945   201703310000000000000000021GOLDNER             GOLDNER CHARLES                    24077 FARRELL CORNERS                                                 GERMANTOWN                    NJ07001    FER0012                       NJ1234                        00000000          00000000          000000000000   D
NJL72KSS    00NJL72KSS  00111409583170NJT2017052679838432000163201714120161412017141201729000 14822   00VAN     99945   201703310000000000000000021TROMP               TROMP SAVANNAH                     72759 RUNTE SQUARES                                                   GERMANTOWN                    NJ07001    FER0012                       NJ1234                        00000000          00000000          000000000000   D
NJA10KKZ    00NJA10KKZ  00111409583171NJT2017052679838432000163201714120161412017141201729000 14822   00VAN     99945   201703310000000000000000021NITZSCHE            NITZSCHE GRANT                     30551 REBECCA TUNNEL                                                  GERMANTOWN                    NJ07001    FER0012                       NJ1234                        00000000          00000000          000000000000   D
AZAG63584   00AZAG63584 00111409583172NJT2017052679838432000163201714120161412017141201729000 14822   00VAN     99945   201703310000000000000000021MARVIN              MARVIN CLAUDIE                     002 HUDSON SPURS                                                      GERMANTOWN                    NJ07001    FER0012                       NJ1234                        00000000          00000000          000000000000   D
NJE65JWM    00NJE65JWM  00111409583174NJT2017052679838432000163201714120161412017141201729000 14822   00VAN     99945   201703310000000000000000021WARD                WARD LINDSAY                       53151 KUHLMAN STATION                                                 GERMANTOWN                    NJ07001    FER0012                       NJ1234                        00000000          00000000          000000000000   D
NJXGFW10    00NJXGFW10  00111409583176NJT2017052679838432000163201714120161412017141201729000 14822   00VAN     99945   201703310000000000000000021HILLS               HILLS LON                          8214 LOCKMAN RAPID                                                    GERMANTOWN                    NJ07001    FER0012                       NJ1234                        00000000          00000000          000000000000   D
PAKHZ5044   00PAKHZ5044 00111409583177NJT2017052679838432000163201714120161412017141201729000 14822   00VAN     99945   201703310000000000000000021HERZOG              HERZOG HAYLIE                      674 ROOB CURVE                                                        GERMANTOWN                    NJ07001    FER0012                       NJ1234                        00000000          00000000          000000000000   D
FLKHBX45    00FLKHBX45  00111409583178NJT2017052679838432000163201714120161412017141201729000 14822   00VAN     99945   201703310000000000000000021CONNELLY            CONNELLY FRANK                     13110 GARRISON PLAINS                                                 GERMANTOWN                    NJ07001    FER0012                       NJ1234                        00000000          00000000          000000000000   D
NJU61JUJ    00NJU61JUJ  00111409583180NJT2017052679838432000163201714120161412017141201729000 14822   00VAN     99945   201703310000000000000000021OKUNEVA             OKUNEVA ANAIS                      2343 MARY FORKS                                                       GERMANTOWN                    NJ07001    FER0012                       NJ1234                        00000000          00000000          000000000000   D
ILQ670745   00ILQ670745 00111409583184NJT2017052679838432000163201714120161412017141201729000 14822   00VAN     99945   201703310000000000000000021FAY                 FAY KEVEN                          3942 MEDHURST OVAL                                                    GERMANTOWN                    NJ07001    FER0012                       NJ1234                        00000000          00000000          000000000000   D
NJB62GUU    00NJB62GUU  00111409583185NJT2017052679838432000163201714120161412017141201729000 14822   00VAN     99945   201703310000000000000000021GLEASON             GLEASON YASMINE                    964 BETTYE ISLANDS                                                    GERMANTOWN                    NJ07001    FER0012                       NJ1234                        00000000          00000000          000000000000   D
NJU83JXK    00NJU83JXK  00111409583186NJT2017052679838432000163201714120161412017141201729000 14822   00VAN     99945   201703310000000000000000021LEMKE               LEMKE LOTTIE                       6234 RAU TERRACE                                                      GERMANTOWN                    NJ07001    FER0012                       NJ1234                        00000000          00000000          000000000000   D
NJM83KUT    00NJM83KUT  00111409583187NJT2017052679838432000163201714120161412017141201729000 14822   00VAN     99945   201703310000000000000000021EMARD               EMARD DASHAWN                      930 WILLIAMSON ESTATE                                                 GERMANTOWN                    NJ07001    FER0012                       NJ1234                        00000000          00000000          000000000000   D
NJC90JGU    00NJC90JGU  00111409583188NJT2017052679838432000163201714120161412017141201729000 14822   00VAN     99945   201703310000000000000000021SCHMIDT             SCHMIDT FORREST                    6909 JOSIANE FOREST                                                   GERMANTOWN                    NJ07001    FER0012                       NJ1234                        00000000          00000000          000000000000   D
NJJ86JES    00NJJ86JES  00111409583189NJT2017052679838432000163201714120161412017141201729000 14822   00VAN     99945   201703310000000000000000021HIRTHE              HIRTHE DOVIE                       21573 JANA LODGE                                                      GERMANTOWN                    NJ07001    FER0012                       NJ1234                        00000000          00000000          000000000000   D
NJZ57JRD    00NJZ57JRD  00111409583191NJT2017052679838432000163201714120161412017141201729000 14822   00VAN     99945   201703310000000000000000021SANFORD             SANFORD ELIJAH                     2775 LAKIN GREEN                                                      GERMANTOWN                    NJ07001    FER0012                       NJ1234                        00000000          00000000          000000000000   D
NJJ10HVH    00NJJ10HVH  00111409583192NJT2017052679838432000163201714120161412017141201729000 14822   00VAN     99945   201703310000000000000000021OSINSKI             OSINSKI TYSON                      251 ZENA MISSION                                                      GERMANTOWN                    NJ07001    FER0012                       NJ1234                        00000000          00000000          000000000000   D
NJC58KMD    00NJC58KMD  00111409583193NJT2017052679838432000163201714120161412017141201729000 14822   00VAN     99945   201703310000000000000000021MURRAY              MURRAY DENIS                       761 DERECK TRAIL                                                      GERMANTOWN                    NJ07001    FER0012                       NJ1234                        00000000          00000000          000000000000   D
NJX24FGJ    00NJX24FGJ  00111409583194NJT2017052679838432000163201714120161412017141201729000 14822   00VAN     99945   201703310000000000000000021MURPHY              MURPHY CHASITY                     464 LINNIE PASSAGE                                                    GERMANTOWN                    NJ07001    FER0012                       NJ1234                        00000000          00000000          000000000000   D
NJM54KFW    00NJM54KFW  00111409583195NJT2017052679838432000163201714120161412017141201729000 14822   00VAN     99945   201703310000000000000000021WALSH               WALSH HERMINIO                     630 REINGER CAPE                                                      GERMANTOWN                    NJ07001    FER0012                       NJ1234                        00000000          00000000          000000000000   D
NJT53KPW    00NJT53KPW  00111409583196NJT2017052679838432000163201714120161412017141201729000 14822   00VAN     99945   201703310000000000000000021KUNDE               KUNDE REMINGTON                    564 ALBERTHA LIGHTS                                                   GERMANTOWN                    NJ07001    FER0012                       NJ1234                        00000000          00000000          000000000000   D
NJX32JPC    00NJX32JPC  00111409583199NJT2017052679838432000163201714120161412017141201729000 14822   00VAN     99945   201703310000000000000000021MAGGIO              MAGGIO DONNIE                      414 SCHUPPE GARDEN                                                    GERMANTOWN                    NJ07001    FER0012                       NJ1234                        00000000          00000000          000000000000   D
NJE85FWF    00NJE85FWF  00111409583200NJT2017052679838432000163201714120161412017141201729000 14822   00VAN     99945   201703310000000000000000021GISLASON            GISLASON VIVIAN                    980 QUITZON JUNCTIONS                                                 GERMANTOWN                    NJ07001    FER0012                       NJ1234                        00000000          00000000          000000000000   D
PAZJL0996   00PAZJL0996 00111409583201NJT2017052679838432000163201714120161412017141201729000 14822   00VAN     99945   201703310000000000000000021HALEY               HALEY GLORIA                       907 EASTER LOCKS                                                      GERMANTOWN                    NJ07001    FER0012                       NJ1234                        00000000          00000000          000000000000   D
PA3272791   00PA3272791 00111409583203NJT2017052679838432000163201714120161412017141201729000 14822   00VAN     99945   201703310000000000000000021ORTIZ               ORTIZ CARLOTTA                     7709 LORENZO PLAZA                                                    GERMANTOWN                    NJ07001    FER0012                       NJ1234                        00000000          00000000          000000000000   D
NJT072149   00NJT072149 00111409583204NJT2017052679838432000163201714120161412017141201729000 14822   00VAN     99945   201703310000000000000000021BEER                BEER EPHRAIM                       4444 CAMILLE PRAIRIE                                                  GERMANTOWN                    NJ07001    FER0012                       NJ1234                        00000000          00000000          000000000000   D
NJS84HNW    00NJS84HNW  00111409583207NJT2017052679838432000163201714120161412017141201729000 14822   00VAN     99945   201703310000000000000000021SCHINNER            SCHINNER KEITH                     446 WARD PINES                                                        GERMANTOWN                    NJ07001    FER0012                       NJ1234                        00000000          00000000          000000000000   D
NJT27JXU    00NJT27JXU  00111409583208NJT2017052679838432000163201714120161412017141201729000 14822   00VAN     99945   201703310000000000000000021TURNER              TURNER KRISTINA                    92868 TOWNE LOCKS                                                     GERMANTOWN                    NJ07001    FER0012                       NJ1234                        00000000          00000000          000000000000   D
DE428363    00DE428363  00111409583210NJT2017052679838432000163201714120161412017141201729000 14822   00VAN     99945   201703310000000000000000021CONN                CONN DONATO                        328 IMANI WAY                                                         GERMANTOWN                    NJ07001    FER0012                       NJ1234                        00000000          00000000          000000000000   D
NJVCG36K    00NJVCG36K  00111409583211NJT2017052679838432000163201714120161412017141201729000 14822   00VAN     99945   201703310000000000000000021ABERNATHY           ABERNATHY CHASE                    05703 KYLEIGH CROSSING                                                GERMANTOWN                    NJ07001    FER0012                       NJ1234                        00000000          00000000          000000000000   D
NJG93KLE    00NJG93KLE  00111409583213NJT2017052679838432000163201714120161412017141201729000 14822   00VAN     99945   201703310000000000000000021FADEL               FADEL GERARDO                      3890 REMINGTON STRAVENUE                                              GERMANTOWN                    NJ07001    FER0012                       NJ1234                        00000000          00000000          000000000000   D
NJS16JYH    00NJS16JYH  00111409583214NJT2017052679838432000163201714120161412017141201729000 14822   00VAN     99945   201703310000000000000000021SPENCER             SPENCER WENDELL                    54217 STROMAN KEYS                                                    GERMANTOWN                    NJ07001    FER0012                       NJ1234                        00000000          00000000          000000000000   D
