NJOLK6P01   00NJOLK6P01 00111409288256NJT2017052679838432000163201714120161412017141201729000 14822   00VAN     99945   201703310000000000000000021HAHN                HAHN ANNABELL                      100 WEIMANN LOAF                                                      GERMANTOWN                    NJ07001    FER0012                       NJ1234                        00000000          00000000          000000000000   D
NJOLK6P02   00NJOLK6P02 00111409288259NJT2017052679838432000163201714120161412017141201729000 14822   00VAN     99945   201703310000000000000000021HARVEY              HARVEY JARED                       242 GENNARO STRAVENUE                                                 GERMANTOWN                    NJ07001    FER0012                       NJ1234                        00000000          00000000          000000000000   D
NJOLK6P03   00NJOLK6P03 00111409288262NJT2017052679838432000163201714120161412017141201729000 14822   00VAN     99945   201703310000000000000000021SIPES               SIPES DANDRE                       8759 RENEE TRAIL                                                      GERMANTOWN                    NJ07001    FER0012                       NJ1234                        00000000          00000000          000000000000   D
