NJDC01MK1   00NJDC01MK1 00111409291654NJT2017052679838432000163201714120161412017141201729000 14822   00VAN     99945   201703310000000000000000021LEASE PLAN USA INC  LEASE PLAN USA INC                 1165 SANCTUARY PKWY                                                   ALPHARETTA                    AZ30004    FER0012                       NJ1234                        00000000          00000000          000000000000   E
NJDC01MK2   00NJDC01MK2 00111409291655NJT2017052679838432000163201714120161412017141201729000 14822   00VAN     99945   201703310000000000000000021DAVENPORT           DAVENPORT KELLEY                   6478 DEHIRSHY AVE                                                     MIZPAH                        NJ08342    FER0012                       NJ1234                        00000000          00000000          000000000000   D
NJDC01MK3   00NJDC01MK3 00111409291656NJT2017052679838432000163201714120161412017141201729000 14822   00VAN     99945   201703310000000000000000021MAIETTI             MAIETTI TERESA                     1480 PLEASANT VALLEY WAY                                              WEST ORANGE                   NJ07052    FER0012                       NJ1234                        00000000          00000000          000000000000   D
NJDC01MK4   00NJDC01MK4 00111409291657NJT2017052679838432000163201714120161412017141201729000 14822   00VAN     99945   201703310000000000000000021KLUEG               KLUEG JOSEPH A                     22 TOMASELLO DR                                                       MILLVILLE                     NJ08332    FER0012                       NJ1234                        00000000          00000000          000000000000   D
NJDC01MK5   00NJDC01MK5 00111409291658NJT2017052679838432000163201714120161412017141201729000 14822   00VAN     99945   201703310000000000000000021VARGAS-CISNEROS     VARGAS-CISNEROS REYMUNDO           212 N 5TH ST                       FL 1                               HARRISON                      NJ07029    FER0012                       NJ1234                        00000000          00000000          000000000000   D
NJDC01MK6   00NJDC01MK6 00111409291659NJT2017052679838432000163201714120161412017141201729000 14822   00VAN     99945   201703310000000000000000021COLEMAN             COLEMAN PATRICK                    PO BOX 186                                                            WESTFIELD                     NJ07091    FER0012                       NJ1234                        00000000          00000000          000000000000   D
NJDC01MK7   00NJDC01MK7 00111409291660NJT2017052679838432000163201714120161412017141201729000 14822   00VAN     99945   201703310000000000000000021CONROY              CONROY NELSON                      482 LOWE RIDGE                                                        GERMANTOWN                    NJ07001    FER0012                       NJ1234                        00000000          00000000          000000000000   D
NJDC01MK8   00NJDC01MK8 00111409291661NJT2017052679838432000163201714120161412017141201729000 14822   00VAN     99945   201703310000000000000000021BASHIRIAN           BASHIRIAN ALAINA                   912 SIPES EXTENSIONS                                                  GERMANTOWN                    NJ07001    FER0012                       NJ1234                        00000000          00000000          000000000000   D
