NJBOC4P1    00NJBOC4P1  00111409480391NJT2017052679838432000163201714120161412017141201729000 14822   00VAN     99945   201703310000000000000000021KREIGER             KREIGER JESUS                      333 GRACE MISSION                                                     GERMANTOWN                    NJ07001    FER0012                       NJ1234                        00000000          00000000          000000000000   D
NJBOC4P2    00NJBOC4P2  00111409480394NJT2017052679838432000163201714120161412017141201729000 14822   00VAN     99945   201703310000000000000000021GUTKOWSKI           GUTKOWSKI EARLINE                  07432 JAUNITA KNOLL                                                   GERMANTOWN                    NJ07001    FER0012                       NJ1234                        00000000          00000000          000000000000   D
NJBOC4P3    00NJBOC4P3  00111409480399NJT2017052679838432000163201714120161412017141201729000 14822   00VAN     99945   201703310000000000000000021KAUTZER             KAUTZER PAOLO                      25490 MAYERT ROUTE                                                    GERMANTOWN                    NJ07001    FER0012                       NJ1234                        00000000          00000000          000000000000   D
NJBOC4P4    00NJBOC4P4  00111409480403NJT2017052679838432000163201714120161412017141201729000 14822   00VAN     99945   201703310000000000000000021COLLIER             COLLIER BRET                       02262 RODERICK CREST                                                  GERMANTOWN                    NJ07001    FER0012                       NJ1234                        00000000          00000000          000000000000   D
NJBOC4P5    00NJBOC4P5  00111409480408NJT2017052679838432000163201714120161412017141201729000 14822   00VAN     99945   201703310000000000000000021HARBER              HARBER REILLY                      942 REICHEL PORTS                                                     GERMANTOWN                    NJ07001    FER0012                       NJ1234                        00000000          00000000          000000000000   D
