NJJSTRGR    00NJJSTRGR  00111408992474NJT2017052679838432000163201714120161412017141201729000 14822   00VAN     99945   201703310000000000000000021LEONE-OISTER        LEONE-OISTER LAURIE A              48 DANELLA WAY                                                        HOWELL                        NJ07731    FER0012                       NJ1234                        00000000          00000000          000000000000   D
NJRCS48G    00NJRCS48G  00111408992478NJT2017052679838432000163201714120161412017141201729000 14822   00VAN     99945   201703310000000000000000021STRINGARI           STRINGARI JANA                     715 16TH AVE                                                          MAYS LANDING                  NJ08330    FER0012                       NJ1234                        00000000          00000000          000000000000   D
NJN46GRW    00NJN46GRW  00111408992481NJT2017052679838432000163201714120161412017141201729000 14822   00VAN     99945   201703310000000000000000021HERBERT             HERBERT JASON                      7 ROANOKE ST                                                          WOODBRIDGE                    NJ07095    FER0012                       NJ1234                        00000000          00000000          000000000000   D
