NJXG76FC    00NJXG76FC  00111408993211NJT2017052679838432000163201714120161412017141201729000 14822   00VAN     99945   201703310000000000000000021YOUNGS GLASS        YOUNGS GLASS SERVICE IN            1170 RARITAN AVE                                                      HIGHLAND PARK                 NJ08904    FER0012                       NJ1234                        00000000          00000000          000000000000   D
NJTBM21N    00NJTBM21N  00111408993212NJT2017052679838432000163201714120161412017141201729000 14822   00VAN     99945   201703310000000000000000021STATS ENGINE INC    STATS ENGINE INC                   PO BOX 5425                                                           OLD BRIDGE                    NJ08857    FER0012                       NJ1234                        00000000          00000000          000000000000   D
NJOL1054B   00NJOL1054B 00111408993213NJT2017052679838432000163201714120161412017141201729000 14822   00VAN     99945   201703310000000000000000021ATLANTIC PARAT      ATLANTIC PARATRANS INC             88 MILLTOWN RD                                                        UNION                         NJ07083    FER0012                       NJ1234                        00000000          00000000          000000000000   D
NY3108658   00NY3108658 00111408993214NJT2017052679838432000163201714120161412017141201729000 14822   00VAN     99945   201703310000000000000000021TMJ AUTO INC        TMJ AUTO INC                       795 ROGERS AVE                     # A                                BROOKLYN                      NY11226    FER0012                       NJ1234                        00000000          00000000          000000000000   D
