NJGDG6P1    00NJGDG6P1  00111409512389NJT2017052679838432000163201714120161412017141201729000 14822   00VAN     99945   201703310000000000000000021MURRAY              MURRAY SCOT                        3501 JEFFRY RAPIDS                                                    GERMANTOWN                    NJ07001    FER0012                       NJ1234                        00000000          00000000          000000000000   D
NJGDG6P2    00NJGDG6P2  00111409512390NJT2017052679838432000163201714120161412017141201729000 14822   00VAN     99945   201703310000000000000000021RUECKER             RUECKER BRANDI                     15620 JOHNSON LIGHTS                                                  GERMANTOWN                    NJ07001    FER0012                       NJ1234                        00000000          00000000          000000000000   D
NJGDG6P3    00NJGDG6P3  00111409512394NJT2017052679838432000163201714120161412017141201729000 14822   00VAN     99945   201703310000000000000000021HACKETT             HACKETT ALYSA                      52913 BAUMBACH FORGES                                                 GERMANTOWN                    NJ07001    FER0012                       NJ1234                        00000000          00000000          000000000000   D
NJGDG6P4    00NJGDG6P4  00111409512400NJT2017052679838432000163201714120161412017141201729000 14822   00VAN     99945   201703310000000000000000021FAY                 FAY RENEE                          93475 DUNCAN ROUTE                                                    GERMANTOWN                    NJ07001    FER0012                       NJ1234                        00000000          00000000          000000000000   D
