NJKA1234    00NJKA1234  00111409474393NJT2017052679838432000163201714120161412017141201729000 14822   00VAN     99945   201703310000000000000000021KHAN                KHAN TAIMUR                        3 MCPHERSON LN                                                        HEBRON                        NJ06248    FER0012                       NJ1234                        00000000          00000000          000000000000   D
NJPRINT001  00NJPRINT00100111409474394NJT2017052679838432000163201714120161412017141201729000 14822   00VAN     99945   201703310000000000000000021FUNCTION            FUNCTION PRINT                     PO BOX 311                                                            NORTHFIELD                    NJ08225    FER0012                       NJ1234                        00000000          00000000          000000000000   D
NJQSE1319   00NJQSE1319 00111409474395NJT2017052679838432000163201714120161412017141201729000 14822   00VAN     99945   201703310000000000000000021RANDLE              RANDLE DETRA                       1055 S ELMORA AVE                  APT 1R                             ELIZABETH                     NJ07202    FER0012                       NJ1234                        00000000          00000000          000000000000   D
NJRAJU12    00NJRAJU12  00111409474396NJT2017052679838432000163201714120161412017141201729000 14822   00VAN     99945   201703310000000000000000021RAMA                RAMA RAJU S                        SAI                                SAI                                COVENTRY                      CT06238    FER0012                       NJ1234                        00000000          00000000          000000000000   D
NJELI432    00NJELI432  00111409474397NJT2017052679838432000163201714120161412017141201729000 14822   00VAN     99945   201703310000000000000000021ALGUERA             ALGUERA YERLIN A                   108 ELM ST                                                            MONTCLAIR                     NJ07042    FER0012                       NJ1234                        00000000          00000000          000000000000   D
NJTIM8989   00NJTIM8989 00111409474398NJT2017052679838432000163201714120161412017141201729000 14822   00VAN     99945   201703310000000000000000021RANDLE              RANDLE TIMOTHY                     311 2ND ST                                                            ELIZABETH                     NJ07206    FER0012                       NJ1234                        00000000          00000000          000000000000   D
