NJKHE88P1   00NJKHE88P1 00111409286724NJT2017052679838432000163201714120161412017141201729000 14822   00VAN     99945   201703310000000000000000021CARROLL             CARROLL RHEA                       0177 EARLENE VIA                                                      GERMANTOWN                    NJ07001    FER0012                       NJ1234                        00000000          00000000          000000000000   D
NJKHE88P2   00NJKHE88P2 00111409286727NJT2017052679838432000163201714120161412017141201729000 14822   00VAN     99945   201703310000000000000000021ROMAGUERA           ROMAGUERA OBIE                     716 PATSY WAY                                                         GERMANTOWN                    NJ07001    FER0012                       NJ1234                        00000000          00000000          000000000000   D
NJKHE88P3   00NJKHE88P3 00111409286734NJT2017052679838432000163201714120161412017141201729000 14822   00VAN     99945   201703310000000000000000021MULLER              MULLER ELODY                       620 MANLEY STREET                                                     GERMANTOWN                    NJ07001    FER0012                       NJ1234                        00000000          00000000          000000000000   D
NJKHE88P4   00NJKHE88P4 00111409286735NJT2017052679838432000163201714120161412017141201729000 14822   00VAN     99945   201703310000000000000000021FLATLEY             FLATLEY NORA                       215 WEHNER COURTS                                                     GERMANTOWN                    NJ07001    FER0012                       NJ1234                        00000000          00000000          000000000000   D
