NJMNJ0P1    00NJMNJ0P1  00111409292071NJT2017052679838432000163201714120161412017141201729000 14822   00VAN     99945   201703310000000000000000021DACH                DACH GRETA                         803 POLLICH LODGE                                                     GERMANTOWN                    NJ07001    FER0012                       NJ1234                        00000000          00000000          000000000000   D
NJMNJ0P2    00NJMNJ0P2  00111409292052NJT2017052679838432000163201714120161412017141201729000 14822   00VAN     99945   201703310000000000000000021QUITZON             QUITZON GREGORIA                   025 REMPEL PRAIRIE                                                    GERMANTOWN                    NJ07001    FER0012                       NJ1234                        00000000          00000000          000000000000   D
NJMNJ0P3    00NJMNJ0P3  00111409292054NJT2017052679838432000163201714120161412017141201729000 14822   00VAN     99945   201703310000000000000000021HUDSON              HUDSON OLLIE                       59423 CORWIN CIRCLES                                                  GERMANTOWN                    NJ07001    FER0012                       NJ1234                        00000000          00000000          000000000000   D
NJMNJ0P4    00NJMNJ0P4  00111409292059NJT2017052679838432000163201714120161412017141201729000 14822   00VAN     99945   201703310000000000000000021OKEEFE              OKEEFE FERNANDO                    80585 UPTON CORNER                                                    GERMANTOWN                    NJ07001    FER0012                       NJ1234                        00000000          00000000          000000000000   D
NJMNJ0P5    00NJMNJ0P5  00111409292067NJT2017052679838432000163201714120161412017141201729000 14822   00VAN     99945   201703310000000000000000021MURAZIK             MURAZIK MEAGHAN                    3605 SCHAMBERGER SKYWAY                                               GERMANTOWN                    NJ07001    FER0012                       NJ1234                        00000000          00000000          000000000000   D
