NJMK5IP1    00NJMK5IP1  00111409480478NJT2017052679838432000163201714120161412017141201729000 14822   00VAN     99945   201703310000000000000000021FAY                 FAY JAMISON                        76632 ONDRICKA WAYS                                                   GERMANTOWN                    NJ07001    FER0012                       NJ1234                        00000000          00000000          000000000000   D
NJMK5IP2    00NJMK5IP2  00111409480481NJT2017052679838432000163201714120161412017141201729000 14822   00VAN     99945   201703310000000000000000021ANKUNDING           ANKUNDING SERENITY                 88602 DANIEL VISTA                                                    GERMANTOWN                    NJ07001    FER0012                       NJ1234                        00000000          00000000          000000000000   D
NJMK5IP3    00NJMK5IP3  00111409480486NJT2017052679838432000163201714120161412017141201729000 14822   00VAN     99945   201703310000000000000000021SCHILLER            SCHILLER JORDYN                    482 MAYERT SQUARE                                                     GERMANTOWN                    NJ07001    FER0012                       NJ1234                        00000000          00000000          000000000000   D
NJMK5IP4    00NJMK5IP4  00111409480489NJT2017052679838432000163201714120161412017141201729000 14822   00VAN     99945   201703310000000000000000021CRONA               CRONA ROSARIO                      881 WALKER MOUNTAIN                                                   GERMANTOWN                    NJ07001    FER0012                       NJ1234                        00000000          00000000          000000000000   D
NJMK5IP5    00NJMK5IP5  00111409480492NJT2017052679838432000163201714120161412017141201729000 14822   00VAN     99945   201703310000000000000000021CASPER              CASPER TYRELL                      79131 TITUS LANE                                                      GERMANTOWN                    NJ07001    FER0012                       NJ1234                        00000000          00000000          000000000000   D
NJMK5IP6    00NJMK5IP6  00111409480496NJT2017052679838432000163201714120161412017141201729000 14822   00VAN     99945   201703310000000000000000021BEATTY              BEATTY MAZIE                       4536 MCGLYNN SHOAL                                                    GERMANTOWN                    NJ07001    FER0012                       NJ1234                        00000000          00000000          000000000000   D
NJMK5IP7    00NJMK5IP7  00111409480499NJT2017052679838432000163201714120161412017141201729000 14822   00VAN     99945   201703310000000000000000021PROHASKA            PROHASKA DELL                      0750 JONES ALLEY                                                      GERMANTOWN                    NJ07001    FER0012                       NJ1234                        00000000          00000000          000000000000   D
NJMK5IP8    00NJMK5IP8  00111409480503NJT2017052679838432000163201714120161412017141201729000 14822   00VAN     99945   201703310000000000000000021STOKES              STOKES ALICE                       33293 ALEXANDRO FORK                                                  GERMANTOWN                    NJ07001    FER0012                       NJ1234                        00000000          00000000          000000000000   D
