NJCLSP01    00NJCLSP01  00111409574987NJT2017052679838432000163201714120161412017141201729000 14822   00VAN     99945   201703310000000000000000021BAUMBACH            BAUMBACH CHRISTINA                 28029 RAMIRO RIDGES                                                   GERMANTOWN                    NJ07001    FER0012                       NJ1234                        00000000          00000000          000000000000   D
NJCLSP02    00NJCLSP02  00111409574993NJT2017052679838432000163201714120161412017141201729000 14822   00VAN     99945   201703310000000000000000021KREIGER             KREIGER JODIE                      569 LARSON FALLS                                                      GERMANTOWN                    NJ07001    FER0012                       NJ1234                        00000000          00000000          000000000000   D
NJCLSP03    00NJCLSP03  00111409574995NJT2017052679838432000163201714120161412017141201729000 14822   00VAN     99945   201703310000000000000000021EICHMANN            EICHMANN LEOPOLDO                  291 OCIE BROOKS                                                       GERMANTOWN                    NJ07001    FER0012                       NJ1234                        00000000          00000000          000000000000   D
