NJKLDS01    00NJKLDS01  00111408993000NJT2017052679838432000163201714120161412017141201729000 14822   00VAN     99945   201703310000000000000000021BERUSKY             BERUSKY MIND                       FULFIL STREET                                                         GERMANTOWN                    NJ07008    FER0012                       NJ1234                        00000000          00000000          000000000000   D
NJKLDS02    00NJKLDS02  00111408993003NJT2017052679838432000163201714120161412017141201729000 14822   00VAN     99945   201703310000000000000000021BERUSKY             BERUSKY MIND                       FULFIL STREET                                                         GERMANTOWN                    NJ07008    FER0012                       NJ1234                        00000000          00000000          000000000000   D
NJKLDS03    00NJKLDS03  00111408993008NJT2017052679838432000163201714120161412017141201729000 14822   00VAN     99945   201703310000000000000000021BERUSKY             BERUSKY MIND                       FULFIL STREET                                                         GERMANTOWN                    NJ07008    FER0012                       NJ1234                        00000000          00000000          000000000000   D
