NJGK02P1    00NJGK02P1  00111408992750NJT2017052679838432000163201714120161412017141201729000 14822   00VAN     99945   201703310000000000000000021JOSHIKA             JOSHIKA BHIMSEN                    KOMAL STREET                                                          GERMANTOWN                    NJ07001    FER0012                       NJ1234                        00000000          00000000          000000000000   D
NJGK02P2    00NJGK02P2  00111408992755NJT2017052679838432000163201714120161412017141201729000 14822   00VAN     99945   201703310000000000000000021JOSHIKA             JOSHIKA BHIMSEN                    KOMAL STREET                                                          GERMANTOWN                    NJ07001    FER0012                       NJ1234                        00000000          00000000          000000000000   D
NJGK02P3    00NJGK02P3  00111408992760NJT2017052679838432000163201714120161412017141201729000 14822   00VAN     99945   201703310000000000000000021JOSHIKA             JOSHIKA BHIMSEN                    KOMAL STREET                                                          GERMANTOWN                    NJ07001    FER0012                       NJ1234                        00000000          00000000          000000000000   D
NJGK02P4    00NJGK02P4  00111408992763NJT2017052679838432000163201714120161412017141201729000 14822   00VAN     99945   201703310000000000000000021JOSHI               JOSHI BHIM                         BIRJU STREET                                                          GERMANTOWN                    NJ07001    FER0012                       NJ1234                        00000000          00000000          000000000000   D
NJGK02P5    00NJGK02P5  00111408992769NJT2017052679838432000163201714120161412017141201729000 14822   00VAN     99945   201703310000000000000000021JOSHI               JOSHI BHIM                         BIRJU STREET                                                          GERMANTOWN                    NJ07001    FER0012                       NJ1234                        00000000          00000000          000000000000   D
NJGK02P6    00NJGK02P6  00111408992774NJT2017052679838432000163201714120161412017141201729000 14822   00VAN     99945   201703310000000000000000021JOSHI               JOSHI BHIM                         BIRJU STREET                                                          GERMANTOWN                    NJ07001    FER0012                       NJ1234                        00000000          00000000          000000000000   D
