NJSP24P1    00NJSP24P1  00111409291286NJT2017052679838432000163201714120161412017141201729000 14822   00VAN     99945   201703310000000000000000021SCHMELER            SCHMELER TIARA                     680 JONES DIVIDE                                                      GERMANTOWN                    NJ07001    FER0012                       NJ1234                        00000000          00000000          000000000000   D
NJSP24P2    00NJSP24P2  00111409291289NJT2017052679838432000163201714120161412017141201729000 14822   00VAN     99945   201703310000000000000000021GREENFELDER         GREENFELDER LEIF                   381 BUCKRIDGE MILLS                                                   GERMANTOWN                    NJ07001    FER0012                       NJ1234                        00000000          00000000          000000000000   D
NJSP24P3    00NJSP24P3  00111409291292NJT2017052679838432000163201714120161412017141201729000 14822   00VAN     99945   201703310000000000000000021FRAMI               FRAMI DULCE                        193 METZ COVE                                                         GERMANTOWN                    NJ07001    FER0012                       NJ1234                        00000000          00000000          000000000000   D
NJSP24P4    00NJSP24P4  00111409291296NJT2017052679838432000163201714120161412017141201729000 14822   00VAN     99945   201703310000000000000000021HARRIS              HARRIS CASSANDRA                   42327 LAVERNA MEADOWS                                                 GERMANTOWN                    NJ07001    FER0012                       NJ1234                        00000000          00000000          000000000000   D
NJSP24P5    00NJSP24P5  00111409291302NJT2017052679838432000163201714120161412017141201729000 14822   00VAN     99945   201703310000000000000000021GLEASON             GLEASON GEORGIANNA                 571 CHESTER COVE                                                      GERMANTOWN                    NJ07001    FER0012                       NJ1234                        00000000          00000000          000000000000   D
NJSP24P6    00NJSP24P6  00111409291306NJT2017052679838432000163201714120161412017141201729000 14822   00VAN     99945   201703310000000000000000021CONROY              CONROY MICHEL                      430 BETTY VILLAGE                                                     GERMANTOWN                    NJ07001    FER0012                       NJ1234                        00000000          00000000          000000000000   D
NJSP24P7    00NJSP24P7  00111409291309NJT2017052679838432000163201714120161412017141201729000 14822   00VAN     99945   201703310000000000000000021KEEBLER             KEEBLER HOPE                       084 EDWARDO ROADS                                                     GERMANTOWN                    NJ07001    FER0012                       NJ1234                        00000000          00000000          000000000000   D
NJSP24P8    00NJSP24P8  00111409291312NJT2017052679838432000163201714120161412017141201729000 14822   00VAN     99945   201703310000000000000000021ALTENWERTH          ALTENWERTH NELLA                   67311 ALIYAH TUNNEL                                                   GERMANTOWN                    NJ07001    FER0012                       NJ1234                        00000000          00000000          000000000000   D
NJSP24P9    00NJSP24P9  00111409291317NJT2017052679838432000163201714120161412017141201729000 14822   00VAN     99945   201703310000000000000000021TRANTOW             TRANTOW ANIBAL                     979 ELVERA LODGE                                                      GERMANTOWN                    NJ07001    FER0012                       NJ1234                        00000000          00000000          000000000000   D
NJSP24P10   00NJSP24P10 00111409291323NJT2017052679838432000163201714120161412017141201729000 14822   00VAN     99945   201703310000000000000000021HOMENICK            HOMENICK SELENA                    419 GLEASON DRIVES                                                    GERMANTOWN                    NJ07001    FER0012                       NJ1234                        00000000          00000000          000000000000   D
NJSP24P11   00NJSP24P11 00111409291326NJT2017052679838432000163201714120161412017141201729000 14822   00VAN     99945   201703310000000000000000021KLEIN               KLEIN ELISE                        597 CREMIN CENTER                                                     GERMANTOWN                    NJ07001    FER0012                       NJ1234                        00000000          00000000          000000000000   D
NJSP24P12   00NJSP24P12 00111409291330NJT2017052679838432000163201714120161412017141201729000 14822   00VAN     99945   201703310000000000000000021EMARD               EMARD VICKY                        7583 KUPHAL TRAFFICWAY                                                GERMANTOWN                    NJ07001    FER0012                       NJ1234                        00000000          00000000          000000000000   D
NJSP24P13   00NJSP24P13 00111409291333NJT2017052679838432000163201714120161412017141201729000 14822   00VAN     99945   201703310000000000000000021JONES               JONES VERLIE                       13418 RATH GROVES                                                     GERMANTOWN                    NJ07001    FER0012                       NJ1234                        00000000          00000000          000000000000   D
NJSP24P14   00NJSP24P14 00111409291336NJT2017052679838432000163201714120161412017141201729000 14822   00VAN     99945   201703310000000000000000021PADBERG             PADBERG VIDAL                      203 ENOLA DALE                                                        GERMANTOWN                    NJ07001    FER0012                       NJ1234                        00000000          00000000          000000000000   D
NJSP24P15   00NJSP24P15 00111409291341NJT2017052679838432000163201714120161412017141201729000 14822   00VAN     99945   201703310000000000000000021RITCHIE             RITCHIE LAURIANE                   542 VIDA FIELD                                                        GERMANTOWN                    NJ07001    FER0012                       NJ1234                        00000000          00000000          000000000000   D
NJSP24P16   00NJSP24P16 00111409291347NJT2017052679838432000163201714120161412017141201729000 14822   00VAN     99945   201703310000000000000000021WILLMS              WILLMS LUCIANO                     457 BODE VILLAGE                                                      GERMANTOWN                    NJ07001    FER0012                       NJ1234                        00000000          00000000          000000000000   D
NJSP24P17   00NJSP24P17 00111409291350NJT2017052679838432000163201714120161412017141201729000 14822   00VAN     99945   201703310000000000000000021STRACKE             STRACKE AYLA                       85293 MURAZIK GATEWAY                                                 GERMANTOWN                    NJ07001    FER0012                       NJ1234                        00000000          00000000          000000000000   D
NJSP24P18   00NJSP24P18 00111409291352NJT2017052679838432000163201714120161412017141201729000 14822   00VAN     99945   201703310000000000000000021HALVORSON           HALVORSON FLO                      762 KLEIN PINE                                                        GERMANTOWN                    NJ07001    FER0012                       NJ1234                        00000000          00000000          000000000000   D
NJSP24P19   00NJSP24P19 00111409291356NJT2017052679838432000163201714120161412017141201729000 14822   00VAN     99945   201703310000000000000000021DUBUQUE             DUBUQUE FERNANDO                   926 CONNER CRESCENT                                                   GERMANTOWN                    NJ07001    FER0012                       NJ1234                        00000000          00000000          000000000000   D
NJSP24P20   00NJSP24P20 00111409291361NJT2017052679838432000163201714120161412017141201729000 14822   00VAN     99945   201703310000000000000000021COLLIER             COLLIER ARNOLDO                    9807 WEISSNAT FLATS                                                   GERMANTOWN                    NJ07001    FER0012                       NJ1234                        00000000          00000000          000000000000   D
NJSP24P21   00NJSP24P21 00111409291366NJT2017052679838432000163201714120161412017141201729000 14822   00VAN     99945   201703310000000000000000021KRAJCIK             KRAJCIK LELA                       2919 WILL CORNER                                                      GERMANTOWN                    NJ07001    FER0012                       NJ1234                        00000000          00000000          000000000000   D
NJSP24P22   00NJSP24P22 00111409291369NJT2017052679838432000163201714120161412017141201729000 14822   00VAN     99945   201703310000000000000000021GLEASON             GLEASON KAYLIE                     8240 HEANEY SPRINGS                                                   GERMANTOWN                    NJ07001    FER0012                       NJ1234                        00000000          00000000          000000000000   D
NJSP24P23   00NJSP24P23 00111409291372NJT2017052679838432000163201714120161412017141201729000 14822   00VAN     99945   201703310000000000000000021GAYLORD             GAYLORD ELENA                      5656 WALTER TRAFFICWAY                                                GERMANTOWN                    NJ07001    FER0012                       NJ1234                        00000000          00000000          000000000000   D
NJSP24P24   00NJSP24P24 00111409291376NJT2017052679838432000163201714120161412017141201729000 14822   00VAN     99945   201703310000000000000000021BOSCO               BOSCO HERSHEL                      404 LINWOOD COURTS                                                    GERMANTOWN                    NJ07001    FER0012                       NJ1234                        00000000          00000000          000000000000   D
NJSP24P25   00NJSP24P25 00111409291381NJT2017052679838432000163201714120161412017141201729000 14822   00VAN     99945   201703310000000000000000021MERTZ               MERTZ VIOLA                        02979 MERCEDES STREAM                                                 GERMANTOWN                    NJ07001    FER0012                       NJ1234                        00000000          00000000          000000000000   D
NJSP24P26   00NJSP24P26 00111409291387NJT2017052679838432000163201714120161412017141201729000 14822   00VAN     99945   201703310000000000000000021WEIMANN             WEIMANN AMELIE                     24381 CORKERY LANDING                                                 GERMANTOWN                    NJ07001    FER0012                       NJ1234                        00000000          00000000          000000000000   D
NJSP24P27   00NJSP24P27 00111409291389NJT2017052679838432000163201714120161412017141201729000 14822   00VAN     99945   201703310000000000000000021BERNIER             BERNIER ERICA                      087 MARGARETTA RUN                                                    GERMANTOWN                    NJ07001    FER0012                       NJ1234                        00000000          00000000          000000000000   D
NJSP24P28   00NJSP24P28 00111409291394NJT2017052679838432000163201714120161412017141201729000 14822   00VAN     99945   201703310000000000000000021YUNDT               YUNDT LAVINA                       4331 ROOB RIDGE                                                       GERMANTOWN                    NJ07001    FER0012                       NJ1234                        00000000          00000000          000000000000   D
NJSP24P29   00NJSP24P29 00111409291396NJT2017052679838432000163201714120161412017141201729000 14822   00VAN     99945   201703310000000000000000021BRUEN               BRUEN JULIET                       675 LUBOWITZ ISLE                                                     GERMANTOWN                    NJ07001    FER0012                       NJ1234                        00000000          00000000          000000000000   D
NJSP24P30   00NJSP24P30 00111409291403NJT2017052679838432000163201714120161412017141201729000 14822   00VAN     99945   201703310000000000000000021MARVIN              MARVIN ALTHEA                      952 ALVINA PLAZA                                                      GERMANTOWN                    NJ07001    FER0012                       NJ1234                        00000000          00000000          000000000000   D
NJSP24P31   00NJSP24P31 00111409291405NJT2017052679838432000163201714120161412017141201729000 14822   00VAN     99945   201703310000000000000000021KIEHN               KIEHN ADAN                         1937 BERNIECE UNDERPASS                                               GERMANTOWN                    NJ07001    FER0012                       NJ1234                        00000000          00000000          000000000000   D
NJSP24P32   00NJSP24P32 00111409291410NJT2017052679838432000163201714120161412017141201729000 14822   00VAN     99945   201703310000000000000000021BAHRINGER           BAHRINGER RUSSELL                  5423 KOBY SUMMIT                                                      GERMANTOWN                    NJ07001    FER0012                       NJ1234                        00000000          00000000          000000000000   D
NJSP24P33   00NJSP24P33 00111409291414NJT2017052679838432000163201714120161412017141201729000 14822   00VAN     99945   201703310000000000000000021EMMERICH            EMMERICH LAURYN                    686 LITTLE MOUNTAIN                                                   GERMANTOWN                    NJ07001    FER0012                       NJ1234                        00000000          00000000          000000000000   D
NJSP24P34   00NJSP24P34 00111409291417NJT2017052679838432000163201714120161412017141201729000 14822   00VAN     99945   201703310000000000000000021MCCLURE             MCCLURE VIVIANE                    887 HAMMES MALL                                                       GERMANTOWN                    NJ07001    FER0012                       NJ1234                        00000000          00000000          000000000000   D
NJSP24P35   00NJSP24P35 00111409291420NJT2017052679838432000163201714120161412017141201729000 14822   00VAN     99945   201703310000000000000000021HUEL                HUEL ESPERANZA                     02122 MARIANE FERRY                                                   GERMANTOWN                    NJ07001    FER0012                       NJ1234                        00000000          00000000          000000000000   D
NJSP24P36   00NJSP24P36 00111409291226NJT2017052679838432000163201714120161412017141201729000 14822   00VAN     99945   201703310000000000000000021HAMMES              HAMMES MEDA                        574 CLEMENTINA SPRINGS                                                GERMANTOWN                    NJ07001    FER0012                       NJ1234                        00000000          00000000          000000000000   D
NJSP24P37   00NJSP24P37 00111409291231NJT2017052679838432000163201714120161412017141201729000 14822   00VAN     99945   201703310000000000000000021BREITENBERG         BREITENBERG KENYATTA               2296 FLORINE MISSION                                                  GERMANTOWN                    NJ07001    FER0012                       NJ1234                        00000000          00000000          000000000000   D
NJSP24P38   00NJSP24P38 00111409291235NJT2017052679838432000163201714120161412017141201729000 14822   00VAN     99945   201703310000000000000000021KUHIC               KUHIC AUBREE                       4025 CRYSTAL ISLAND                                                   GERMANTOWN                    NJ07001    FER0012                       NJ1234                        00000000          00000000          000000000000   D
NJSP24P39   00NJSP24P39 00111409291239NJT2017052679838432000163201714120161412017141201729000 14822   00VAN     99945   201703310000000000000000021CORKERY             CORKERY BRENDEN                    1979 JAST ESTATES                                                     GERMANTOWN                    NJ07001    FER0012                       NJ1234                        00000000          00000000          000000000000   D
NJSP24P40   00NJSP24P40 00111409291242NJT2017052679838432000163201714120161412017141201729000 14822   00VAN     99945   201703310000000000000000021MCCULLOUGH          MCCULLOUGH JERAMIE                 8271 PEARLIE PLAZA                                                    GERMANTOWN                    NJ07001    FER0012                       NJ1234                        00000000          00000000          000000000000   D
NJSP24P41   00NJSP24P41 00111409291247NJT2017052679838432000163201714120161412017141201729000 14822   00VAN     99945   201703310000000000000000021PAUCEK              PAUCEK ADRIEL                      4528 KESSLER MILLS                                                    GERMANTOWN                    NJ07001    FER0012                       NJ1234                        00000000          00000000          000000000000   D
NJSP24P42   00NJSP24P42 00111409291248NJT2017052679838432000163201714120161412017141201729000 14822   00VAN     99945   201703310000000000000000021LARKIN              LARKIN SELINA                      93948 AMERICA KEY                                                     GERMANTOWN                    NJ07001    FER0012                       NJ1234                        00000000          00000000          000000000000   D
NJSP24P43   00NJSP24P43 00111409291252NJT2017052679838432000163201714120161412017141201729000 14822   00VAN     99945   201703310000000000000000021HILPERT             HILPERT JANE                       980 GIBSON KEY                                                        GERMANTOWN                    NJ07001    FER0012                       NJ1234                        00000000          00000000          000000000000   D
NJSP24P44   00NJSP24P44 00111409291256NJT2017052679838432000163201714120161412017141201729000 14822   00VAN     99945   201703310000000000000000021HAAG                HAAG DANE                          417 JERAMY RAPID                                                      GERMANTOWN                    NJ07001    FER0012                       NJ1234                        00000000          00000000          000000000000   D
NJSP24P45   00NJSP24P45 00111409291262NJT2017052679838432000163201714120161412017141201729000 14822   00VAN     99945   201703310000000000000000021YUNDT               YUNDT BRIDGETTE                    483 NAKIA BURG                                                        GERMANTOWN                    NJ07001    FER0012                       NJ1234                        00000000          00000000          000000000000   D
NJSP24P46   00NJSP24P46 00111409291267NJT2017052679838432000163201714120161412017141201729000 14822   00VAN     99945   201703310000000000000000021DOYLE               DOYLE MONICA                       870 HAGENES NECK                                                      GERMANTOWN                    NJ07001    FER0012                       NJ1234                        00000000          00000000          000000000000   D
NJSP24P47   00NJSP24P47 00111409291271NJT2017052679838432000163201714120161412017141201729000 14822   00VAN     99945   201703310000000000000000021GUTMANN             GUTMANN FLOY                       481 JAUNITA GLEN                                                      GERMANTOWN                    NJ07001    FER0012                       NJ1234                        00000000          00000000          000000000000   D
NJSP24P48   00NJSP24P48 00111409291272NJT2017052679838432000163201714120161412017141201729000 14822   00VAN     99945   201703310000000000000000021EBERT               EBERT ERICKA                       67208 WILKINSON VILLE                                                 GERMANTOWN                    NJ07001    FER0012                       NJ1234                        00000000          00000000          000000000000   D
NJSP24P49   00NJSP24P49 00111409291276NJT2017052679838432000163201714120161412017141201729000 14822   00VAN     99945   201703310000000000000000021SCHADEN             SCHADEN TYRESE                     9029 PERRY FALL                                                       GERMANTOWN                    NJ07001    FER0012                       NJ1234                        00000000          00000000          000000000000   D
NJSP24P50   00NJSP24P50 00111409291281NJT2017052679838432000163201714120161412017141201729000 14822   00VAN     99945   201703310000000000000000021CRIST               CRIST HUDSON                       86292 EMELY HAVEN                                                     GERMANTOWN                    NJ07001    FER0012                       NJ1234                        00000000          00000000          000000000000   D
