NJYM475G    00NJYM475G  00111408992421NJT2017052679838432000163201714120161412017141201729000 14822   00VAN     99945   201703310000000000000000021MCCALL              MCCALL PETER                       420 COUNTY ROAD 579                                                   EAST AMWELL TOWNSHIP          NJ08551    FER0012                       NJ1234                        00000000          00000000          000000000000   D
NJUP827Y    00NJUP827Y  00111408992422NJT2017052679838432000163201714120161412017141201729000 14822   00VAN     99945   201703310000000000000000021TRENK               TRENK NANCY S                      15 KNOLLCREST RD                                                      BEDMINSTER                    NJ07921    FER0012                       NJ1234                        00000000          00000000          000000000000   D
NJJGX65X    00NJJGX65X  00111408992423NJT2017052679838432000163201714120161412017141201729000 14822   00VAN     99945   201703310000000000000000021TRENK               TRENK NANCY S                      15 KNOLLCREST RD                                                      BEDMINSTER                    NJ07921    FER0012                       NJ1234                        00000000          00000000          000000000000   D
NJLEB90X    00NJLEB90X  00111408992424NJT2017052679838432000163201714120161412017141201729000 14822   00VAN     99945   201703310000000000000000021TRENK               TRENK NANCY S                      15 KNOLLCREST RD                                                      BEDMINSTER                    NJ07921    FER0012                       NJ1234                        00000000          00000000          000000000000   D
NJYE106L    00NJYE106L  00111408992425NJT2017052679838432000163201714120161412017141201729000 14822   00VAN     99945   201703310000000000000000021TRENK               TRENK NANCY S                      15 KNOLLCREST RD                                                      BEDMINSTER                    NJ07921    FER0012                       NJ1234                        00000000          00000000          000000000000   D
NJMBL42F    00NJMBL42F  00111408992426NJT2017052679838432000163201714120161412017141201729000 14822   00VAN     99945   201703310000000000000000021TRENK               TRENK NANCY S                      15 KNOLLCREST RD                                                      BEDMINSTER                    NJ07921    FER0012                       NJ1234                        00000000          00000000          000000000000   D
