NJMUN00P1   00NJMUN00P1 00111408992595NJT2017052679838432000163201714120161412017141201729000 14822   00VAN     99945   201703310000000000000000021BILLY               BILLY MANCHESTER                   NO 001, GARDEN STREET                                                 GERMANTOWN                    NJ07001    FER0012                       NJ1234                        00000000          00000000          000000000000   D
NJMUN00P2   00NJMUN00P2 00111408992596NJT2017052679838432000163201714120161412017141201729000 14822   00VAN     99945   201703310000000000000000021JIMMY               JIMMY LIN                          NO 002, GARDEN STREET                                                 GERMANTOWN                    NJ07001    FER0012                       NJ1234                        00000000          00000000          000000000000   D
NJMUN00P3   00NJMUN00P3 00111408992597NJT2017052679838432000163201714120161412017141201729000 14822   00VAN     99945   201703310000000000000000021BOB                 BOB MARSHALL                       NO 003, GARDEN STREET                                                 GERMANTOWN                    NJ07001    FER0012                       NJ1234                        00000000          00000000          000000000000   D
