NJFB5WE1    00NJFB5WE1  00113079828245NJT2017052679838432000163201714120161412017141201729000 14822   00VAN     99945   201703310000000000000000021BEATTY              BEATTY AUDRA                       638 MORAR WAYS                                                        NEWARK                        NJ07114    FER0012                       NJ1234                        00000000          00000000          000000000000   D
NJFB5WE2    00NJFB5WE2  00113079828251NJT2017052679838432000163201714120161412017141201729000 14822   00VAN     99945   201703310000000000000000021HUDSON              HUDSON NIA                         41958 LISA MOUNTAIN                                                   NEWARK                        NJ07114    FER0012                       NJ1234                        00000000          00000000          000000000000   D
NJFB5WE3    00NJFB5WE3  00113079828257NJT2017052679838432000163201714120161412017141201729000 14822   00VAN     99945   201703310000000000000000021GOODWIN             GOODWIN CLEMENS                    96171 CHANELLE ROAD                                                   NEWARK                        NJ07114    FER0012                       NJ1234                        00000000          00000000          000000000000   D
NJFB5WE4    00NJFB5WE4  00113079828260NJT2017052679838432000163201714120161412017141201729000 14822   00VAN     99945   201703310000000000000000021LANGWORTH           LANGWORTH BRITTANY                 58972 BOGAN CENTER                                                    NEWARK                        NJ07114    FER0012                       NJ1234                        00000000          00000000          000000000000   D
