NJSS71P1    00NJSS71P1  00113079827780NJT2017052679838432000163201714120161412017141201729000 14822   00VAN     99945   201703310000000000000000021ORN                 ORN CHAD                           9484 TURNER FIELD                                                     NEWARK                        NJ07114    FER0012                       NJ1234                        00000000          00000000          000000000000   D
NJSS71P2    00NJSS71P2  00113079827786NJT2017052679838432000163201714120161412017141201729000 14822   00VAN     99945   201703310000000000000000021LOCKMAN             LOCKMAN LOUVENIA                   13115 ELBERT UNION                                                    NEWARK                        NJ07114    FER0012                       NJ1234                        00000000          00000000          000000000000   D
NJSS71P3    00NJSS71P3  00113079827788NJT2017052679838432000163201714120161412017141201729000 14822   00VAN     99945   201703310000000000000000021EMARD               EMARD TIFFANY                      447 HALVORSON CENTER                                                  NEWARK                        NJ07114    FER0012                       NJ1234                        00000000          00000000          000000000000   D
NJSS71P4    00NJSS71P4  00113079827794NJT2017052679838432000163201714120161412017141201729000 14822   00VAN     99945   201703310000000000000000021STREICH             STREICH ANNA                       96688 KOBY VISTA                                                      NEWARK                        NJ07114    FER0012                       NJ1234                        00000000          00000000          000000000000   D
