NJSFJ9L1    00NJSFJ9L1  00113079827860NJT2017052679838432000163201714120161412017141201729000 14822   00VAN     99945   201703310000000000000000021KERLUKE             KERLUKE KURTIS                     014 JAZMYN SPURS                                                      NEWARK                        NJ07114    FER0012                       NJ1234                        00000000          00000000          000000000000   D
NJSFJ9L2    00NJSFJ9L2  00113079827866NJT2017052679838432000163201714120161412017141201729000 14822   00VAN     99945   201703310000000000000000021MCCULLOUGH          MCCULLOUGH ROWAN                   0012 KARINE TURNPIKE                                                  NEWARK                        NJ07114    FER0012                       NJ1234                        00000000          00000000          000000000000   D
NJSFJ9L3    00NJSFJ9L3  00113079827867NJT2017052679838432000163201714120161412017141201729000 14822   00VAN     99945   201703310000000000000000021DICKINSON           DICKINSON LAVINIA                  446 SAGE CRESCENT                                                     NEWARK                        NJ07114    FER0012                       NJ1234                        00000000          00000000          000000000000   D
NJSFJ9L4    00NJSFJ9L4  00113079827872NJT2017052679838432000163201714120161412017141201729000 14822   00VAN     99945   201703310000000000000000021ANDERSON            ANDERSON LOYAL                     4197 KAILEE FORGE                                                     NEWARK                        NJ07114    FER0012                       NJ1234                        00000000          00000000          000000000000   D
