NJSF82MO1   00NJSF82MO1 00113080315097NJT2017052679838432000163201714120161412017141201729000 14822   00VAN     99945   201703310000000000000000021LUETTGEN            LUETTGEN DANIELLA                  12578 CROOKS FALL                                                     NEWARK                        NJ07114    FER0012                       NJ1234                        00000000          00000000          000000000000   D
NJSF82MO2   00NJSF82MO2 00113080315098NJT2017052679838432000163201714120161412017141201729000 14822   00VAN     99945   201703310000000000000000021KERLUKE             KERLUKE FANNIE                     51215 SCHAEFER FORGES                                                 NEWARK                        NJ07114    FER0012                       NJ1234                        00000000          00000000          000000000000   D
NJSF82MO3   00NJSF82MO3 00113080315105NJT2017052679838432000163201714120161412017141201729000 14822   00VAN     99945   201703310000000000000000021MURPHY              MURPHY RICK                        118 AMBROSE OVAL                                                      NEWARK                        NJ07114    FER0012                       NJ1234                        00000000          00000000          000000000000   D
NJSF82MO4   00NJSF82MO4 00113080315108NJT2017052679838432000163201714120161412017141201729000 14822   00VAN     99945   201703310000000000000000021TREMBLAY            TREMBLAY JESUS                     4954 SELINA PIKE                                                      NEWARK                        NJ07114    FER0012                       NJ1234                        00000000          00000000          000000000000   D
