NJD4R5R1    00NJD4R5R1  00113079828298NJT2017052679838432000163201714120161412017141201729000 14822   00VAN     99945   201703310000000000000000021CARTER              CARTER ETTIE                       957 BRENNON RIVER                                                     NEWARK                        NJ07114    FER0012                       NJ1234                        00000000          00000000          000000000000   D
NJD4R5R2    00NJD4R5R2  00113079828299NJT2017052679838432000163201714120161412017141201729000 14822   00VAN     99945   201703310000000000000000021GOODWIN             GOODWIN ANIBAL                     6334 URBAN GARDEN                                                     NEWARK                        NJ07114    FER0012                       NJ1234                        00000000          00000000          000000000000   D
NJD4R5R3    00NJD4R5R3  00113079828306NJT2017052679838432000163201714120161412017141201729000 14822   00VAN     99945   201703310000000000000000021LANG                LANG SKYLAR                        96373 ERNEST MISSION                                                  NEWARK                        NJ07114    FER0012                       NJ1234                        00000000          00000000          000000000000   D
NJD4R5R4    00NJD4R5R4  00113079828307NJT2017052679838432000163201714120161412017141201729000 14822   00VAN     99945   201703310000000000000000021THOMPSON            THOMPSON ELENORA                   68580 ALEX SKYWAY                                                     NEWARK                        NJ07114    FER0012                       NJ1234                        00000000          00000000          000000000000   D
NJD4R5R5    00NJD4R5R5  00113079828313NJT2017052679838432000163201714120161412017141201729000 14822   00VAN     99945   201703310000000000000000021ROBERTS             ROBERTS BERNEICE                   76465 DENA LAND                                                       NEWARK                        NJ07114    FER0012                       NJ1234                        00000000          00000000          000000000000   D
NJD4R5R6    00NJD4R5R6  00113079828315NJT2017052679838432000163201714120161412017141201729000 14822   00VAN     99945   201703310000000000000000021FEIL                FEIL FRANCES                       165 ERDMAN PARK                                                       NEWARK                        NJ07114    FER0012                       NJ1234                        00000000          00000000          000000000000   D
