NJSD78P1    00NJSD78P1  00113080439261NJT2017052679838432000163201714120161412017141201729000 14822   00VAN     99945   201703310000000000000000021CRUICKSHANK         CRUICKSHANK NELS                   1455 ETHAN FORD                                                       NEWARK                        NJ07114    FER0012                       NJ1234                        00000000          00000000          000000000000   D
NJSD78P2    00NJSD78P2  00113080439266NJT2017052679838432000163201714120161412017141201729000 14822   00VAN     99945   201703310000000000000000021REINGER             REINGER CLAUDIA                    777 HEIDENREICH CURVE                                                 NEWARK                        NJ07114    FER0012                       NJ1234                        00000000          00000000          000000000000   D
NJSD78P3    00NJSD78P3  00113080439273NJT2017052679838432000163201714120161412017141201729000 14822   00VAN     99945   201703310000000000000000021LUBOWITZ            LUBOWITZ AISHA                     578 JACKLYN FORD                                                      NEWARK                        NJ07114    FER0012                       NJ1234                        00000000          00000000          000000000000   D
NJSD78P4    00NJSD78P4  00113080439280NJT2017052679838432000163201714120161412017141201729000 14822   00VAN     99945   201703310000000000000000021TROMP               TROMP FREDERICK                    9787 BEIER VIEWS                                                      NEWARK                        NJ07114    FER0012                       NJ1234                        00000000          00000000          000000000000   D
NJSD78P5    00NJSD78P5  00113080439281NJT2017052679838432000163201714120161412017141201729000 14822   00VAN     99945   201703310000000000000000021OBERBRUNNER         OBERBRUNNER MICAH                  4726 ALLENE EXTENSION                                                 NEWARK                        NJ07114    FER0012                       NJ1234                        00000000          00000000          000000000000   D
NJSD78P6    00NJSD78P6  00113080439286NJT2017052679838432000163201714120161412017141201729000 14822   00VAN     99945   201703310000000000000000021HARVEY              HARVEY ARNO                        55432 KLOCKO WAY                                                      NEWARK                        NJ07114    FER0012                       NJ1234                        00000000          00000000          000000000000   D
