NJAXC2J1    00NJAXC2J1  00113080493448NJT2017052679838432000163201714120161412017141201729000 14822   00VAN     99945   201703310000000000000000021PARKER              PARKER MARGRET                     2747 HERTA VIADUCT                                                    NEWARK                        NJ07114    FER0012                       NJ1234                        00000000          00000000          000000000000   D
NJAXC2J2    00NJAXC2J2  00113080493453NJT2017052679838432000163201714120161412017141201729000 14822   00VAN     99945   201703310000000000000000021FLATLEY             FLATLEY ADRAIN                     453 ABBOTT PARKS                                                      NEWARK                        NJ07114    FER0012                       NJ1234                        00000000          00000000          000000000000   D
NJAXC2J3    00NJAXC2J3  00113080493461NJT2017052679838432000163201714120161412017141201729000 14822   00VAN     99945   201703310000000000000000021LAKIN               LAKIN MARGARETE                    6105 GAYLORD PORTS                                                    NEWARK                        NJ07114    FER0012                       NJ1234                        00000000          00000000          000000000000   D
NJAXC2J4    00NJAXC2J4  00113080493462NJT2017052679838432000163201714120161412017141201729000 14822   00VAN     99945   201703310000000000000000021CRONA               CRONA HADLEY                       5474 TIERRA RIVER                                                     NEWARK                        NJ07114    FER0012                       NJ1234                        00000000          00000000          000000000000   D
