NJV4AM91    00NJV4AM91  00113079828353NJT2017052679838432000163201714120161412017141201729000 14822   00VAN     99945   201703310000000000000000021KEMMER              KEMMER BENEDICT                    141 SCHAEFER PORT                                                     NEWARK                        NJ07114    FER0012                       NJ1234                        00000000          00000000          000000000000   D
NJV4AM92    00NJV4AM92  00113079828359NJT2017052679838432000163201714120161412017141201729000 14822   00VAN     99945   201703310000000000000000021ROBEL               ROBEL JANY                         46971 EICHMANN GLEN                                                   NEWARK                        NJ07114    FER0012                       NJ1234                        00000000          00000000          000000000000   D
NJV4AM93    00NJV4AM93  00113079828363NJT2017052679838432000163201714120161412017141201729000 14822   00VAN     99945   201703310000000000000000021GRADY               GRADY MAYRA                        85601 LUNA LODGE                                                      NEWARK                        NJ07114    FER0012                       NJ1234                        00000000          00000000          000000000000   D
NJV4AM94    00NJV4AM94  00113079828367NJT2017052679838432000163201714120161412017141201729000 14822   00VAN     99945   201703310000000000000000021HAMILL              HAMILL ADELL                       86587 CARTER WALK                                                     NEWARK                        NJ07114    FER0012                       NJ1234                        00000000          00000000          000000000000   D
NJV4AM95    00NJV4AM95  00113079828371NJT2017052679838432000163201714120161412017141201729000 14822   00VAN     99945   201703310000000000000000021MONAHAN             MONAHAN ELIAN                      4705 ABBOTT LODGE                                                     NEWARK                        NJ07114    FER0012                       NJ1234                        00000000          00000000          000000000000   D
NJV4AM96    00NJV4AM96  00113079828376NJT2017052679838432000163201714120161412017141201729000 14822   00VAN     99945   201703310000000000000000021KIEHN               KIEHN BRIANA                       75387 TYREL BRIDGE                                                    NEWARK                        NJ07114    FER0012                       NJ1234                        00000000          00000000          000000000000   D
