NJD9H1E1    00NJD9H1E1  00113079828213NJT2017052679838432000163201714120161412017141201729000 14822   00VAN     99945   201703310000000000000000021HERMAN              HERMAN KRAIG                       653 JUSTEN FALL                                                       NEWARK                        NJ07114    FER0012                       NJ1234                        00000000          00000000          000000000000   D
NJD9H1E2    00NJD9H1E2  00113079828219NJT2017052679838432000163201714120161412017141201729000 14822   00VAN     99945   201703310000000000000000021KREIGER             KREIGER GOLDA                      44380 CRUICKSHANK FORT                                                NEWARK                        NJ07114    FER0012                       NJ1234                        00000000          00000000          000000000000   D
NJD9H1E3    00NJD9H1E3  00113079828223NJT2017052679838432000163201714120161412017141201729000 14822   00VAN     99945   201703310000000000000000021ROHAN               ROHAN HANNAH                       1432 WILFORD HAVEN                                                    NEWARK                        NJ07114    FER0012                       NJ1234                        00000000          00000000          000000000000   D
NJD9H1E4    00NJD9H1E4  00113079828227NJT2017052679838432000163201714120161412017141201729000 14822   00VAN     99945   201703310000000000000000021HAUCK               HAUCK SHEA                         534 HAHN FORGES                                                       NEWARK                        NJ07114    FER0012                       NJ1234                        00000000          00000000          000000000000   D
