NJSS32WE1   00NJSS32WE1 00113080971490NJT2017052679838432000163201714120161412017141201729000 14822   00VAN     99945   201703310000000000000000021GUSIKOWSKI          GUSIKOWSKI CINDY                   244 SPINKA INLET                                                      NEWARK                        NJ07114    FER0012                       NJ1234                        00000000          00000000          000000000000   D
NJSS32WE2   00NJSS32WE2 00113080971494NJT2017052679838432000163201714120161412017141201729000 14822   00VAN     99945   201703310000000000000000021QUIGLEY             QUIGLEY KRISTIAN                   960 KOCH FIELDS                                                       NEWARK                        NJ07114    FER0012                       NJ1234                        00000000          00000000          000000000000   D
NJSS32WE3   00NJSS32WE3 00113080971496NJT2017052679838432000163201714120161412017141201729000 14822   00VAN     99945   201703310000000000000000021CORKERY             CORKERY ALFREDO                    2116 HINTZ MEADOW                                                     NEWARK                        NJ07114    FER0012                       NJ1234                        00000000          00000000          000000000000   D
