NYSS66NJ1   00NYSS66NJ1 00113080730987NJT2017052679838432000163201714120161412017141201729000 14822   00VAN     99945   201703310000000000000000021GIBSON              GIBSON MAJOR                       49584 KUHLMAN ROAD                                                    NEWARK                        NJ07114    FER0012                       NJ1234                        00000000          00000000          000000000000   D
NYSS66NJ2   00NYSS66NJ2 00113080730988NJT2017052679838432000163201714120161412017141201729000 14822   00VAN     99945   201703310000000000000000021SPENCER             SPENCER MARIANO                    63821 ADELIA RAPID                                                    NEWARK                        NJ07114    FER0012                       NJ1234                        00000000          00000000          000000000000   D
NYSS66NJ3   00NYSS66NJ3 00113080730992NJT2017052679838432000163201714120161412017141201729000 14822   00VAN     99945   201703310000000000000000021CROOKS              CROOKS LEONARD                     7350 ERICKA TRACE                                                     NEWARK                        NJ07114    FER0012                       NJ1234                        00000000          00000000          000000000000   D
