NJB5D4P2    00NJB5D4P2  00113080315147NJT2017052679838432000163201714120161412017141201729000 14822   00VAN     99945   201703310000000000000000021CARTER              CARTER MARIAM                      24727 LEANNON MEADOWS                                                 NEWARK                        NJ07114    FER0012                       NJ1234                        00000000          00000000          000000000000   D
NJB5D4P3    00NJB5D4P3  00113080315154NJT2017052679838432000163201714120161412017141201729000 14822   00VAN     99945   201703310000000000000000021CARTER              CARTER MARIAM                      24727 LEANNON MEADOWS                                                 NEWARK                        NJ07114    FER0012                       NJ1234                        00000000          00000000          000000000000   D
NJB5D4P1    00NJB5D4P1  00113080315216NJT2017052679838432000163201714120161412017141201729000 14822   00VAN     99945   201703310000000000000000021CARTER              CARTER MARIAM                      24727 LEANNON MEADOWS                                                 NEWARK                        NJ07114    FER0012                       NJ1234                        00000000          00000000          000000000000   D
NJB5D4P4    00NJB5D4P4  00113080315228NJT2017052679838432000163201714120161412017141201729000 14822   00VAN     99945   201703310000000000000000021CARTER              CARTER MARIAM                      24727 LEANNON MEADOWS                                                 NEWARK                        NJ07114    FER0012                       NJ1234                        00000000          00000000          000000000000   D
