NJE2X3P1    00NJE2X3P1  00113079826601NJT2017052679838432000163201714120161412017141201729000 14822   00VAN     99945   201703310000000000000000021SCHOWALTER          SCHOWALTER TWILA                   53892 KASSULKE SHOALS                                                 NEWARK                        NJ07114    FER0012                       NJ1234                        00000000          00000000          000000000000   D
NJE2X3P2    00NJE2X3P2  00113079826605NJT2017052679838432000163201714120161412017141201729000 14822   00VAN     99945   201703310000000000000000021GLEASON             GLEASON MONROE                     7327 HEGMANN CENTERS                                                  NEWARK                        NJ07114    FER0012                       NJ1234                        00000000          00000000          000000000000   D
NJE2X3P3    00NJE2X3P3  00113079826607NJT2017052679838432000163201714120161412017141201729000 14822   00VAN     99945   201703310000000000000000021BLICK               BLICK KATHERYN                     84887 EMMERICH SPURS                                                  NEWARK                        NJ07114    FER0012                       NJ1234                        00000000          00000000          000000000000   D
NJE2X3P4    00NJE2X3P4  00113079826613NJT2017052679838432000163201714120161412017141201729000 14822   00VAN     99945   201703310000000000000000021GRIMES              GRIMES LUCY                        2702 WALSH HAVEN                                                      NEWARK                        NJ07114    FER0012                       NJ1234                        00000000          00000000          000000000000   D
NJE2X3P5    00NJE2X3P5  00113079826619NJT2017052679838432000163201714120161412017141201729000 14822   00VAN     99945   201703310000000000000000021WUNSCH              WUNSCH GERARD                      4373 CLEMENTINA HILLS                                                 NEWARK                        NJ07114    FER0012                       NJ1234                        00000000          00000000          000000000000   D
NJE2X3P6    00NJE2X3P6  00113079826624NJT2017052679838432000163201714120161412017141201729000 14822   00VAN     99945   201703310000000000000000021MITCHELL            MITCHELL PANSY                     92585 VITO GROVES                                                     NEWARK                        NJ07114    FER0012                       NJ1234                        00000000          00000000          000000000000   D
NJE2X3P7    00NJE2X3P7  00113079826631NJT2017052679838432000163201714120161412017141201729000 14822   00VAN     99945   201703310000000000000000021WISOZK              WISOZK KARLEY                      51721 KRAJCIK ISLAND                                                  NEWARK                        NJ07114    FER0012                       NJ1234                        00000000          00000000          000000000000   D
NJE2X3P8    00NJE2X3P8  00113079826636NJT2017052679838432000163201714120161412017141201729000 14822   00VAN     99945   201703310000000000000000021MACEJKOVIC          MACEJKOVIC EBONY                   0053 JOSIANE MOTORWAY                                                 NEWARK                        NJ07114    FER0012                       NJ1234                        00000000          00000000          000000000000   D
NJE2X3P9    00NJE2X3P9  00113079826641NJT2017052679838432000163201714120161412017141201729000 14822   00VAN     99945   201703310000000000000000021STEHR               STEHR JENIFER                      094 GLEASON BURG                                                      NEWARK                        NJ07114    FER0012                       NJ1234                        00000000          00000000          000000000000   D
NJE2X3P10   00NJE2X3P10 00113079826644NJT2017052679838432000163201714120161412017141201729000 14822   00VAN     99945   201703310000000000000000021STRACKE             STRACKE CONOR                      4186 BOYER PORT                                                       NEWARK                        NJ07114    FER0012                       NJ1234                        00000000          00000000          000000000000   D
NJE2X3P11   00NJE2X3P11 00113079826651NJT2017052679838432000163201714120161412017141201729000 14822   00VAN     99945   201703310000000000000000021KIEHN               KIEHN RANSOM                       005 LOCKMAN FORGES                                                    NEWARK                        NJ07114    FER0012                       NJ1234                        00000000          00000000          000000000000   D
NJE2X3P12   00NJE2X3P12 00113079826655NJT2017052679838432000163201714120161412017141201729000 14822   00VAN     99945   201703310000000000000000021HERMANN             HERMANN ZITA                       83136 KRYSTEL ROAD                                                    NEWARK                        NJ07114    FER0012                       NJ1234                        00000000          00000000          000000000000   D
NJE2X3P13   00NJE2X3P13 00113079826659NJT2017052679838432000163201714120161412017141201729000 14822   00VAN     99945   201703310000000000000000021BAUCH               BAUCH JOVANNY                      4993 DAMORE MOUNTAINS                                                 NEWARK                        NJ07114    FER0012                       NJ1234                        00000000          00000000          000000000000   D
NJE2X3P14   00NJE2X3P14 00113079826566NJT2017052679838432000163201714120161412017141201729000 14822   00VAN     99945   201703310000000000000000021HESSEL              HESSEL ELDRED                      633 FISHER TURNPIKE                                                   NEWARK                        NJ07114    FER0012                       NJ1234                        00000000          00000000          000000000000   D
NJE2X3P15   00NJE2X3P15 00113079826570NJT2017052679838432000163201714120161412017141201729000 14822   00VAN     99945   201703310000000000000000021PFANNERSTILL        PFANNERSTILL AMY                   9815 WELCH FORT                                                       NEWARK                        NJ07114    FER0012                       NJ1234                        00000000          00000000          000000000000   D
NJE2X3P16   00NJE2X3P16 00113079826574NJT2017052679838432000163201714120161412017141201729000 14822   00VAN     99945   201703310000000000000000021STROSIN             STROSIN DAREN                      20590 OKON VILLE                                                      NEWARK                        NJ07114    FER0012                       NJ1234                        00000000          00000000          000000000000   D
NJE2X3P17   00NJE2X3P17 00113079826578NJT2017052679838432000163201714120161412017141201729000 14822   00VAN     99945   201703310000000000000000021QUITZON             QUITZON MAYBELLE                   26842 ANDREANE STREAM                                                 NEWARK                        NJ07114    FER0012                       NJ1234                        00000000          00000000          000000000000   D
NJE2X3P18   00NJE2X3P18 00113079826585NJT2017052679838432000163201714120161412017141201729000 14822   00VAN     99945   201703310000000000000000021WOLF                WOLF GIANNI                        1624 RACHEL ROADS                                                     NEWARK                        NJ07114    FER0012                       NJ1234                        00000000          00000000          000000000000   D
NJE2X3P19   00NJE2X3P19 00113079826590NJT2017052679838432000163201714120161412017141201729000 14822   00VAN     99945   201703310000000000000000021WEBER               WEBER NICK                         4943 CONSIDINE LODGE                                                  NEWARK                        NJ07114    FER0012                       NJ1234                        00000000          00000000          000000000000   D
NJE2X3P20   00NJE2X3P20 00113079826593NJT2017052679838432000163201714120161412017141201729000 14822   00VAN     99945   201703310000000000000000021SMITHAM             SMITHAM RYLEE                      63342 TOMMIE WALKS                                                    NEWARK                        NJ07114    FER0012                       NJ1234                        00000000          00000000          000000000000   D
