NJFD3CP1    00NJFD3CP1  00113079827876NJT2017052679838432000163201714120161412017141201729000 14822   00VAN     99945   201703310000000000000000021LITTEL              LITTEL RUBIE                       0102 JAYLEN PORT                                                      NEWARK                        NJ07114    FER0012                       NJ1234                        00000000          00000000          000000000000   D
NJFD3CP2    00NJFD3CP2  00113079827879NJT2017052679838432000163201714120161412017141201729000 14822   00VAN     99945   201703310000000000000000021STOLTENBERG         STOLTENBERG WILLIS                 909 RYAN FALL                                                         NEWARK                        NJ07114    FER0012                       NJ1234                        00000000          00000000          000000000000   D
NJFD3CP3    00NJFD3CP3  00113079827886NJT2017052679838432000163201714120161412017141201729000 14822   00VAN     99945   201703310000000000000000021BERGNAUM            BERGNAUM WAYLON                    623 MARINA COVES                                                      NEWARK                        NJ07114    FER0012                       NJ1234                        00000000          00000000          000000000000   D
NJFD3CP4    00NJFD3CP4  00113079827887NJT2017052679838432000163201714120161412017141201729000 14822   00VAN     99945   201703310000000000000000021HODKIEWICZ          HODKIEWICZ MADGE                   50788 VERLA EXTENSION                                                 NEWARK                        NJ07114    FER0012                       NJ1234                        00000000          00000000          000000000000   D
NJFD3CP5    00NJFD3CP5  00113079827894NJT2017052679838432000163201714120161412017141201729000 14822   00VAN     99945   201703310000000000000000021TOWNE               TOWNE REYMUNDO                     57708 BASHIRIAN LAKE                                                  NEWARK                        NJ07114    FER0012                       NJ1234                        00000000          00000000          000000000000   D
NJFD3CP6    00NJFD3CP6  00113079827896NJT2017052679838432000163201714120161412017141201729000 14822   00VAN     99945   201703310000000000000000021JAKUBOWSKI          JAKUBOWSKI HALIE                   69456 SARAI ISLANDS                                                   NEWARK                        NJ07114    FER0012                       NJ1234                        00000000          00000000          000000000000   D
NJFD3CP7    00NJFD3CP7  00113079827902NJT2017052679838432000163201714120161412017141201729000 14822   00VAN     99945   201703310000000000000000021YOST                YOST LEONARD                       486 LETHA ISLE                                                        NEWARK                        NJ07114    FER0012                       NJ1234                        00000000          00000000          000000000000   D
NJFD3CP8    00NJFD3CP8  00113079827906NJT2017052679838432000163201714120161412017141201729000 14822   00VAN     99945   201703310000000000000000021MANTE               MANTE GRACIELA                     1519 ABBOTT MILLS                                                     NEWARK                        NJ07114    FER0012                       NJ1234                        00000000          00000000          000000000000   D
