ICTX0220082019062104395000000135249471
11307865443320190426029B********************00813298321*****A*NYNYAET115  00202050N20190426004500OSF04W+00200
11307865443220190426029B********************00813298321*****A*NYNYAET115  00202050N20190426001500OSF01W+00200
11307865442520190426029B********************00813298321*****A*NYNYAET115  00202050N20190426203000OSF03W+00200
11307865443420190426029B********************00813298321*****A*NYNYAET115  00202050N20190426011500OSF01W+00200
11307866324920190517029B********************00806071189*****A*NYDYB9138   00100000N20190517115134OSF34W+00260
11307888293420190524029B********************00502539658*****A*PAKVUATP38  00303050N20190524200000OSF04W+01275
11307888292020190524029B********************00502539658*****A*PAKVUATP38  00101050N20190524130000OSF01W+00125
11307888296020190525029B********************00502539658*****A*PAKVUATP38  00707050N20190525090000OSF01W+02975
11307888506220190616029B********************00811189774*****A*NYGKY4025   00100000N20190616091245OSF34W+00125
11307888508920190616029B********************00808443256*****A*NYEFH9716   00100000N20190616092834OSF34W+00125
11307888512420190616029B********************00403410827*****A*NEW17607    00500000N20190616094650OSF31W+02125
11307888502520190616029B********************00810966029*****A*NYGPN8480   00100000N20190616084532OSF32W+00125
11307888486220190616029B********************00407230043*****A*NYGTY4232   00100000N20190616065910OSF34W+00125
11307888498820190616029B********************00808873035*****A*PAJCP1489   00100000N20190616082838OSF31W+00125
11307888526420190616029B********************00808968128*****A*NYDHP3826   00100000N20190616105630OSF32W+00125
11307888490320190616029B********************00809384723*****A*NYPATIL     00100000N20190616073230OSF34W+00125
11307888508620190616029B********************00401741640*****A*IN2044067   00500000N20190616092732OSF34W+02125
11307888472820190616029B********************00502865785*****A*PAJRA0687   00100000N20190616023333OSF34W+00125
11307888509120190616029B********************00808598094*****A*NYECC7440   00100000N20190616093025OSF34W+00125
11307888519420190616029B********************00810845309*****A*NYHBH1273   00100000N20190616102557OSF34W+00125
11307888484420190616029B********************00403410827*****A*NEW17627    00505000N20190616063540OSF31W+02125
11307888510020190616029B********************00503120193*****A*PAJGG8888   00102000N20190616093413OSF32W+00125
11307888476620190616029B********************00404354750*****A*NYGDX1940   00100000N20190616035316OSF34W+00125
11307888509820190616029B********************00808637825*****A*PAJVB2832   00100000N20190616093245OSF34W+00125
11307888489520190616029B********************00406892793*****A*NYGNR4817   00100000N20190616072404OSF31W+00125
11307888509320190616029B********************00806746726*****A*CT4415CV    00500000N20190616093104OSF31W+02125
11307888525620190616029B********************00810891397*****A*NYFZH9834   00100000N20190616105434OSF34W+00125
11307888486120190616029B********************00502633482*****A*NJF59DAU    00100000N20190616065517OSF32W+00125
11307888505020190616029B********************00502277194*****A*NYFYA9776   00100000N20190616090700OSF32W+00125
11307888487220190616029B********************00402826889*****A*NYBAN5294   00100000N20190616070857OSF31W+00125
11307888514720190616029B********************00809749565*****A*NYGHV9113   00100000N20190616100012OSF34W+00125
11307888470020190616029B********************00405772809*****A*NY8189773   00102000N20190616014934OSF34W+00125
11307888525520190616029B********************00808357780*****A*NYEFF1904   00100000N20190616105412OSF34W+00125
11307888486420190616029B********************00502535776*****A*NJNJD23E    00100000N20190616070119OSF32W+00125
11307888624920190616029B********************00502535776*****A*NJNJD23E    00100000N20190616122821OSF34W+00125
11307888628520190616029B********************00404858117*****A*NYU107LL    00100000N20190616123824OSF34W+00125
11307888609020190616029B********************00405504457*****A*NYGDU2097   00100000N20190616114247OSF34W+00125
11307888620220190616029B********************00502535776*****A*NJNJD23E    00100000N20190616121817OSF34W+00125
11307888634420190616029B********************00807741104*****A*NYGRC7290   00100000N20190616125735OSF34W+00125
11307888601720190616029B********************00808933062*****A*NYHBG4601   00100000N20190616111950OSF34W+00125
11307888621920190616029B********************00502535776*****A*NJNJD23E    00100000N20190616122132OSF31W+00125
11307888663920190616029B********************00407473827*****A*NYDXJ5149   00100000N20190616143714OSF31W+00125
11307888617920190616029B********************00502535776*****A*NJNJD23E    00102000N20190616121042OSF32W+00125
11307888663520190616029B********************00809331301*****A*NYGZL1729   00100000N20190616143601OSF34W+00125
11307888640820190616029B********************00809418177*****A*NYYESSIR    00102000N20190616131542OSF34W+00125
11307888603920190616029B********************00807461976*****A*NYGVH8804   00100000N20190616112740OSF32W+00125
11307888667620190616029B********************00404970980*****A*NYBCS5153   00100000N20190616145022OSF34W+00125
11307888611020190616029B********************00808621653*****A*PAJNV1603   00100000N20190616115022OSF34W+00125
11307888625320190616029B********************00502535776*****A*NJNJD23E    00102000N20190616122910OSF32W+00125
11307888529520190616029B********************00809357637*****A*************00102000N20190616001153OSF32W+00260
11307888535720190616029B********************00406210470*****A*************00302000N20190616011422OSF31W+01425
11307888536420190616029B********************00405922920*****A*************00102000N20190616011915OSF31W+00260
11307888538220190616029B********************00809691245*****A*************00102000N20190616014244OSF34W+00260
11307888550420190616029B********************00809356437*****A*************00102000N20190616060141OSF34W+00260
11307888555620190616029B********************00405659515*****A*************00102000N20190616070655OSF32W+00260
11307888564520190616029B********************00811318143*****A*************00102000N20190616080955OSF31W+00260
11307888568720190616029B********************00407234586*****A*************00102000N20190616083545OSF32W+00260
11307888579820190616029B********************00811320739*****A*************00102000N20190616094015OSF34W+00260
11307888580620190616029B********************00810970681*****A*************00102000N20190616094513OSF31W+00260
11307888583920190616029B********************00407976449*****A*************00102000N20190616100525OSF34W+00260
11307888584220190616029B********************00808953117*****A*************00102000N20190616100609OSF34W+00260
11307888584720190616029B********************00810268059*****A*************00102000N20190616100918OSF31W+00260
11307888588920190616029B********************00407736734*****A*************00102000N20190616103157OSF31W+00260
11307888591120190616029B********************00811043152*****A*************00102000N20190616104307OSF34W+00260
11307888592920190616029B********************00502587795*****A*************00102000N20190616105100OSF34W+00260
11307888594420190616029B********************00807477644*****A*************00102000N20190616105503OSF34W+00260
11307888596320190616029B********************00502297317*****A*************00102000N20190616110154OSF34W+00260
11307888596720190616029B********************00808146689*****A*************00102000N20190616110353OSF32W+00260
11307888606820190616029B********************00810784227*****A*************00102000N20190616113800OSF34W+00260
11307888607020190616029B********************00810988671*****A*************00102000N20190616113830OSF34W+00260
11307888607320190616029B********************00808800216*****A*************00303000N20190616113913OSF31W+01425
11307888615020190616029B********************00406300263*****A*************00505000N20190616120056OSF32W+02375
11307888618020190616029B********************00810828632*****A*************00102000N20190616121046OSF34W+00260
11307888620720190616029B********************00808966958*****A*************00102000N20190616121908OSF31W+00260
11307888621420190616029B********************00810683972*****A*************00102000N20190616121947OSF34W+00260
11307888628820190616029B********************00808128767*****A*************00102000N20190616123944OSF32W+00260
11307888631720190616029B********************00502621750*****A*************00505000N20190616124843OSF34W+02375
11307888632120190616029B********************00811067864*****A*************00102000N20190616124943OSF34W+00260
11307888636420190616029B********************00809772898*****A*************00102000N20190616130317OSF31W+00260
11307888639820190616029B********************00810184323*****A*************00102000N20190616131102OSF34W+00260
11307888646520190616029B********************00811043152*****A*************00102000N20190616133319OSF34W+00260
11307888650520190616029B********************00503015135*****A*************00102000N20190616134702OSF31W+00260
11307888656920190616029B********************00406861275*****A*************00102000N20190616140921OSF34W+00260
11307888660120190616029B********************00406935664*****A*************00505000N20190616142306OSF31W+02375
11307888665720190616029B********************00810727711*****A*************00102000N20190616144428OSF34W+00260
11307888669020190616029B********************00811138323*****A*************00102000N20190616145457OSF34W+00260
11307888673620190616029B********************00406201462*****A*************00102000N20190616151110OSF34W+00260
11307888676220190616029B********************00808848578*****A*************00102000N20190616152010OSF34W+00260
11307888678420190616029B********************00809254173*****A*************00102000N20190616153011OSF34W+00260
11307888681820190616029B********************00810767078*****A*************00102000N20190616154603OSF32W+00260
11307888685820190616029B********************00811109920*****A*************00102000N20190616160400OSF34W+00260
11307888688620190616029B********************00810761873*****A*************00102000N20190616161519OSF34W+00260
11307888688820190616029B********************00502383109*****A*************00102000N20190616161533OSF34W+00260
11307888697220190616029B********************00810394180*****A*************00102000N20190616164055OSF34W+00260
11307888708420190616029B********************00809678100*****A*************00102000N20190616172152OSF32W+00260
11307888709220190616029B********************00811031407*****A*************00102000N20190616173036OSF32W+00260
11307888714920190616029B********************00503100027*****A*************00102000N20190616174739OSF34W+00260
11307888719920190616029B********************00809057780*****A*************00102000N20190616180434OSF34W+00260
11307888730120190616029B********************00405852581*****A*************00102000N20190616185601OSF34W+00260
11307888734220190616029B********************00809398530*****A*************00102000N20190616191258OSF32W+00260
11307888738220190616029B********************00807423795*****A*************00102000N20190616192631OSF34W+00260
11307888747920190616029B********************00405344695*****A*************00102000N20190616200516OSF31W+00260
11307888760020190616029B********************00810012738*****A*************00102000N20190616210811OSF31W+00260
11307888771420190616029B********************00808800216*****A*************00303000N20190616221956OSF32W+01425
11307888777320190616029B********************00810219286*****A*************00102000N20190616230132OSF34W+00260
11307888778620190616029B********************00502984045*****A*************00102000N20190616231332OSF32W+00260
11307888780620190616029B********************00407243412*****A*************00102000N20190616232458OSF34W+00260
11307888783320190616029B********************00809778278*****A*************00102000N20190616233629OSF31W+00260
11307888784920190616029B********************00808448426*****A*************00202000N20190616234730OSF32W+00835
11307888785920190616029B********************00502362848*****A*************00302000N20190616235422OSF31W+01425
11307888786320190616029B********************00809490552*****A*************00102000N20190616235723OSF34W+00260
11307888643220190616029B********************00502486978*****A*NJT16EEH    00100000N20190616132247OSF34W+00125
11307888620020190616029B********************00502535776*****A*NJNJD23E    00102000N20190616121807OSF32W+00125
11307888627620190616029B********************00810907330*****A*NYDPC1998   00100000N20190616123639OSF34W+00125
11307888642520190616029B********************00807686381*****A*NYEWN4842   00100000N20190616132006OSF31W+00125
11307888628220190616029B********************00807289645*****A*PAJWA5461   00100000N20190616123731OSF31W+00125
11307888610420190616029B********************00811025787*****A*PAJYK8505   00100000N20190616114730OSF31W+00125
11307888638920190616029B********************00406670241*****A*NYFSW8694   00100000N20190616130941OSF32W+00125
11307888638520190616029B********************00404389139*****A*NYAWA7235   00100000N20190616130855OSF34W+00125
11307888615120190616029B********************00502535776*****A*NJNJD23E    00100000N20190616120105OSF31W+00125
11307888648820190616029B********************00810187897*****A*NY1844      00102000N20190616134039OSF32W+00125
11307888656820190616029B********************00405079177*****A*NYCLN5408   00100000N20190616140912OSF31W+00125
11307888618820190616029B********************00502535776*****A*NJNJD23E    00100000N20190616121446OSF34W+00125
11307888652520190616029B********************00806094571*****A*PAJHJ4492   00100000N20190616135223OSF34W+00125
11307888624120190616029B********************00502535776*****A*NJNJD23E    00100000N20190616122637OSF34W+00125
11307888661920190616029B********************00810831708*****A*NYBCE2497   00100000N20190616142955OSF34W+00125
11307888619420190616029B********************00502535776*****A*NJNJD23E    00102000N20190616121715OSF31W+00125
11307888634920190616029B********************00808904831*****A*PAJYG2371   00100000N20190616130004OSF32W+00125
11307888618720190616029B********************00502535776*****A*NJNJD23E    00100000N20190616121413OSF32W+00125
11307888662620190616029B********************00502535776*****A*NJNJD23E    00100000N20190616143302OSF34W+00125
11307888596820190616029B********************00809376017*****A*CT243XSA    00100000N20190616110358OSF34W+00125
11307888656620190616029B********************00405493281*****A*NYFRH4722   00102000N20190616140642OSF31W+00125
11307888602620190616029B********************00806777128*****A*NYESD6424   00100000N20190616112209OSF34W+00125
11307888629120190616029B********************00810267053*****A*NYGHN5502   00100000N20190616124006OSF34W+00125
11307888628420190616029B********************00404446603*****A*NYGGV6914   00100000N20190616123808OSF34W+00125
